:0400000072EF00F0AB
:100008004682FACF10F0FBCF11F0E9CF12F0EACF19
:1000180013F0E1CF14F0E2CF15F0D9CF16F0DACF14
:1000280017F0F3CF18F0F4CF19F0F6CF1AF0F7CF96
:100038001BF0F8CF1CF0F5CF1DF046C01EF047C0EE
:100048001FF048C020F049C021F00E012CBD36AD8C
:100058000AD001D81DD00500FA6E4250FD6E4350FB
:10006800FE6E44500DD02CBF36AF0DD001D810D045
:100078000500FA6E0001D551FD6ED651FE6ED751BE
:10008800FF6EFA5012002AB334A302D00CEC90F0A1
:1000980021C049F020C048F01FC047F01EC046F0FC
:1000A8001DC0F5FF1CC0F8FF1BC0F7FF1AC0F6FF04
:1000B80019C0F4FF18C0F3FF17C0DAFF16C0D9FF44
:1000C80015C0E2FF14C0E1FF13C0EAFF12C0E9FF48
:1000D80011C0FBFF10C0FAFF46921100F4EF89F03F
:10FD3E000000000000000000000000000000006451
:10FD4E00010101000000000000000000000000643E
:10FD5E00010202000000000000000000000000642C
:10FD6E00010303000000000000000000000000641A
:10FD7E000104040000000000000000000000006408
:10FD8E0001002250282000000000012350282000EE
:10FD9E0000000002245028200000000003255028F7
:10FDAE002000000000042650282000000000202023
:10FDBE00204C697374206F6620737570706F727447
:10FDCE00656420636F6D6D616E64733A0A0D202059
:10FDDE00204C454473204F6E3A205475726E73203A
:10FDEE00616C6C204C454473204F6E0A0D20202010
:10FDFE004C454473204F66663A205475726E7320DC
:10FE0E00616C6C204C454473204F66660A0D2020B1
:10FE1E002052657365743A20436C65617273207469
:10FE2E006865207465726D696E616C20616E642008
:10FE3E0072657365747320746865206D6963726F83
:10FE4E000A0D202020436C6561723A20436C656177
:10FE5E00727320746865207465726D696E616C20B2
:10FE6E0062757420646F65736E2774207265736596
:10FE7E007420746865206D6963726F0A0D202020EE
:10FE8E002A49444E3F3A2052657475726E7320644F
:10FE9E006576696365206964656E74696669636118
:10FEAE0074696F6E0A0D20202048656C703A2054DC
:10FEBE00686973206D6573736167652C206C697357
:10FECE00747320636F6D6D616E64730A0D0050491B
:10FEDE004331384636374B3430206D546F75636876
:10FEEE002044656D6F0A0D42617564207261746500
:10FEFE003A20313135323030206B6270730A0D4E3C
:10FF0E006F207061726974792C2038206269747365
:10FF1E002C206E6F20666C6F7720636F6E74726F1D
:10FF2E006C2C20312073746F70206269740A0D433B
:10FF3E006F6D6D616E6473206172652063617365B0
:10FF4E002073656E7369746976650A0D456E746506
:10FF5E0072206120636F6D6D616E642C206F722054
:10FF6E0048656C7020666F72206C697374206F66C2
:10FF7E0020636F6D6D616E64730A0D00202020206A
:10FF8E006D546F756368205465737420426F61728F
:10FF9E00642C205245564100202020204C415446CE
:10FFAE00203D20307830300A0D004C415446203D23
:10FFBE0020307846460A0D004C454473204F666645
:10FFCE00004C454473204F6E002A49444E3F004377
:10FFDE006C6561720052657365740048656C7000E3
:10FFEE001B5B324A0049444E001B5B48001B5B4BB7
:02FFFE00000001
:020000040001F9
:100000000001BB6F0001BB51020D7E0EF324D96EBF
:10001000000EF420DA6EBB51060D600EB76F000EB5
:10002000B86FF350B727F450B823BB51010D220E1F
:10003000F324E16E000EF420E26EE7CFB9F0010E7A
:10004000E726B951020DF350B725E16EF450B821FF
:10005000E26EDECFE6FFDDCFE5FFBB51010D220EE4
:10006000F324D96E000EF420DA6E020EDF640AD09B
:10007000BB51010D220EF324D96E000EF420DA6E6E
:10008000000EDF6EBB51060D020EF326000EF422A9
:10009000600EF324D96E000EF420DA6EBB51060D0B
:1000A000600EF324E16E000EF420E26EDE50E65C9A
:1000B000DE50E658D8A067D0BB51060D040EF326DB
:1000C000000EF422600EF324D96E000EF420DA6ED6
:1000D000BB51060D020EF326000EF422600EF3242F
:1000E000E16E000EF420E26EDE50E65CDE50E65873
:1000F000D8A011D0BB51060D020EF326000EF4223B
:10010000600EF324D96E000EF420DA6EDECFB5F067
:10011000DDCFB6F01200BB51060D040EF326000E23
:10012000F422600EF324D96E000EF420DA6EBB5177
:10013000060D600EF324E16E000EF420E26EDE5038
:10014000E65CDE50E658D8A011D0BB51060D040E77
:10015000F326000EF422600EF324D96E000EF42074
:10016000DA6EDECFB5F0DDCFB6F01200BB51060D72
:10017000600EF324D96E000EF420DA6EDECFB5F0F7
:10018000DDCFB6F01200BB51060D040EF326000EB3
:10019000F422600EF324D96E000EF420DA6EBB5107
:1001A000060D600EF324E16E000EF420E26EDE50C8
:1001B000E65CDE50E658D8A00DD0BB51060D600EAF
:1001C000F324D96E000EF420DA6EDECFB5F0DDCF69
:1001D000B6F01200BB51060D040EF326000EF422F9
:1001E000600EF324D96E000EF420DA6EBB51060DBA
:1001F000020EF326000EF422600EF324E16E000ED0
:10020000F420E26EDE50E65CDE50E658D8A011D055
:10021000BB51060D040EF326000EF422600EF324EB
:10022000D96E000EF420DA6EDECFB5F0DDCFB6F079
:100230001200BB51060D020EF326000EF422600ED2
:10024000F324D96E000EF420DA6EDECFB5F0DDCFE8
:10025000B6F01200BCC0B5F0BDC0B6F0CF0E0001C4
:10026000B76FFF0EB86FCDEC8BF00001B551B61132
:10027000D8A417D0000E7E6EB50EB76FFF0EB86F04
:10028000BEEC8DF0A60E0001B76FFF0EB86FBEEC8E
:100290008DF0B50E0001B76FFF0EB86FBEEC8DF09C
:1002A0001200BCC0B5F0BDC0B6F0C60E0001B76FFD
:1002B000FF0EB86FCDEC8BF00001B551B611D8A48C
:1002C00016D07E68B50EB76FFF0EB86FBEEC8DF01E
:1002D000B80E0001B76FFF0EB86FBEEC8DF0B50E13
:1002E0000001B76FFF0EB86FBEEC8DF01200BCC0FE
:1002F000B5F0BDC0B6F0E30E0001B76FFF0EB86FEA
:10030000CDEC8BF00001B551B611D8A40FD0EE0E94
:10031000B76FFF0EB86FBEEC8DF0F70E0001B76F30
:10032000FF0EB86FBEEC8DF0FF001200BCC0B5F040
:10033000BDC0B6F0DD0E0001B76FFF0EB86FCDEC9B
:100340008BF00001B551B611D8A40ED0EE0EB76FE8
:10035000FF0EB86FBEEC8DF0F70E0001B76FFF0E09
:10036000B86FBEEC8DF01200BCC0B5F0BDC0B6F0E9
:10037000D70E0001B76FFF0EB86FCDEC8BF0000108
:10038000B551B611D8B40FD0BCC0B5F0BDC0B6F0F1
:10039000F30EB76FFF0EB86FCDEC8BF00001B551C7
:1003A000B611D8A415D0B50EB76FFF0EB86FBEEC5E
:1003B0008DF08A0E0001B76FFF0EB86FBEEC8DF0A6
:1003C000B50E0001B76FFF0EB86FBEEC8DF01200D6
:1003D000BCC0B5F0BDC0B6F0E90E0001B76FFF0EAE
:1003E000B86FCDEC8BF00001B551B611D8A4120056
:1003F000B50EB76FFF0EB86FBEEC8DF0BC0E0001EE
:10040000B76FFD0EB86FBEEC8DF0B50E0001B76F83
:10041000FF0EB86FBEEC8DF01200000E0001C36F2E
:10042000000EC26F000EC56F040EC56501D03FD02F
:10043000C551020D7E0EF324D96E000EF420DA6E43
:10044000DECFB9F0DDCFBAF0C551060D600EBB6F3F
:10045000000EBC6FF350BB27F450BC232B50020D91
:10046000F350BB25D96EF450BC21DA6EDECFBDF05F
:10047000DDCFBEF0BD1FBE1FBD4BBE2BB951BD258C
:10048000B56FBA51BE21B66F7FEC8EF0B5C0C0F02B
:10049000B6C0C1F00001C051C25DC151C359D8B04E
:1004A00004D0C0C0C2F0C1C0C3F0C52BBDD7C3517A
:1004B00004E1650EC25DD8A05AD02B50010D270E65
:1004C000F324D96E000EF420DA6EDF2A050EDF6405
:1004D0001200000EBF6F2B50010D3C0EF324D96E9D
:1004E000000EF420DA6EDF50C46FC451D8B402D0CD
:1004F000C40702D0780EC46F010EBF6F000EC66F26
:10050000020EC66501D014D02B50C619D8B40ED037
:10051000C651010D3C0EF324D96E000EF420DA6EA4
:10052000C451DE18D8A402D0000EBF6FC62BE8D786
:10053000BF51D8B4DAD72B50010D3C0EF324D96E3D
:10054000000EF420DA6EC4C0DFFF000EC66F020E8C
:10055000C66501D01200C651010D270EF324D96ED5
:10056000000EF420DA6E000EDF6EC62BF0D7C351FA
:1005700019E1320EC25DD8B012002B50010D270ECA
:10058000F324D96E000EF420DA6EDF50D8B41200D6
:100590002B50010D270EF324D96E000EF420DA6ED5
:1005A000DF0612001200000E0001BA6F000EF2BE4C
:1005B000010EB96F0DD02E2A050E2E18D8A408D022
:1005C000000E2E6E000E2D6E010E0001BA6F0CD0C3
:1005D0002E508AEC8DF00009D8A4EDD72E5070EC87
:1005E0008DF00009D8B4E7D70001BA51D8A41200A1
:1005F0002E50090D880EF324BB6F000EF420BC6F43
:10060000BBC0B5F0BCC0B6F077EC8FF00009D8B431
:1006100015D0000120EE03F0BB51D926BC51DA22DF
:10062000DF500F015C6F000120EE02F0BB51D926B4
:10063000BC51DA22DF500F015E6F22D0BBC0B5F093
:10064000BCC0B6F06AEC8FF00009D8B414D0000139
:1006500020EE02F0BB51D926BC51DA22DF500F0147
:100660005E6F000120EE03F0BB51D926BC51DA22A7
:10067000DF500F0104D0800E0F015E6F800E5C6FA3
:100680002A505E27000120EE01F0BB51D926BC5153
:10069000DA22DF500F015F6F000120EE04F0BB5142
:1006A000D926BC51DA22DF50B76FD890B731666EC9
:1006B00020EE05F0BB51D926BC51DA22DF500F01E4
:1006C0005D6F608E010E2D6E010E0001B56F2E5014
:1006D000E1EC8AF0F29E6080000120EE04F0BB5154
:1006E000D926BC51DA22DF50B76FB86B090ED8900B
:1006F000B737B837E82EFBD7B7C070FFB8C071FF67
:10070000B9A102D0F28E01D0F29E000E2C6E120022
:10071000000120EE0EF0BE51D926BF51DA22DF5083
:100720000008C06F20EE09F0BE51D926BF51DA2271
:10073000DE50800AC26FC051800AC25DD8B028D096
:1007400020EE0AF0BE51D926BF51DA22DE2A000E71
:10075000DD2220EE0AF0BE51D926BF51DA22010E69
:10076000DB5004E1410EDE5CD8A055D020EE0AF04B
:10077000BE51D926BF51DA22000EDE6E000EDD6EAC
:10078000BEC0D9FFBFC0DAFFDF506EEC8AF043D0A5
:10079000000120EE09F0BE51D926BF51DA2210EE39
:1007A0000EF0BE51E126BF51E222E650800AC26F30
:1007B000DE50800AC25DD8B023D020EE02F0BE51D8
:1007C000D926BF51DA22020EDF6E20EE0AF0BE51AA
:1007D000D926BF51DA22000EDE6E000EDD6E01D882
:1007E0001AD00500FA6E3950FD6E3A50FE6E3B503D
:1007F000FF6EFA50BEC0D9FFBFC0DAFFDF50120053
:10080000000120EE0AF0BE51D926BF51DA22000EB7
:10081000DE6E000EDD6E000120EE0CF0BE51D9261A
:10082000BF51DA22DE2A000EDD2220EE0CF0BE518E
:10083000D926BF51DA22400EDE18DE10D8A41200ED
:1008400020EE0CF0BE51D926BF51DA22000EDE6E2A
:10085000000EDD6EBEC0B5F0BFC0B6F087EC86F00E
:100860001200000E066E000EF2BE010E056E0CD0D8
:100870002E2A050E2E18D8A407D0000E2E6E000EBC
:100880002D6E010E066E0CD02E50F0EC8DF000098E
:10089000D8A4EED72E5009EC8EF00009D8B4E8D7D2
:1008A0000650D8A412002E50090D880EF324076EAE
:1008B000000EF420086E07C001F008C002F09DECA5
:1008C0008FF00009D8B412D020EE03F00750D926DB
:1008D0000850DA22DF500F015C6F20EE02F0075063
:1008E000D9260850DA22DF505E6F1FD007C001F012
:1008F00008C002F0A9EC8FF00009D8B411D020EEA6
:1009000002F00750D9260850DA22DF500F015E6F3F
:1009100020EE03F00750D9260850DA22DF5004D029
:10092000800E0F015E6F800E5C6F2A505E2720EEF6
:1009300001F00750D9260850DA22DF505F6F20EE11
:1009400004F00750D9260850DA22DF50036ED89001
:100950000330666E20EE05F00750D9260850DA22E3
:10096000DF505D6F608E010E2D6E010E016E2E50F8
:1009700014EC8BF0F29E608020EE04F00750D92634
:100980000850DA22DF50036E046A090ED89003364D
:100990000436E82EFBD703C070FF04C071FF05A02A
:1009A00002D0F28E01D0F29E000E2C6E120005C015
:1009B000D9FF06C0DAFFDF500D6E05C001F006C09A
:1009C00002F0A9EC8FF00009D8A42DD020EE04F09D
:1009D0000550D9260650DA22DF50076E086A090E44
:1009E000D89007360836E82EFBD77250075C735054
:1009F0000858D8B011D020EE05F00550D926065081
:100A0000DA22DF2A1E0EDF64120005C001F006C0E4
:100A100002F03AEC8EF0120005C001F006C002F0C0
:100A20003AEC8EF0120020EE04F00550D926065064
:100A3000DA22DF50076E086AD890073608360D5064
:100A4000020D7E0EF324D96E000EF420DA6EDECF96
:100A500009F0DDCF0AF072CF0BF073CF0CF00B1E54
:100A60000C1E0B4A0C2A09500B24016E0A500C2054
:100A7000026EE4EC8EF00750015C08500258D8B0CA
:100A80000FD020EE02F00550D9260650DA22800E53
:100A9000DF6E05C001F006C002F040EC8FF01200DE
:100AA00020EE03F00550D9260650DA22770EDF64D7
:100AB0000FD020EE02F00550D9260650DA22800E23
:100AC000DF6E05C001F006C002F040EC8FF01200AE
:100AD00020EE03F00550D9260650DA22080EDF2654
:100AE000120031C0C1F00001C26B000EC66F000ED3
:100AF000C56FC6BF06D0C6510FE1400EC55DD8B068
:100B00000BD0900EC525D96E010EC621DA6E000EEF
:100B1000DF6EC54BC62BEDD7000EC46F000EC36F42
:100B20000ED0C3EC8CF00001BE6F900EC325D96EC1
:100B3000010EC421DA6EBEC0DFFFC34BC42BC1510E
:100B4000C35DC451800ABE6FC251800ABE59D8A08D
:100B5000E8D733C032F017D0FF0EBE6FFF0EBF6F65
:100B6000900EB56F010EB66F66EC8CF00001BE51B1
:100B7000B527BF51B623900EB525D96E010EB6210B
:100B8000DA6E000EDF6EFF0EBE6FFF0EBF6F900EAF
:100B9000B56F010EB66F66EC8CF00001BE51B52743
:100BA000BF51B623900EB525D96E010EB621DA6E6F
:100BB0000A0EDE18D8B4D0D7FF0EBE6FFF0EBF6F7F
:100BC000900EB56F010EB66F66EC8CF00001BE5151
:100BD000B527BF51B623900EB525D96E010EB621AB
:100BE000DA6E0D0EDE18D8B4B7D7000E306E900E48
:100BF000BC6F010EBD6F2AEC81F01200000120EEE7
:100C000005F0B551D926B651DA22DECFB7F0DECFE6
:100C1000B8F0DECFB9F0DECFBAF0050E05D0D8902F
:100C2000BA33B933B833B733E82EF9D7B71FB81F83
:100C3000B91FBA1FB72B000EB823B923BA2320EE71
:100C400003F0B551D926B651DA22DECFBBF0DDCFA5
:100C5000BCF0BB51B725BD6FBC51B821BE6F000EB3
:100C6000B921BF6F000EBA21C06F20EE0FF0B55151
:100C7000D926B651DA22DF50B76FBDC0B8F0BEC07A
:100C8000B9F0BFC0BAF0C0C0BBF0B76701D007D0A1
:100C9000BB35BB33BA33B933B833B72FF6D7B8C087
:100CA000BDF0B9C0BEF0BAC0BFF0BBC0C0F000011B
:100CB000C0BF10D0C051BF11BE1104E1800EBD5D98
:100CC000D8A008D07F0EBD6F000EBE6F000EBF6FA4
:100CD000000EC06FC0AF12D0800EBD5DFF0EBE59BA
:100CE000FF0EBF59FF0EC059D8B008D0800EBD6F9F
:100CF000FF0EBE6FFF0EBF6FFF0EC06F20EE09F03C
:100D0000B551D926B651DA22BDC0DFFF1200F2AECE
:100D100040D0F29E000120EE05F0B551D926B65123
:100D2000DA22DECFB7F0DECFB8F0DECFB9F0DECF1B
:100D3000BAF0050E05D0D890BA33B933B833B7330B
:100D4000E82EF9D720EE05F0B551D926B651DA22B2
:100D5000B751DE5EB851DE5AB951DE5ABA51DE5A89
:100D600020EE03F0B551D926B651DA22DECFB7F026
:100D7000DDCFB8F020EE05F0B551D926B651DA2214
:100D8000B751DE26B851DE22000EDE22DE22F28EC0
:100D90001200000120EE05F0B551D926B651DA2235
:100DA000DECFB7F0DECFB8F0DECFB9F0DECFBAF0ED
:100DB000050E05D0D890BA33B933B833B733E82E1F
:100DC000F9D720EE05F0B551D926B651DA22B75140
:100DD000DE5EB851DE5AB951DE5ABA51DE5A20EE03
:100DE00003F0B551D926B651DA22DECFB7F0DDCF08
:100DF000B8F020EE05F0B551D926B651DA22B75138
:100E0000DE26B851DE22000EDE22DE2212000001B4
:100E100020EE0AF0BE51D926BF51DA22E80EDE5C80
:100E2000030EDE58D8A018D0BEC0D9FFBFC0DAFF6D
:100E3000DF506EEC8AF001D812000500FA6E3650D1
:100E4000FD6E3750FE6E3850FF6EFA50BEC0D9FFAF
:100E5000BFC0DAFFDF501200000120EE0EF0BE51DD
:100E6000D926BF51DA22DF50C06F20EE0EF0BE51FE
:100E7000D926BF51DA22DF50C16FC135C131000818
:100E8000C025C26F20EE09F0BE51D926BF51DA222B
:100E9000DE50800AC46FC251800AC45DD8B012000F
:100EA00020EE02F0BE51D926BF51DA22010EDF6ECC
:100EB00020EE0AF0BE51D926BF51DA22000EDE6EB6
:100EC000000EDD6E20EE0CF0BE51D926BF51DA22A5
:100ED000FF0EDE6EFB0EDD6E01D812000500FA6E0D
:100EE0003650FD6E3750FE6E3850FF6EFA50BEC061
:100EF000D9FFBFC0DAFFDF5012000001C66F00014A
:100F0000C651090D880EF324C76F000EF420C86F78
:100F1000C7C0B5F0C8C0B6F0F8EC8EF00009D8B480
:100F20005AD00001C651020D7E0EF324D96E000E78
:100F3000F420DA6EDECFC0F0DDCFC1F020EE06F097
:100F4000C751D926C851DA22DECFC2F0DDCFC3F0B7
:100F5000C21FC31FC24BC32BC051C225B56FC151A5
:100F6000C321B66F7FEC8EF0000120EE04F0C75174
:100F7000D926C851DA22DF50C46FC56BD890C43768
:100F8000C537D890C437C537B551C45DB651C559BA
:100F9000D8B007D0C7C0B5F0C8C0B6F0D0EC8FF05D
:100FA00006D0C7C0B5F0C8C0B6F0C7EC8FF0C7C058
:100FB000BCF0C8C0BDF01CEC8CF001D812000500DC
:100FC000FA6E3F50FD6E4050FE6E4150FF6EFA507B
:100FD0000001C6511200C7C0B5F0C8C0B6F0C7ECDA
:100FE0008FF01200000120EE0AF0BE51D926BF5149
:100FF000DA22010EDB500BE1090EDE5CD8B007D01F
:10100000BEC0B8F0BFC0B9F045EC8BF006D0BEC092
:10101000B5F0BFC0B6F087EC86F0000120EE0AF014
:10102000BE51D926BF51DA22DE2A000EDD2220EE83
:101030000AF0BE51D926BF51DA22010EDB5004E17D
:10104000100EDE5CD8A0120020EE05F0BE51D926AD
:10105000BF51DA22DECFC0F0DECFC1F0DECFC2F06A
:10106000DECFC3F0050E05D0D890C333C233C133F1
:10107000C033E82EF9D720EE03F0BE51D926BF5178
:10108000DA22C0C0DEFFC1C0DDFF20EE02F0BE519B
:10109000D926BF51DA22010EDF6E20EE0AF0BE51D2
:1010A000D926BF51DA22000EDE6E000EDD6E120070
:1010B0000001C66F0001C651100D400EF324C76F2A
:1010C000010EF420C86F20EE01F0C751D926C85197
:1010D000DA22DF508AEC8DF00009D8B4120000014A
:1010E00020EE01F0C751D926C851DA22DF50A4EC16
:1010F0008DF00009D8B41200C7C0BCF0C8C0BDF064
:101100001DEC8FF0C7C0B5F0C8C0B6F0FEEC85F09E
:10111000000120EE02F0C751D926C851DA22020E92
:10112000DF6407D0C7C0D9FFC8C0DAFFDF506EEC5C
:101130008AF0C7C0BEF0C8C0BFF0000120EE02F0C8
:10114000C751D926C851DA22DF50C56FC551030DEA
:10115000CC0EF324D96E000EF420DA6E01D8120002
:101160000500FA6EDE50FD6EDE50FE6EDE50FF6E44
:10117000FA501200000120EE02F0B851D926B95100
:10118000DA22DF50D8B435D020EE03F0B851D9269A
:10119000B951DA22DECFBAF0DDCFBBF0D890BB3345
:1011A000BA33D890BB33BA3320EE03F0B851D92606
:1011B000B951DA22BA51DE5EBB51DD5A20EE01F0A0
:1011C000B851D926B951DA22DF5054EC8DF0000124
:1011D000D890B633B533D890B633B53320EE03F09C
:1011E000B851D926B951DA22B551DE26B651DD22E1
:1011F000120020EE01F0B851D926B951DA22DF50A1
:1012000054EC8DF0000120EE03F0B851D926B9510D
:10121000DA22B5C0DEFFB6C0DDFF1200000E7D6E23
:10122000000E7C6E000E796E1F0E7E6E000E7A6EC2
:10123000000E7F6E000E7B6E000E806E8568E00EE5
:10124000866E81685F0E876E82680F0E886E836877
:1012500084680E01A7699A69AF69BF0EBC6FE00E82
:10126000B46F9269000EA66F000EB36F000EAE6FE2
:10127000000E996F000EBB6F000E916F000EA16FF4
:10128000000EC06F000EAD6F1F0EB26F000E906F9C
:10129000000EBA6F000E986F000EBF6F000EA06FA9
:1012A000000EA56F0E0E896F119111831185119794
:1012B0001189118B12000E01F5A302D0F599F58961
:1012C0003350010D000EF324D96E010EF420DA6EB6
:1012D000F1CEDFFF332A3F0E336402D0000E336EAF
:1012E000312A0A0EF119D8B404D00D0EF119D8A480
:1012F00005D0010E306E000EF16F02D0000E306E80
:10130000080EF119D8A412003350010D000EF32479
:10131000D96E010EF420DA6E000EDF6E3306FB0E7E
:10132000036EFF0E046E52EC8EF032503318D8B4B8
:101330000BD03350010D000EF324D96E010EF420B2
:10134000DA6E000EDF6E3306000E0E01F16F120032
:101350005DEC8FF0F28EF28CFFEC8CF03050D8A464
:1013600071EC85F0A8EC8EF0000E69EC8EF0FF0AAF
:101370000001CB6F7E50CB19FE0BCB197E6E010E98
:1013800069EC8EF0FF0A0001CB6FCB477E50CB1982
:10139000FD0BCB197E6E020E69EC8EF0FF0A000188
:1013A000CB6FCB47CB477E50CB19FB0BCB197E6E57
:1013B000030E69EC8EF0FF0A0001CB6FCB47CB47E1
:1013C000CB477E50CB19F70BCB197E6E040E69EC20
:1013D0008EF0FF0A0001CB6FCB3B7E50CB19EF0B99
:1013E000CB197E6E00F0BAD7220EF66E200EF76E85
:1013F000010EF86E00EECCF010EE09F00900F5CF0A
:10140000EEFFE550E150FAE1EC0EF66E1F0EF76EBE
:10141000010EF86E00EE36F010EE0CF00900F5CF7C
:10142000EEFFE550E150FAE102EE00F0400EEE6A08
:10143000E806FDE101EE00F0D00EEE6AE806FDE1FF
:1014400000EE60F0550EEE6AE806FDE100EE22F0D7
:10145000140EEE6AE806FDE1469046920001A8EF00
:1014600089F00001B76F14D00E01AE95AF9522D070
:101470000E01AE97AF971ED00E01AE99AF991AD05C
:101480000E01AE9BAF9B16D00E01AE9DAF9D12D04C
:101490000001B751000AD8B4E7D7010AD8B4E8D799
:1014A000030AD8B4E9D7010AD8B4EAD7070AD8A4FE
:1014B0001200EAD70001B75194EC8EF00001B75149
:1014C000D0EC8EF00001B751090D880EF324B56FF2
:1014D000000EF420B66FBEEC8FF012000001B66F64
:1014E0000001B651100D400EF324B76F010EF42029
:1014F000B86F20EE02F0B751D926B851DA22000EAB
:10150000DF6E20EE05F0B751D926B851DA22DE6A37
:10151000DE6ADE6ADD6A20EE0AF0B751D926B851DC
:10152000DA22000EDE6E000EDD6E20EE0CF0B751FA
:10153000D926B851DA22000EDE6E000EDD6E20EEE6
:1015400001F0B751D926B851DA22DF50D0EC8EF035
:101550001200000E016E2E5014EC8BF02C50D8B4FB
:1015600002D0609E2BD0609E2E50090D880EF32471
:101570000E6E000EF4200F6E0EC001F00FC002F0D0
:101580009DEC8FF00009D8A407D00EC005F00FC065
:1015900006F0D7EC84F006D00EC001F00FC002F0C8
:1015A000D9EC8FF02E50020D7E0EF324D96E000E72
:1015B000F420DA6E72CFDEFF73CFDDFF31EC84F002
:1015C00012000001B66F1ED0B5B102D0859401D0D3
:1015D00085841200B5B102D0859601D085861200AF
:1015E000B5B102D0859801D085881200B5B102D07E
:1015F000859A01D0858A1200B5B102D0859C01D0B0
:10160000858C12000001B651000AD8B4DDD7010A5A
:10161000D8B4E0D7030AD8B4E3D7010AD8B4E6D7E0
:10162000070AD8A41200E8D7026E1ED001B002D07B
:10163000859401D08584120001B002D0859601D036
:101640008586120001B002D0859801D085881200ED
:1016500001B002D0859A01D0858A120001B002D073
:10166000859C01D0858C12000250000AD8B4DED7C8
:10167000010AD8B4E1D7030AD8B4E4D7010AD8B430
:10168000E7D7070AD8A41200E9D7000120EE01F03D
:10169000B851D926B951DA22DF5054EC8DF000014F
:1016A000B551BA6FB651BB6FBC6BBD6B20EE05F088
:1016B000B851D926B951DA22BAC0DEFFBBC0DEFF6D
:1016C000BCC0DEFFBDC0DEFF20EE05F0B851D9265C
:1016D000B951DA22040ED890DE36DE36DE36DD363B
:1016E000D906D906E82EF7D712000E012C9FB60EA8
:1016F0000001B56F120EB66F010EB76FEFEC8FF0F1
:101700000E012C9DAE0E0001B56F1B0EB66F010EC3
:10171000B76FE8EC8FF0080E0E01F76F900EF56FC3
:10172000240EF66F8A0EF36F000EF46F000E356E06
:10173000000E346E400E456E000E336E000E326E9B
:10174000000E316E2C8F1200000120EE02F0B55118
:10175000D926B651DA22020EDE18D8A4120020EEE5
:101760000AF0B551D926B651DA22DE2A000EDD2262
:1017700020EE0AF0B551D926B651DA22DE50DE103D
:10178000D8A4120020EE0AF0B551D926B651DA22BB
:10179000FF0EDE6EFF0EDD6E120005D00001B54BB0
:1017A000B62BB74BB82BB5C0D9FFB6C0DAFFDF50A8
:1017B0000001B96FB7C0F6FFB8C0F7FF000EF86EB2
:1017C0000800F5500008B925BA6FBA51D8A407D05F
:1017D000B5C0D9FFB6C0DAFFDF50D8A4DFD7BA5101
:1017E000B56FB66BB5BFB6071200B7C0BEF0B8C0D4
:1017F000BFF0B5C0BCF0B6C0BDF014D0BEC0F6FF9F
:10180000BFC0F7FF000EF86E0800F5CFBBF0000177
:10181000BE4BBF2BBCC0D9FFBDC0DAFFBBC0DFFFD2
:10182000BC4BBD2B0001B907D8A0BA07B929E6E126
:10183000BA29D8B41200E2D7BCC0D9FFBDC0DAFFC4
:10184000DF5000EC80F0B5C0BEF0B6C0BFF0F2AE25
:101850000ED0F29E000120EE06F0BC51D926BD51FB
:10186000DA22BEC0DEFFBFC0DDFFF28E1200000133
:1018700020EE06F0BC51D926BD51DA22BEC0DEFFF3
:10188000BFC0DDFF1200000E0001CA6F040ECA6562
:1018900001D018D0CA518AEC8DF00009D8A40FD01D
:1018A0000001CA5170EC8DF00009D8B408D01CECCE
:1018B00090F00009D8B4D3EC82F0000E12000001C1
:1018C000CA2BE4D70BEC8FF0010E1200B5C0B9F0B3
:1018D000B6C0BAF003D00001B94BBA2BB9C0D9FFDA
:1018E000BAC0DAFFDF50D8A4F6D7B5C0B7F0B6C09B
:1018F000B8F00001B71FB81FB74BB82BB951B725C7
:10190000B56FBA51B821B66F12000001B56F4550DE
:10191000D8B4FDD70E012CBD03D0B5C0F2FE12D055
:101920002C9D3550010D000EF324D96E020EF420CB
:10193000DA6EB5C0DFFF352A3F0E356402D0000EE7
:10194000356E45062C8D12001F0E0F01576F000ECD
:10195000586F000E5D6F000E6A6E000E6B6E000E0B
:101960006C6E000E6D6E000E686E000E696E410E9C
:10197000596F8B0E5A6F0F0E5B6FC40E606E0E01A7
:1019800034932A831200000E0001B56F3150D8B491
:10199000FDD73250010D000EF324D96E010EF42054
:1019A000DA6EDF500001B56F322A3F0E326402D08A
:1019B000000E326E0E012C9F31062C8F0001B551A6
:1019C0001200016E4550D8B4FDD70E012CBD03D0D6
:1019D00001C0F2FE12D02C9D3550010D000EF324F3
:1019E000D96E020EF420DA6E01C0DFFF352A3F0EF9
:1019F000356402D0000E356E45062C8D1200EE0EB9
:101A00000001B76FFF0EB86FBEEC8DF0F70E00014E
:101A1000B76FFF0EB86FBEEC8DF0DC0E0001B76F34
:101A2000FE0EB86FBEEC8DF0B50E0001B76FFF0E65
:101A3000B86FBEEC8DF01200880E0001B56F000E7D
:101A4000B66F8F0EB76FFD0EB86F000EBA6F2D0E0A
:101A5000B96FF5EC8BF0000E0001C06F040EC0658D
:101A600001D01200C05131EC8AF00001C02BF6D732
:101A7000400E0001B56F010EB66F3F0EB76FFD0E41
:101A8000B86F000EBA6F500EB96FF5EC8BF0000E08
:101A90000001C06F040EC06501D01200C0516EEC91
:101AA0008AF00001C02BF6D70001B76F050E0001C8
:101AB000B76111D0B751090D060EF326000EF422BE
:101AC000880EF324D96E000EF420DA6EDECFB5F066
:101AD000DDCFB6F01200000EB66F000EB56F12002B
:101AE0000001B56F050E0001B56112D0B551090DA9
:101AF000080EF326000EF422880EF324D96E000E91
:101B0000F420DA6EDFA002D0010E1200000E1200E7
:101B1000000E12000001B56F050E0001B56112D074
:101B2000B551090D080EF326000EF422880EF32499
:101B3000D96E000EF420DA6EDFA202D0010E120080
:101B4000000E1200000E12000001B56F050E00011C
:101B5000B56112D0B551090D080EF326000EF4221E
:101B6000880EF324D96E000EF420DA6EDFA602D0C0
:101B7000010E1200000E1200000E1200B90E00013C
:101B8000B96F000EBA6F03D0BB51E1EC8FF0B7C054
:101B9000F6FFB8C0F7FF0001B74BB82B000EF86E88
:101BA0000800F5CFBBF0BB51D8B41200EDD7400E02
:101BB000456013D03450010D000EF324D96E020E8F
:101BC000F420DA6EDF500E01F26F342A3F0E3464D7
:101BD00002D0000E346E452A12000E012C9D120018
:101BE000016E050E016013D00150090D080EF32699
:101BF000000EF422880EF324D96E000EF420DA6E63
:101C00000001DFA202D0010E1200000E1200000E31
:101C10001200016E050E016013D00150090D080E6F
:101C2000F326000EF422880EF324D96E000EF42061
:101C3000DA6E0001DFA002D0010E1200000E1200C9
:101C4000000E1200880E0001B76F000EB86FB85179
:101C5000000802E1B751AC08D8A01200B7C0B5F037
:101C6000B8C0B6F0BEEC8FF0090E0001B727000E29
:101C7000B823EDD720EE08F00150D9260250DA2221
:101C8000DF8820EE03F00150D9260250DA22080E38
:101C9000DF6E20EE02F00150D9260250DA22800ECB
:101CA000DF6E1200050E056E000E066E03D00750A3
:101CB00007EC90F003C0F6FF04C0F7FF034A042AC4
:101CC000000EF86E0800F5CF07F00750D8B41200E8
:101CD000EED70001B56F050E0001B5610ED0B5510C
:101CE000100D020EF326000EF422400EF324D96EDE
:101CF000010EF420DA6EDF501200000E1200000117
:101D0000B6AF0DD0B5C0B7F0B6C0B8F0B71FB81FAA
:101D1000B74BB82BB7C0B5F0B8C0B6F01200B5C01D
:101D2000B5F0B6C0B6F012000001B56F050E0001A7
:101D3000B5611200B551090D080EF326000EF4220C
:101D4000880EF324D96E000EF420DA6EDF801200C4
:101D5000010E2F6E2F50D8B4120043EC8CF0000906
:101D6000D8B4120084EC8FF002EC90F02F6E22ECCD
:101D70008EF019EC90F01200000E0001B96F040E05
:101D8000B96501D01200B951100D400EF324B56FA2
:101D9000010EF420B66FA4EC8BF00001B92BEFD745
:101DA0000001B56F050E0001B5611200B551090DB6
:101DB000080EF326000EF422880EF324D96E000ECE
:101DC000F420DA6EDF96120002AE0DD001C003F0EF
:101DD00002C004F0031E041E034A042A03C001F0DB
:101DE00004C002F0120001C001F002C002F01200B3
:101DF0000001B551B611D8B40CD020EE08F0B551A1
:101E0000D926B651DA22DFA002D0010E1200000E50
:101E10001200000E12000DEC82F0000E0001C96FDE
:101E2000040EC96501D006D0C9517DEC87F00001D0
:101E3000C92BF6D72FEC8FF01200F2AE09D0F29E2C
:101E4000BCC0B8F0BDC0B9F0BAEC88F0F28E120098
:101E5000BCC0B8F0BDC0B9F0BAEC88F012002B2AB3
:101E6000020E2B6402D0000E2B6E2B50010D3C0E87
:101E7000F324D96E000EF420DA6EDF502A6E1200C1
:101E800020EE08F00150D9260250DA22DF8620EE3B
:101E900008F00150D9260250DA22DF981200000E15
:101EA0000E014C6F000E4D6F000E4E6F000E4F6F07
:101EB000000E506F000E516F1200FCEC8FF04FECD3
:101EC0008FF00EEC89F091EC8FF075EC8BF0B5ECA7
:101ED0008FF01200000120EE08F0B551D926B6515E
:101EE000DA22DFA802D0010E1200000E120000015B
:101EF00020EE08F0B551D926B651DA22DFA602D07D
:101F0000010E1200000E1200000E0001C96F040E37
:101F1000C96501D01200C95158EC88F00001C92BE5
:101F2000F6D7600E0E01436F000E456F000E476F2F
:101F3000080E496F000E486F120020EE08F00150A5
:101F4000D9260250DA22DFA602D0010E1200000EBE
:101F5000120020EE08F00150D9260250DA22DFA844
:101F600002D0010E1200000E12001CEC8DF038ECB5
:101F70008DF022EC8EF016EC90F01200000120EEB5
:101F800008F0B551D926B651DA22DF9212000001CD
:101F900020EE08F0B551D926B651DA22DF941200AE
:101FA000000120EE08F0B551D926B651DA22DF84BF
:101FB000120020EE08F00150D9260250DA22DF820A
:101FC00012000001B66F0001B65185EC8CF01200D2
:101FD000B5C042F0B6C043F0B7C044F01200B5C07F
:101FE000D5F0B6C0D6F0B7C0D7F012003E20013E03
:101FF0002001003C783C2001F28A0E01228D228FC4
:1020000020831200000E0001B56FB5511200026E60
:102010000250E1EC8CF012000E013493A9EC8AF02E
:0B2020001200E40F011007010E0E017A
:10202C00A4EC8CF01200BCEC8EF012002D501200BF
:04203C00120012007C
:020000040020DA
:10000000FF0FFF0FFF0FFF0FFF0FFF0FFF0FFF0F80
:020000040030CA
:0C000000ECFFFFF79FFFFFDFFFFFFFFF9B
:00000001FF
