:0400000077EF00F0A6
:100008005082FACF17F0FBCF18F0E9CF19F0EACFFA
:100018001AF0E1CF1BF0E2CF1CF0D9CF1DF0DACFF8
:100028001EF0F3CF1FF0F4CF20F0F6CF21F0F7CF7A
:1000380022F0F8CF23F0F5CF24F050C025F051C0BE
:1000480026F052C027F053C028F00E012CBD36AD63
:100058000AD001D822D00500FA6E4550FD6E4650F0
:10006800FE6E47500CD02CBF36AF0CD001D815D03F
:100078000500FA6E4250FD6E4350FE6E4450FF6E0E
:10008800FA5012002AB334A303D0A6EC93F005D09B
:1000980029B933A902D090EC93F028C053F027C0B7
:1000A80052F026C051F025C050F024C0F5FF23C0FF
:1000B800F8FF22C0F7FF21C0F6FF20C0F4FF1FC0E1
:1000C800F3FF1EC0DAFF1DC0D9FF1CC0E2FF1BC032
:1000D800E1FF1AC0EAFF19C0E9FF18C0FBFF17C00B
:0A00E800FAFF5092110096EF8CF021
:10FB1A000001000A006400E8031027000000010049
:10FB2A000000000000000000000064010101000163
:10FB3A000000000000000000000000640102020052
:10FB4A00010000000000000000000000640103033F
:10FB5A000001000000000000000000000064010431
:10FB6A000400010000000000000000000000640121
:10FB7A000022502820000000000123502820000005
:10FB8A0000000224502820000000000325502820ED
:10FB9A000000000004265028200000000020202039
:10FBAA0020426F6F7420636F6D706C6574650A0D07
:10FBBA002020202050494331384636374B343020F4
:10FBCA006D546F756368205465737420426F617257
:10FBDA00640A0D202020204576616C756174657376
:10FBEA0020746865206D546F756368206361706165
:10FBFA0063697469766520746F756368206C6962DD
:10FC0A007261727920646973747269627574656469
:10FC1A00206279204D6963726F636869700A0D20EA
:10FC2A00202020536574732074686520737461748E
:10FC3A0065206F662066697665204C4544732062AC
:10FC4A0061736564206F6E206D546F7563682063FD
:10FC5A00617061636974697665207075736862752D
:10FC6A0074746F6E730A0D2020202042617564201F
:10FC7A00726174653A2031313532303020627073E6
:10FC8A000A0D202020204E6F207061726974792C31
:10FC9A00203820626974732C206E6F20666C6F772F
:10FCAA0020636F6E74726F6C2C20312073746F70C6
:10FCBA00206269740A0D20202020436F6D6D616EE9
:10FCCA0064732061726520636173652073656E7366
:10FCDA0069746976650A0D20202020456E74657264
:10FCEA00206120636F6D6D616E642C206F722065D8
:10FCFA006E7465722048656C7020666F72206C693C
:10FD0A007374206F6620636F6D6D616E64730A0D84
:10FD1A00002020204C697374206F66207375707000
:10FD2A006F7274656420636F6D6D616E64733A0AF5
:10FD3A000D2020204C454473204F6E3A2054757292
:10FD4A006E7320616C6C204C454473204F6E0A0D13
:10FD5A002020204C454473204F66663A2054757221
:10FD6A006E7320616C6C204C454473204F66660AA2
:10FD7A000D202020427574746F6E2053746174656F
:10FD8A00733F3A2052657475726E7320737461748E
:10FD9A0065206F6620616C6C2066697665206D54FB
:10FDAA006F75636820627574746F6E730A0D202014
:10FDBA002052657365743A20436C656172732074CE
:10FDCA006865207465726D696E616C20616E64206D
:10FDDA0072657365747320746865206D6963726FE8
:10FDEA000A0D202020436C6561723A20436C6561DC
:10FDFA00727320746865207465726D696E616C2017
:10FE0A0062757420646F65736E27742072657365FA
:10FE1A007420746865206D6963726F0A0D20202052
:10FE2A002A49444E3F3A2052657475726E732064B3
:10FE3A006576696365206964656E7469666963617C
:10FE4A0074696F6E0A0D20202048656C703A205440
:10FE5A00686973206D6573736167652C206C6973BB
:10FE6A00747320636F6D6D616E64730A0D002020D8
:10FE7A002020427574746F6E20302068617320628E
:10FE8A0065656E20707265737365640A0D002020C3
:10FE9A002020427574746F6E20312068617320626D
:10FEAA0065656E20707265737365640A0D002020A3
:10FEBA002020427574746F6E20322068617320624C
:10FECA0065656E20707265737365640A0D00202083
:10FEDA002020427574746F6E20332068617320622B
:10FEEA0065656E20707265737365640A0D00202063
:10FEFA002020427574746F6E20342068617320620A
:10FF0A0065656E20707265737365640A0D00202042
:10FF1A0020206D546F756368205465737420426F96
:10FF2A006172642C205245564100202020204275DF
:10FF3A0074746F6E20303A2025640A0D0020202048
:10FF4A0020427574746F6E20313A2025640A0D00C0
:10FF5A0020202020427574746F6E20323A20256466
:10FF6A000A0D0020202020427574746F6E20333AE7
:10FF7A002025640A0D0020202020427574746F6EBB
:10FF8A0020343A2025640A0D00202020204C4154B8
:10FF9A0046203D20307830300A0D00202020204CA9
:10FFAA00415446203D20307846460A0D0042757479
:10FFBA00746F6E205374617465733F004C454473CB
:10FFCA00204F6666004C454473204F6E002A494410
:10FFDA004E3F00436C656172005265736574004858
:10FFEA00656C70001B5B324A0049444E001B5B483B
:06FFFA00001B5B4B000040
:020000040001F9
:100000004FA01200C7C0AFF0C8C0B0F0CF0E0001C3
:10001000B16FFF0EB26FEFEC8EF00001AF51B01177
:10002000D8A417D0000E7E6EA20EBB6FFF0EBC6F61
:1000300068EC85F0930E0001BB6FFF0EBC6F68EC9F
:1000400085F0A20E0001BB6FFF0EBC6F68EC85F05F
:100050001200C7C0AFF0C8C0B0F0C60E0001B16F4B
:10006000FF0EB26FEFEC8EF00001AF51B011D8A4CB
:1000700016D07E68A20EBB6FFF0EBC6F68EC85F0D9
:10008000A50E0001BB6FFF0EBC6F68EC85F0A20EE1
:100090000001BB6FFF0EBC6F68EC85F01200C7C09B
:1000A000AFF0C8C0B0F0B70E0001B16FFF0EB26F75
:1000B000EFEC8EF00001AF51B011D8A459D0A20ED0
:1000C000BB6FFF0EBC6F68EC85F0340E0001BB6F98
:1000D000FF0EBC6F000EDCEC90F00001C96FC9513F
:1000E000BD6FBE6B68EC85F0470E0001BB6FFF0E65
:1000F000BC6F010EDCEC90F00001C96FC951BD6FFF
:10010000BE6B68EC85F05A0E0001BB6FFF0EBC6F32
:10011000020EDCEC90F00001C96FC951BD6FBE6BDF
:1001200068EC85F06D0E0001BB6FFF0EBC6F030E17
:10013000DCEC90F00001C96FC951BD6FBE6B68EC7B
:1001400085F0800E0001BB6FFF0EBC6F040EDCEC6F
:1001500090F00001C96FC951BD6FBE6B68EC85F0AE
:10016000A20E0001BB6FFF0EBC6F68EC85F01200A1
:10017000C7C0AFF0C8C0B0F0E30E0001B16FFF0E12
:10018000B26FEFEC8EF00001AF51B011D8A40FD0D8
:10019000EE0EBB6FFF0EBC6F68EC85F0F70E000132
:1001A000BB6FFF0EBC6F68EC85F0FF001200C7C08C
:1001B000AFF0C8C0B0F0DD0E0001B16FFF0EB26F3E
:1001C000EFEC8EF00001AF51B011D8A40ED0EE0EBE
:1001D000BB6FFF0EBC6F68EC85F0F70E0001BB6FC4
:1001E000FF0EBC6F68EC85F01200C7C0AFF0C8C04E
:1001F000B0F0D70E0001B16FFF0EB26FEFEC8EF0D2
:100200000001AF51B011D8B40FD0C7C0AFF0C8C013
:10021000B0F0F30EB16FFF0EB26FEFEC8EF0000195
:10022000AF51B011D8A415D0A20EBB6FFF0EBC6F9A
:1002300068EC85F0180E0001BB6FFF0EBC6F68EC18
:1002400085F0A20E0001BB6FFF0EBC6F68EC85F05D
:100250001200C7C0AFF0C8C0B0F0E90E0001B16F26
:10026000FF0EB26FEFEC8EF00001AF51B011D8A4C9
:100270001200A20EBB6FFF0EBC6F68EC85F01B0E68
:100280000001BB6FFD0EBC6F68EC85F0A20E000193
:10029000BB6FFF0EBC6F68EC85F012000001B56FFC
:1002A0000001B551020D290EF324D96E000EF42081
:1002B000DA6EB551060D600EB16F000EB26FF350DD
:1002C000B127F450B223B551010D330EF324E16E82
:1002D000000EF420E26EE7CFB3F0010EE726B35133
:1002E000020DF350B125E16EF450B221E26EDECF83
:1002F000E6FFDDCFE5FFB551010D330EF324D96ED6
:10030000000EF420DA6E020EDF640AD0B551010D42
:10031000330EF324D96E000EF420DA6E000EDF6E79
:10032000B551060D020EF326000EF422600EF324E2
:10033000D96E000EF420DA6EB551060D600EF3246E
:10034000E16E000EF420E26EDE50E65CDE50E65810
:10035000D8A067D0B551060D040EF326000EF42286
:10036000600EF324D96E000EF420DA6EB551060D3E
:10037000020EF326000EF422600EF324E16E000E4E
:10038000F420E26EDE50E65CDE50E658D8A011D0D4
:10039000B551060D020EF326000EF422600EF32472
:1003A000D96E000EF420DA6EDECFAFF0DDCFB0F004
:1003B0001200B551060D040EF326000EF422600E55
:1003C000F324D96E000EF420DA6EB551060D600EDE
:1003D000F324E16E000EF420E26EDE50E65CDE50A7
:1003E000E658D8A011D0B551060D040EF326000E24
:1003F000F422600EF324D96E000EF420DA6EDECF04
:10040000AFF0DDCFB0F01200B551060D600EF32451
:10041000D96E000EF420DA6EDECFAFF0DDCFB0F093
:100420001200B551060D040EF326000EF422600EE4
:10043000F324D96E000EF420DA6EB551060D600E6D
:10044000F324E16E000EF420E26EDE50E65CDE5036
:10045000E658D8A00DD0B551060D600EF324D96E24
:10046000000EF420DA6EDECFAFF0DDCFB0F0120078
:10047000B551060D040EF326000EF422600EF3248F
:10048000D96E000EF420DA6EB551060D020EF32679
:10049000000EF422600EF324E16E000EF420E26EF2
:1004A000DE50E65CDE50E658D8A011D0B551060DFE
:1004B000040EF326000EF422600EF324D96E000E13
:1004C000F420DA6EDECFAFF0DDCFB0F01200B55120
:1004D000060D020EF326000EF422600EF324D96EF0
:1004E000000EF420DA6EDECFAFF0DDCFB0F01200F8
:1004F000000120EE0FF0C951D926CA51DA22DF508F
:100500000008CB6F20EE0AF0C951D926CA51DA2271
:10051000DE50800ACD6FCB51800ACD5DD8B028D097
:1005200020EE0BF0C951D926CA51DA22DE2A000E7C
:10053000DD2220EE0BF0C951D926CA51DA22010E74
:10054000DB5004E1410EDE5CD8A069D020EE0BF058
:10055000C951D926CA51DA22000EDE6E000EDD6EB8
:10056000C9C0D9FFCAC0DAFFDF5010EC8DF057D0F8
:10057000000120EE0AF0C951D926CA51DA2210EE44
:100580000FF0C951E126CA51E222E650800ACD6F30
:10059000DE50800ACD5DD8B037D020EE03F0C951CF
:1005A000D926CA51DA22DF50D8B409D0C9C0B7F071
:1005B000CAC0B8F03BEC87F00009D8A412000001D3
:1005C00020EE02F0C951D926CA51DA22020EDF6E9E
:1005D00020EE0BF0C951D926CA51DA22000EDE6E88
:1005E000000EDD6EC9C0D9FFCAC0DAFFDF50C76F89
:1005F00001D815D00500FA6EE151FD6EE251FE6E94
:10060000E351FF6EFA501200000120EE0BF0C951C9
:10061000D926CA51DA22000EDE6E000EDD6E000110
:1006200020EE0DF0C951D926CA51DA22DE2A000E79
:10063000DD2220EE0DF0C951D926CA51DA22400E32
:10064000DE18DE10D8A4120020EE0DF0C951D92614
:10065000CA51DA22000EDE6E000EDD6E20EE03F0CF
:10066000C951D926CA51DA22DF50D8B409D0C9C03D
:10067000B7F0CAC0B8F03BEC87F00009D8A412006C
:10068000C9C0AFF0CAC0B0F062EC89F01200000E31
:100690000001BD6F000EBC6F000EBF6F040EBF6582
:1006A00001D03FD0BF51020D290EF324D96E000EA8
:1006B000F420DA6EDECFB3F0DDCFB4F0BF51060D1B
:1006C000600EB56F000EB66FF350B527F450B62329
:1006D0008151020DF350B525D96EF450B621DA6E72
:1006E000DECFB7F0DDCFB8F0B71FB81FB74BB82BD0
:1006F000B351B725AF6FB451B821B06FDDEC91F0B5
:10070000AFC0BAF0B0C0BBF00001BA51BC5DBB5184
:10071000BD59D8B004D0BAC0BCF0BBC0BDF0BF2B2F
:10072000BDD7BD5104E1650EBC5DD8A05AD0815142
:10073000010D7E0EF324D96E000EF420DA6EDF2A4E
:10074000050EDF641200000EB96F8151010DE40E39
:10075000F324D96E000EF420DA6EDF50BE6FBE5166
:10076000D8B402D0BE0702D0780EBE6F010EB96FAA
:10077000000EC06F020EC06501D014D08151C019A7
:10078000D8B40ED0C051010DE40EF324D96E000E82
:10079000F420DA6EBE51DE18D8A402D0000EB96F74
:1007A000C02BE8D7B951D8B4DAD78151010DE40E86
:1007B000F324D96E000EF420DA6EBEC0DFFF000E07
:1007C000C06F020EC06501D01200C051010D7E0E37
:1007D000F324D96E000EF420DA6E000EDF6EC02B0B
:1007E000F0D7BD5119E1320EBC5DD8B01200815175
:1007F000010D7E0EF324D96E000EF420DA6EDF5068
:10080000D8B412008151010D7E0EF324D96E000E72
:10081000F420DA6EDF0612001200000E0001B46F41
:10082000000EF2BE010EB36F0DD03B2A050E3B1831
:10083000D8A408D0000E3B6E000E3A6E010E0001E7
:10084000B46F0CD03B502EEC91F00009D8A4EDD73A
:100850003B5014EC91F00009D8B4E7D70001B45133
:10086000D8A412003B50090D820EF324B56F000E80
:10087000F420B66FB5C0AFF0B6C0B0F0EAEC92F0BD
:100880000009D8B415D0000120EE03F0B551D926E7
:10089000B651DA22DF500F015C6F000120EE02F04A
:1008A000B551D926B651DA22DF500F015E6F22D042
:1008B000B5C0AFF0B6C0B0F0DDEC92F00009D8B42E
:1008C00014D0000120EE02F0B551D926B651DA223B
:1008D000DF500F015E6F000120EE03F0B551D92605
:1008E000B651DA22DF500F0104D0800E0F015E6F87
:1008F000800E5C6F38505E27000120EE01F0B5518C
:10090000D926B651DA22DF500F015F6F000120EEC9
:1009100004F0B551D926B651DA22DF50B16FD89024
:10092000B131666E20EE05F0B551D926B651DA2206
:10093000DF500F015D6F608E010E3A6E010E0001F7
:10094000AF6F3B5083EC8DF0F29E6080000120EE93
:1009500004F0B551D926B651DA22DF50B16FB26B2F
:10096000090ED890B137B237E82EFBD7B1C070FF6F
:10097000B2C071FFB3A102D0F28E01D0F29E000E80
:10098000396E1200000E066E000EF2BE010E056EEC
:100990000CD03B2A050E3B18D8A407D0000E3B6EA6
:1009A000000E3A6E010E066E0CD03B507BEC91F0BF
:1009B0000009D8A4EED73B5094EC91F00009D8B4CC
:1009C000E8D70650D8A412003B50090D820EF3243C
:1009D000076E000EF420086E07C001F008C002F098
:1009E00010EC93F00009D8B412D020EE03F00750B9
:1009F000D9260850DA22DF500F015C6F20EE02F09A
:100A00000750D9260850DA22DF505E6F1FD007C08A
:100A100001F008C002F01CEC93F00009D8B411D02A
:100A200020EE02F00750D9260850DA22DF500F01DD
:100A30005E6F20EE03F00750D9260850DA22DF500F
:100A400004D0800E0F015E6F800E5C6F38505E2701
:100A500020EE01F00750D9260850DA22DF505F6FF0
:100A600020EE04F00750D9260850DA22DF50036E3A
:100A7000D8900330666E20EE05F00750D926085056
:100A8000DA22DF505D6F608E010E3A6E010E016E4C
:100A90003B50B6EC8DF0F29E608020EE04F00750E3
:100AA000D9260850DA22DF50036E046A090ED89066
:100AB00003360436E82EFBD703C070FF04C071FF75
:100AC00005A002D0F28E01D0F29E000E396E120007
:100AD000BD0E0001C06F000EC16F8AD0250EC61971
:100AE000D8B404D0C65182EC93F082D0000E00013D
:100AF000C26FBBC0F6FFBCC0F7FFBB4BBC2B000EE8
:100B0000F86E0800F5CFC6F0C651000AD8B412003E
:100B1000640AD8B403D00D0AD8A46AD0C0C0D9FFE3
:100B2000C1C0DAFFDECFC4F0DDCFC5F0020EC027B2
:100B3000000EC123C5AF06D0030EC213C46DC51F7E
:100B4000D8B0C52B010EC66F050EC619D8B415D086
:100B5000C651020D1B0EF324F66EFB0EF420F76E49
:100B6000F86A000EF8220900F550C45D0900F5503E
:100B7000C559D8A002D0C62BE7D7C2C0BFF0030E1C
:100B8000BF17D8B403D02D0E82EC93F0C6C0C3F0CB
:100B90002AD00001C351020D1B0EF324F66EFB0E8A
:100BA000F420F76EF86A000EF8220900F5CFB1F0D4
:100BB0000A00F5CFB2F0C4C0AFF0C5C0B0F073EC1E
:100BC0008EF0AFC0B6F0B0C0B7F0000E0001B96F44
:100BD0000A0EB86F88EC8FF00001B651300FC66F67
:100BE000C65182EC93F00001C307C329D8A4D1D722
:100BF000BBC0F6FFBCC0F7FF0001BB4BBC2B000E17
:100C0000F86E0800F5CFC6F0C651D8B4120066D70A
:100C100005C0D9FF06C0DAFFDF500D6E05C001F038
:100C200006C002F01CEC93F00009D8A42DD020EEF1
:100C300004F00550D9260650DA22DF50076E086A04
:100C4000090ED89007360836E82EFBD77250075C9D
:100C500073500858D8B011D020EE05F00550D926B1
:100C60000650DA22DF2A1E0EDF64120005C001F0F2
:100C700006C002F0C5EC91F0120005C001F006C0FC
:100C800002F0C5EC91F0120020EE04F00550D926D8
:100C90000650DA22DF50076E086AD8900736083609
:100CA0000D50020D290EF324D96E000EF420DA6ED9
:100CB000DECF09F0DDCF0AF072CF0BF073CF0CF06E
:100CC0000B1E0C1E0B4A0C2A09500B24016E0A50F5
:100CD0000C20026E56EC92F00750015C085002584E
:100CE000D8B00FD020EE02F00550D9260650DA22F7
:100CF000800EDF6E05C001F006C002F0B3EC92F08A
:100D0000120020EE03F00550D9260650DA22770EA5
:100D1000DF640FD020EE02F00550D9260650DA220B
:100D2000800EDF6E05C001F006C002F0B3EC92F059
:100D3000120020EE03F00550D9260650DA22080EE4
:100D4000DF2612000F0E106E000E116E85D0250EDC
:100D50001618D8B404D01650A1EC93F07DD0000E34
:100D6000126E0DC0F6FF0EC0F7FF0D4A0E2A000EE0
:100D7000F86E0800F5CF16F01650000AD8B412002D
:100D8000640AD8B403D00D0AD8A466D010C0D9FF25
:100D900011C0DAFFDECF14F0DDCF15F0020E102601
:100DA000000E112215AE06D0030E1212146C151E81
:100DB000D8B0152A010E166E050E1618D8B415D027
:100DC0001650020D1B0EF324F66EFB0EF420F76E88
:100DD000F86A000EF8220900F550145C0900F5507D
:100DE0001558D8A002D0162AE7D712C00FF0030E6C
:100DF0000F16D8B403D02D0EA1EC93F016C013F04B
:100E000027D01350020D1B0EF324F66EFB0EF420B8
:100E1000F76EF86A000EF8220900F5CF03F00A0019
:100E2000F5CF04F014C001F015C002F0C6EC8EF04E
:100E300001C008F002C009F0000E0B6E0A0E0A6E27
:100E4000CBEC8FF00850300F166E1650A1EC93F0DB
:100E500013061328D8A4D5D70DC0F6FF0EC0F7FF90
:100E60000D4A0E2A000EF86E0800F5CF16F0165047
:100E7000D8B412006CD7000120EE03F0B751D92688
:100E8000B851DA22DF50BD6F20EE0FF0B751D926EE
:100E9000B851DA22DF50B96FBA6BB9BFBA07B91FC0
:100EA000BA1FB94BBA2BB7C0AFF0B8C0B0F046EC20
:100EB0008EF00001B951AF25BB6FBA51B021BC6FA4
:100EC000400EC06F010EC16FC151010802E1C05157
:100ED0008408D8A05BD0B7C0D9FFB8C0DAFFC0C0C3
:100EE000E1FFC1C0E2FFDE50E618D8B445D020EEE5
:100EF00003F0C051D926C151DA22BD51DE18D8A461
:100F00003BD020EE02F0C051D926C151DA22020EA8
:100F1000DE18D8A402D0010E120020EE0FF0C0514E
:100F2000D926C151DA22DF50B96FBA6BB9BFBA07FF
:100F3000B91FBA1FB94BBA2BC0C0AFF0C1C0B0F0D7
:100F400046EC8EF00001B951AF25BE6FBA51B02109
:100F5000BF6FBFBF11D0BF5103E1BE05D8A00CD0F9
:100F6000BE51BB5DBC51800AB96FBF51800AB959EF
:100F7000D8B002D0010E1200110EC027000EC123FE
:100F8000C151010801E1A3D7D8B0A5D7000E1200C6
:100F90003DC0CDF00001CE6B000ED26F000ED16FC0
:100FA000D2BF06D0D2510FE1400ED15DD8B00BD0E8
:100FB000950ED125D96E010ED221DA6E000EDF6EAC
:100FC000D14BD22BEDD7000ED06F000ECF6F0ED0CD
:100FD00068EC90F00001CA6F950ECF25D96E010E16
:100FE000D021DA6ECAC0DFFFCF4BD02BCD51CF5D01
:100FF000D051800ACA6FCE51800ACA59D8A0E8D70A
:101000003FC03EF017D0FF0ECA6FFF0ECB6F950E9C
:10101000AF6F010EB06FECEC8FF00001CA51AF273B
:10102000CB51B023950EAF25D96E010EB021DA6EEB
:10103000000EDF6EFF0ECA6FFF0ECB6F950EAF6F07
:10104000010EB06FECEC8FF00001CA51AF27CB510D
:10105000B023950EAF25D96E010EB021DA6E0A0EBF
:10106000DE18D8B4D0D7FF0ECA6FFF0ECB6F950E27
:10107000AF6F010EB06FECEC8FF00001CA51AF27DB
:10108000CB51B023950EAF25D96E010EB021DA6E8B
:101090000D0EDE18D8B4B7D74F92950EC76F010E5C
:1010A000C86F00EC80F01200000120EE06F0AF5196
:1010B000D926B051DA22DECFB1F0DECFB2F0DECFEA
:1010C000B3F0DECFB4F0050E05D0D890B433B3330F
:1010D000B233B133E82EF9D7B11FB21FB31FB41F1B
:1010E000B12B000EB223B323B42320EE04F0AF5192
:1010F000D926B051DA22DECFB5F0DDCFB6F0B5514A
:10110000B125B76FB651B221B86F000EB321B96FD8
:10111000000EB421BA6F20EE10F0AF51D926B051B5
:10112000DA22DF50B16FB7C0B2F0B8C0B3F0B9C0C7
:10113000B4F0BAC0B5F0B16701D007D0B535B5335A
:10114000B433B333B233B12FF6D7B2C0B7F0B3C0B4
:10115000B8F0B4C0B9F0B5C0BAF00001BABF10D051
:10116000BA51B911B81104E1800EB75DD8A008D00A
:101170007F0EB76F000EB86F000EB96F000EBA6F1A
:10118000BAAF12D0800EB75DFF0EB859FF0EB95935
:10119000FF0EBA59D8B008D0800EB76FFF0EB86FE7
:1011A000FF0EB96FFF0EBA6F20EE0AF0AF51D926CD
:1011B000B051DA22B7C0DFFF1200000EDCEC90F075
:1011C0000009D8B413D07EB004D00001C86BC82B7E
:1011D00002D00001C86B7E50C819FE0BC8197E6E84
:1011E000780EBB6FFE0EBC6F68EC85F0010EDCEC78
:1011F00090F00009D8B414D07EB204D00001C86BBE
:10120000C82B02D00001C86BC8477E50C819FD0B1F
:10121000C8197E6E980EBB6FFE0EBC6F68EC85F031
:10122000020EDCEC90F00009D8B415D07EB404D0E6
:101230000001C86BC82B02D00001C86BC847C84763
:101240007E50C819FB0BC8197E6EB80EBB6FFE0E20
:10125000BC6F68EC85F0030EDCEC90F00009D8B4AC
:1012600016D07EB604D00001C86BC82B02D0000196
:10127000C86BC847C847C8477E50C819F70BC8197C
:101280007E6ED80EBB6FFE0EBC6F68EC85F0040E50
:10129000DCEC90F00009D8B412007EB804D0000154
:1012A000C86BC82B02D00001C86BC83B7E50C81960
:1012B000EF0BC8197E6EF80EBB6FFE0EBC6F68ECAC
:1012C00085F01200F2AE40D0F29E000120EE06F052
:1012D000AF51D926B051DA22DECFB1F0DECFB2F075
:1012E000DECFB3F0DECFB4F0050E05D0D890B43326
:1012F000B333B233B133E82EF9D720EE06F0AF5155
:10130000D926B051DA22B151DE5EB251DE5AB35164
:10131000DE5AB451DE5A20EE04F0AF51D926B05156
:10132000DA22DECFB1F0DDCFB2F020EE06F0AF5121
:10133000D926B051DA22B151DE26B251DE22000E9A
:10134000DE22DE22F28E1200000120EE06F0AF5106
:10135000D926B051DA22DECFB1F0DECFB2F0DECF47
:10136000B3F0DECFB4F0050E05D0D890B433B3336C
:10137000B233B133E82EF9D720EE06F0AF51D926BB
:10138000B051DA22B151DE5EB251DE5AB351DE5AAB
:10139000B451DE5A20EE04F0AF51D926B051DA2212
:1013A000DECFB1F0DDCFB2F020EE06F0AF51D9269E
:1013B000B051DA22B151DE26B251DE22000EDE2219
:1013C000DE221200000120EE0BF0C951D926CA51CD
:1013D000DA22E80EDE5C030EDE58D8A019D0C9C0B0
:1013E000D9FFCAC0DAFFDF5010EC8DF001D812002F
:1013F0000500FA6E0001DE51FD6EDF51FE6EE05118
:10140000FF6EFA50C9C0D9FFCAC0DAFFDF50120020
:10141000000120EE0FF0C951D926CA51DA22DF505F
:10142000CB6F20EE0FF0C951D926CA51DA22DF5016
:10143000CC6FCC35CC310008CB25CD6F20EE0AF037
:10144000C951D926CA51DA22DE50800ACF6FCD5158
:10145000800ACF5DD8B0120020EE02F0C951D92623
:10146000CA51DA22010EDF6E20EE0BF0C951D926E7
:10147000CA51DA22000EDE6E000EDD6E20EE0DF097
:10148000C951D926CA51DA22FF0EDE6EFB0EDD6E7F
:1014900001D812000500FA6EDE51FD6EDF51FE6EBE
:1014A000E051FF6EFA50C9C0D9FFCAC0DAFFDF5061
:1014B00012000001C06F0001C051090D820EF3241B
:1014C000C16F000EF420C26FC1C0AFF0C2C0B0F057
:1014D0006AEC92F00009D8B45AD00001C051020D54
:1014E000290EF324D96E000EF420DA6EDECFBAF0A6
:1014F000DDCFBBF020EE06F0C151D926C251DA2271
:10150000DECFBCF0DDCFBDF0BC1FBD1FBC4BBD2B83
:10151000BA51BC25AF6FBB51BD21B06FDDEC91F06E
:10152000000120EE04F0C151D926C251DA22DF5069
:10153000BE6FBF6BD890BE37BF37D890BE37BF37AE
:10154000AF51BE5DB051BF59D8B007D0C1C0AFF0E8
:10155000C2C0B0F04CEC93F006D0C1C0AFF0C2C036
:10156000B0F043EC93F0C1C0B6F0C2C0B7F03EECAF
:101570008FF001D812000500FA6E4C50FD6E4D50F0
:10158000FE6E4E50FF6EFA500001C0511200C1C0F5
:10159000AFF0C2C0B0F043EC93F01200000120EEB7
:1015A0000BF0C951D926CA51DA22010EDB500BE1EA
:1015B000090EDE5CD8B007D0C9C0B2F0CAC0B3F023
:1015C000E7EC8DF006D0C9C0AFF0CAC0B0F062EC55
:1015D00089F0000120EE0BF0C951D926CA51DA2258
:1015E000DE2A000EDD2220EE0BF0C951D926CA51A9
:1015F000DA22010EDB5004E1100EDE5CD8A01200EE
:1016000020EE06F0C951D926CA51DA22DECFCBF03E
:10161000DECFCCF0DECFCDF0DECFCEF0050E05D0A4
:10162000D890CE33CD33CC33CB33E82EF9D720EE60
:1016300004F0C951D926CA51DA22CBC0DEFFCCC092
:10164000DDFF20EE02F0C951D926CA51DA22010E7F
:10165000DF6E20EE0BF0C951D926CA51DA22000EF6
:10166000DE6E000EDD6E12000001D16F0001D1515F
:10167000110D400EF324D26F010EF420D36F20EE33
:1016800001F0D251D926D351DA22DF502EEC91F05D
:101690000009D8B41200000120EE01F0D251D92681
:1016A000D351DA22DF5048EC91F00009D8B412008F
:1016B000D2C0B6F0D3C0B7F0A1EC92F0D2C0AFF078
:1016C000D3C0B0F054EC88F0000120EE02F0D2510B
:1016D000D926D351DA22020EDF6407D0D2C0D9FF57
:1016E000D3C0DAFFDF5010EC8DF0D2C0C9F0D3C008
:1016F000CAF0000120EE02F0D251D926D351DA22ED
:10170000DF50D06FD051030DD50EF324D96E000EEB
:10171000F420DA6E01D812000500FA6EDE50FD6E7C
:10172000DE50FE6EDE50FF6EFA501200000E7D6E2F
:10173000000E7C6E000E796E1F0E7E6E000E7A6EAD
:10174000000E7F6E000E7B6E000E806E7C0E856E2E
:10175000000E866E000E816E400E876E040E826E45
:10176000000E886E000E836E000E846E0E01A76957
:10177000FB0E9A6FAF69BF0EBC6FE00EB46F92693B
:10178000000EA66F000EB36F000EAE6F000E996FC5
:10179000000EBB6F000E916F000EA16F000EC06FA8
:1017A000000EAD6F1F0EB26F000E906F000EBA6F7D
:1017B000000E986F000EBF6F000EA06F000EA56F99
:1017C0009395948595856E0E0001AF6F270EB06FCF
:1017D000010EB16F66EC93F00E0129890E0E896F30
:1017E00011911183118511971189118B120000013C
:1017F00020EE02F0B251D926B351DA22DF50D8B42C
:1018000035D020EE04F0B251D926B351DA22DECF22
:10181000B4F0DDCFB5F0D890B533B433D890B5334C
:10182000B43320EE04F0B251D926B351DA22B451C8
:10183000DE5EB551DD5A20EE01F0B251D926B3512A
:10184000DA22DF50F8EC90F00001D890B033AF33DB
:10185000D890B033AF3320EE04F0B251D926B35153
:10186000DA22AF51DE26B051DD22120020EE01F067
:10187000B251D926B351DA22DF50F8EC90F00001D2
:1018800020EE04F0B251D926B351DA22AFC0DEFF08
:10189000B0C0DDFF12000E01F5A302D0F599F58965
:1018A0003F50010D000EF324D96E010EF420DA6EC4
:1018B000F1CEDFFF3F2A3F0E3F6402D0000E3F6EA5
:1018C0003D2A0A0EF119D8B404D00D0EF119D8A48E
:1018D00004D04F82000EF16F01D04F92080EF11923
:1018E000D8A412003F50010D000EF324D96E010E52
:1018F000F420DA6E000EDF6E3F06FB0E0D6EFF0E5B
:101900000E6EA2EC86F03E503F18D8B40BD03F507C
:10191000010D000EF324D96E010EF420DA6E000ED4
:10192000DF6E3F06000E0E01F16F1200500EF66ED4
:10193000260EF76E010EF86E00EED5F010EE12F0E6
:101940000900F5CFEEFFE550E150FAE1660EF66EC4
:10195000270EF76E010EF86E0900F5CF4CF0090066
:10196000F5CF4DF00900F5CF4EF002EE00F0400E3D
:10197000EE6AE806FDE101EE00F0D50EEE6AE8063B
:10198000FDE100EE60F04F0EEE6AE806FDE14F6A01
:1019900000EE29F0190EEE6AE806FDE15090509233
:1019A0000001AAEF8FF00001B16F14D00E01AE95C7
:1019B000AF9522D00E01AE97AF971ED00E01AE9913
:1019C000AF991AD00E01AE9BAF9B16D00E01AE9D03
:1019D000AF9D12D00001B151000AD8B4E7D7010A77
:1019E000D8B4E8D7030AD8B4E9D7010AD8B4EAD7FB
:1019F000070AD8A41200EAD70001B151F2EC91F025
:101A00000001B1512EEC92F00001B151090D820E8E
:101A1000F324AF6F000EF420B06F3AEC93F0120095
:101A20000001B06F0001B051110D400EF324B16FF1
:101A3000010EF420B26F20EE02F0B151D926B2515E
:101A4000DA22000EDF6E20EE06F0B151D926B25137
:101A5000DA22DE6ADE6ADE6ADD6A20EE0BF0B15160
:101A6000D926B251DA22000EDE6E000EDD6E20EEB7
:101A70000DF0B151D926B251DA22000EDE6E000E01
:101A8000DD6E20EE01F0B151D926B251DA22DF50DD
:101A90002EEC92F01200000E016E3B50B6EC8DF071
:101AA0003950D8B402D0609E2BD0609E3B50090DB7
:101AB000820EF3240E6E000EF4200F6E0EC001F0A5
:101AC0000FC002F010EC93F00009D8A407D00EC0AC
:101AD00005F00FC006F008EC86F006D00EC001F04D
:101AE0000FC002F05EEC93F03B50020D290EF32480
:101AF000D96E000EF420DA6E72CFDEFF73CFDDFFF9
:101B0000C2EC84F012000001B06F1ED0AFB102D061
:101B1000859401D085841200AFB102D0859601D0A2
:101B200085861200AFB102D0859801D08588120059
:101B3000AFB102D0859A01D0858A1200AFB102D030
:101B4000859C01D0858C12000001B051000AD8B4E8
:101B5000DDD7010AD8B4E0D7030AD8B4E3D7010A25
:101B6000D8B4E6D7070AD8A41200E8D7026E1ED070
:101B700001B002D0859401D08584120001B002D05A
:101B8000859601D08586120001B002D0859801D0DB
:101B90008588120001B002D0859A01D0858A120092
:101BA00001B002D0859C01D0858C12000250000A41
:101BB000D8B4DED7010AD8B4E1D7030AD8B4E4D741
:101BC000010AD8B4E7D7070AD8A41200E9D7000160
:101BD00020EE01F0B251D926B351DA22DF50F8ECF1
:101BE00090F00001AF51B46FB051B56FB66BB76BE9
:101BF00020EE06F0B251D926B351DA22B4C0DEFF8E
:101C0000B5C0DEFFB6C0DEFFB7C0DEFF20EE06F0D7
:101C1000B251D926B351DA22040ED890DE36DE3620
:101C2000DE36DD36D906D906E82EF7D712000E01CA
:101C30002C9F960E0001AF6F180EB06F010EB16FA2
:101C40007BEC93F00E012C9DC40E0001AF6F220EB1
:101C5000B06F010EB16F74EC93F0080E0E01F76FC8
:101C6000900EF56F240EF66F8A0EF36F000EF46F70
:101C7000000E416E000E406E400E4B6E000E3F6E29
:101C8000000E3E6E000E3D6E2C8F1200000120EE05
:101C900004F0AF51D926B051DA22DECFB1F0DDCF5A
:101CA000B2F020EE06F0AF51D926B051DA22DECFE5
:101CB000B3F0DECFB4F0DECFB5F0DECFB6F0050E78
:101CC00005D0D890B633B533B433B333E82EF9D753
:101CD000B31FB41FB34BB42BB151B325AF6FB25187
:101CE000B421B06F1200000E0001B56F000EB46F8A
:101CF000B151B211D8B41CD0010EB36F04D0D8903A
:101D0000B137B237B32BB2AFFAD7D890B437B537B3
:101D1000B151AF5DB251B059D8A005D0B151AF5F4C
:101D2000B251B05BB481D890B233B133B32FEDD799
:101D3000B4C0AFF0B5C0B0F01200000120EE02F068
:101D4000AF51D926B051DA22020EDE18D8A4120003
:101D500020EE0BF0AF51D926B051DA22DE2A000E68
:101D6000DD2220EE0BF0AF51D926B051DA22DE5041
:101D7000DE10D8A4120020EE0BF0AF51D926B051DE
:101D8000DA22FF0EDE6EFF0EDD6E1200000E066E12
:101D9000000E056E03500410D8B41CD0010E076E5F
:101DA00004D0D89003360436072A04AEFAD7D89068
:101DB000053606360350015C04500258D8A005D001
:101DC0000350015E0450025A0580D8900432033259
:101DD000072EEDD705C001F006C002F0120005D0B5
:101DE0000001AF4BB02BB14BB22BAFC0D9FFB0C08D
:101DF000DAFFDF500001B36FB1C0F6FFB2C0F7FFEA
:101E0000000EF86E0800F5500008B325B46FB45109
:101E1000D8A407D0AFC0D9FFB0C0DAFFDF50D8A434
:101E2000DFD7B451AF6FB06BAFBFB0071200B1C016
:101E3000B8F0B2C0B9F0AFC0B6F0B0C0B7F014D0CF
:101E4000B8C0F6FFB9C0F7FF000EF86E0800F5CF76
:101E5000B5F00001B84BB92BB6C0D9FFB7C0DAFF57
:101E6000B5C0DFFFB64BB72B0001B307D8A0B4074E
:101E7000B329E6E1B429D8B41200E2D7B6C0D9FF3D
:101E8000B7C0DAFFDF504EEC81F0AFC0B8F0B0C0A1
:101E9000B9F0F2AE0ED0F29E000120EE06F0B6517F
:101EA000D926B751DA22B8C0DEFFB9C0DDFFF28E05
:101EB0001200000120EE06F0B651D926B751DA2201
:101EC000B8C0DEFFB9C0DDFF1200000E0001C46F14
:101ED000040EC46501D018D0C4512EEC91F0000955
:101EE000D8A40FD00001C45114EC91F00009D8B46B
:101EF00008D0B1EC93F00009D8B40DEC84F0000EDA
:101F000012000001C42BE4D77DEC92F0010E120008
:101F10000001B851B911D8B418D0010EBA6F04D06D
:101F2000D890B837B937BA2BB9AFFAD7B851B65D30
:101F3000B951B759D8A004D0B851B65FB951B75B01
:101F4000D890B933B833BA2FF1D7B6C0B6F0B7C00E
:101F5000B7F01200D0EC92F0AA0E0001AF6F260E7F
:101F6000B06F010EB16F66EC93F0F28EF28CBA0E88
:101F70000001AF6F110EB06F010EB16F89EC93F0DD
:101F800055EC93F00BEC90F04FB2C8EC87F006ECF8
:101F900092F000F0F9D70A500B10D8B418D0010E07
:101FA0000C6E04D0D8900A360B360C2A0BAEFAD73A
:101FB0000A50085C0B500958D8A004D00A50085E9B
:101FC0000B50095AD8900B320A320C2EF1D708C0A8
:101FD00008F009C009F01200AFC0B3F0B0C0B4F00F
:101FE00003D00001B34BB42BB3C0D9FFB4C0DAFFA8
:101FF000DF50D8A4F6D7AFC0B1F0B0C0B2F0000146
:10200000B11FB21FB14BB22BB351B125AF6FB45159
:10201000B221B06F12004FA01200EE0E0001BB6F94
:10202000FF0EBC6F68EC85F0F70E0001BB6FFF0E72
:10203000BC6F68EC85F0A70E0001BB6FFB0EBC6F98
:1020400068EC85F0A20E0001BB6FFF0EBC6F68EC60
:1020500085F012001F0E0F01576F000E586F000E13
:102060005D6F000E6A6E000E6B6E000E6C6E000EE1
:102070006D6E000E686E000E696E410E596F8B0E0C
:102080005A6F0F0E5B6FC40E606E0E0134932A837D
:1020900012000001AF6F4B50D8B4FDD70E012CBD1C
:1020A00003D0AFC0F2FE12D02C9D4150010D000EA6
:1020B000F324D96E020EF420DA6EAFC0DFFF412A9E
:1020C0003F0E416402D0000E416E4B062C8D120073
:1020D000000E0001AF6F3D50D8B4FDD73E50010D4A
:1020E000000EF324D96E010EF420DA6EDF500001E9
:1020F000AF6F3E2A3F0E3E6402D0000E3E6E0E01D0
:102100002C9F3D062C8F0001AF511200016E4B50E9
:10211000D8B4FDD70E012CBD03D001C0F2FE12D001
:102120002C9D4150010D000EF324D96E020EF420B7
:10213000DA6E01C0DFFF412A3F0E416402D0000E7B
:10214000416E4B062C8D1200820E0001AF6F000E07
:10215000B06F7A0EB16FFB0EB26F000EB46F2D0E22
:10216000B36F17EC8FF0000E0001BA6F040EBA6562
:1021700001D01200BA51D3EC8CF00001BA2BF6D783
:10218000400E0001AF6F010EB06F250EB16FFB0E58
:10219000B26F000EB46F550EB36F17EC8FF0000ED8
:1021A0000001BA6F040EBA6501D01200BA5110ECEA
:1021B0008DF00001BA2BF6D70001B06F050E0001BB
:1021C000B06114D0B051110D020EF326000EF422AE
:1021D000400EF324D96E010EF420DA6E020EDE18E2
:1021E000D8A402D0010E1200000E1200000E120040
:1021F0000001B16F050E0001B16111D0B151090D9F
:10220000060EF326000EF422820EF324D96E000E81
:10221000F420DA6EDECFAFF0DDCFB0F01200000EAA
:10222000B06F000EAF6F12000001AF6F050E00011E
:10223000AF6112D0AF51090D080EF326000EF42243
:10224000820EF324D96E000EF420DA6EDFA002D0E5
:10225000010E1200000E1200000E12000001AF6FFE
:10226000050E0001AF6112D0AF51090D080EF32623
:10227000000EF422820EF324D96E000EF420DA6EE2
:10228000DFA202D0010E1200000E1200000E12009A
:102290000001AF6F050E0001AF6112D0AF51090D03
:1022A000080EF326000EF422820EF324D96E000EDF
:1022B000F420DA6EDFA602D0010E1200000E12002A
:1022C000000E1200400E4B6013D04050010D000E66
:1022D000F324D96E020EF420DA6EDF500E01F26F95
:1022E000402A3F0E406402D0000E406E4B2A12007E
:1022F0000E012C9D1200016E050E016013D00150DD
:10230000090D080EF326000EF422820EF324D96E76
:10231000000EF420DA6E0001DFA202D0010E1200DE
:10232000000E1200000E1200016E050E016013D0A7
:102330000150090D080EF326000EF422820EF3243C
:10234000D96E000EF420DA6E0001DFA002D0010E7B
:102350001200000E1200000E1200820E0001B16F7A
:10236000000EB26FB251000802E1B151A608D8A028
:102370001200B1C0AFF0B2C0B0F03AEC93F0090E69
:102380000001B127000EB223EDD720EE08F0015076
:10239000D9260250DA22DF8820EE03F00150D92638
:1023A0000250DA22080EDF6E20EE02F00150D9262C
:1023B0000250DA22800EDF6E12000001B0AF0DD0A5
:1023C000AFC0B1F0B0C0B2F0B11FB21FB14BB22B71
:1023D000B1C0AFF0B2C0B0F01200AFC0AFF0B0C04B
:1023E000B0F012000001AF6F050E0001AF611200E6
:1023F000AF51090D080EF326000EF422820EF324CD
:10240000D96E000EF420DA6EDF801200010E3C6EF1
:102410003C50D8B4120065EC8FF00009D8B412001B
:10242000F7EC92F09CEC93F03C6EADEC91F0AEECDE
:1024300093F01200000E0001B36F040EB36501D0DB
:102440001200B351110D400EF324AF6F010EF420B2
:10245000B06F9DEC8EF00001B32BEFD70001AF6F92
:10246000050E0001AF611200AF51090D080EF326F1
:10247000000EF422820EF324D96E000EF420DA6EE0
:10248000DF961200485049104A10D8B40CD001D839
:102490000AD00500FA6E4850FD6E4950FE6E4A5053
:1024A000FF6EFA5012000E019395120002AE0DD08D
:1024B00001C003F002C004F0031E041E034A042AF4
:1024C00003C001F004C002F0120001C001F002C01C
:1024D00002F012000001AF51B011D8B40CD020EEC0
:1024E00008F0AF51D926B051DA22DFA002D0010E98
:1024F0001200000E1200000E120047EC83F0000ED6
:102500000001C36F040EC36501D006D0C35159EC5E
:102510008AF00001C32BF6D78FEC92F01200000175
:10252000812B020E816502D0000E816F8151010D59
:10253000E40EF324D96E000EF420DA6EDF50386E0C
:102540001200F2AE09D0F29EB6C0B2F0B7C0B3F03E
:10255000F7EC8BF0F28E1200B6C0B2F0B7C0B3F059
:10256000F7EC8BF0120020EE08F00150D926025053
:10257000DA22DF8620EE08F00150D9260250DA2256
:10258000DF981200000E0E014C6F000E4D6F000E12
:102590004E6F000E4F6F000E506F000E516F120005
:1025A0006DEC93F0C2EC92F096EC8BF004EC93F0AF
:1025B00017EC8EF031EC93F01200000120EE08F0E1
:1025C000AF51D926B051DA22DFA802D0010E120095
:1025D000000E1200000120EE08F0AF51D926B051D4
:1025E000DA22DFA602D0010E1200000E1200000E49
:1025F0000001D46F040ED46501D01200D45134EC24
:102600008BF00001D42BF6D7600E0E01436F000E45
:10261000456F000E476F080E496F000E486F12009D
:1026200020EE08F00150D9260250DA22DFA602D0AF
:10263000010E1200000E120020EE08F00150D92603
:102640000250DA22DFA802D0010E1200000E1200A2
:102650009C1501F00401C413016C27016C270100D3
:102660003C78A4EC90F0C0EC90F0ADEC91F0ABECC9
:1026700093F01200000120EE08F0AF51D926B051BE
:10268000DA22DF921200000120EE08F0AF51D926C5
:10269000B051DA22DF941200000120EE08F0AF51B1
:1026A000D926B051DA22DF84120050B296EF93F0AF
:1026B0008AA402D04F8012004F90120020EE08F042
:1026C0000150D9260250DA22DF821200AFC048F052
:1026D000B0C049F0B1C04AF01200F28A0E01228D5A
:1026E000228F20831F891200AFC045F0B0C046F092
:1026F000B1C047F01200AFC042F0B0C043F0B1C06B
:1027000044F012000001B06F0001B05149EC90F0AC
:102710001200AFC0E1F0B0C0E2F0B1C0E3F01200CF
:102720000E0193A5120042EC92F012008AA402D08E
:102730004F8012004F901200000E0001AF6FAF519A
:102740001200026E025086EC90F012000E013493DB
:102750004BEC8DF012002AEC90F012001AEC92F083
:0927600012003A5012006A270130
:06276A0012001200120033
:020000040020DA
:10000000FF0FFF0FFF0FFF0FFF0FFF0FFF0FFF0F80
:020000040030CA
:0C000000ECFFFFF79FFFFFDFFFFFFFFF9B
:00000001FF
