:040000006CEF00F0B1
:100008003B82FACF08F0FBCF09F0E9CF0AF0EACF3C
:100018000BF0E1CF0CF0E2CF0DF0D9CF0EF0DACF34
:100028000FF0F3CF10F0F4CF11F0F6CF12F0F7CFB6
:1000380013F0F8CF14F0F5CF15F03BC016F03CC024
:1000480017F03DC018F03EC019F00E012CBD36ADBA
:100058000AD001D817D00500FA6E3150FD6E325023
:10006800FE6E33500CD02CBF36AF0CD001D80AD05E
:100078000500FA6E2E50FD6E2F50FE6E3050FF6E4A
:10008800FA50120019C03EF018C03DF017C03CF0FD
:1000980016C03BF015C0F5FF14C0F8FF13C0F7FFFA
:1000A80012C0F6FF11C0F4FF10C0F3FF0FC0DAFF53
:1000B8000EC0D9FF0DC0E2FF0CC0E1FF0BC0EAFF84
:1000C8000AC0E9FF09C0FBFF08C0FAFF3B92110014
:0400D800DDEF82F0E6
:10FE0600002020204C697374206F66207375707013
:10FE16006F7274656420636F6D6D616E64732073B9
:10FE26006F206661723A0A0D2020204C45447320EB
:10FE36004F6E3A205475726E7320616C6C204C457F
:10FE46004473204F6E0A0D2020204C454473204FEA
:10FE560066663A205475726E7320616C6C204C4550
:10FE66004473204F66660A0D202020526573657420
:10FE76003A20436C656172732074686520736372FF
:10FE860065656E20616E6420726573657473207497
:10FE96006865206D6963726F0A0D202020436C65CA
:10FEA60061723A20436C65617273207468652073D1
:10FEB600637265656E2062757420646F65736E2764
:10FEC6007420726573657420746865206D69637249
:10FED6006F0A0D20202048656C703A2054686973BB
:10FEE600206D6573736167652C206C69737473206C
:10FEF600636F6D6D616E64730A0D0050494331384E
:10FF06004636374B3430206D546F75636820446530
:10FF16006D6F0A0D4261756420726174653A203115
:10FF26003135323030206B6270730A0D4E6F20709F
:10FF360061726974792C203820626974732C206E82
:10FF46006F20666C6F7720636F6E74726F6C2C20F7
:10FF5600312073746F70206269740A0D436F6D6D82
:10FF6600616E6473206172652063617365207365D9
:10FF76006E7369746976650A0D456E7465722061E3
:10FF860020636F6D6D616E642C206F722048656C06
:10FF96007020666F72206C697374206F6620636FC1
:10FFA6006D6D616E64730A0D00202020204C415453
:10FFB60046203D20307830300A0D004C4154462012
:10FFC6003D20307846460A0D004C454473204F6666
:10FFD60066004C454473204F6E00436C65617200A9
:10FFE60052657365740048656C70001B5B324A008D
:09FFF6001B5B48001B5B4B000083
:020000040001F9
:1000000021C01AF022C01BF0D80E1C6EFF0E1D6E10
:1000100011EC82F01A501B10D8A415D0000E7E6E81
:10002000BE0E1C6EFF0E1D6EF4EC82F0AF0E1C6E49
:10003000FF0E1D6EF4EC82F0BE0E1C6EFF0E1D6EE8
:10004000F4EC82F0120021C01AF022C01BF0CF0E97
:100050001C6EFF0E1D6E11EC82F01A501B10D8A4FE
:1000600014D07E68BE0E1C6EFF0E1D6EF4EC82F086
:10007000C10E1C6EFF0E1D6EF4EC82F0BE0E1C6EE7
:10008000FF0E1D6EF4EC82F0120021C01AF022C0A7
:100090001BF0E60E1C6EFF0E1D6E11EC82F01A5066
:1000A0001B10D8A40ED0F10E1C6EFF0E1D6EF4ECCA
:1000B00082F0F60E1C6EFF0E1D6EF4EC82F0FF0057
:1000C000120021C01AF022C01BF0E00E1C6EFF0EC1
:1000D0001D6E11EC82F01A501B10D8A40DD0F10E39
:1000E0001C6EFF0E1D6EF4EC82F0F60E1C6EFF0E01
:1000F0001D6EF4EC82F0120021C01AF022C01BF039
:10010000EC0E1C6EFF0E1D6E11EC82F01A501B10CF
:10011000D8A41200BE0E1C6EFF0E1D6EF4EC82F011
:10012000070E1C6EFE0E1D6EF4EC82F0BE0E1C6EF1
:10013000FF0E1D6EF4EC82F0120036C026F0276A26
:10014000000E2B6E000E2A6E2BBE06D02B500FE138
:10015000400E2A5CD8B00BD0A00E2A24D96E000E17
:100160002B20DA6E000EDF6E2A4A2B2AEDD7000E06
:10017000296E000E286E0DD090EC82F0236EA00E3A
:100180002824D96E000E2920DA6E23C0DFFF284A0A
:10019000292A2650285C2950800A236E2750800A7D
:1001A0002358D8A0E9D738C037F016D0FF0E236EF9
:1001B000FF0E246EA00E1A6E000E1B6E73EC82F002
:1001C00023501A2624501B22A00E1A24D96E000E8A
:1001D0001B20DA6E000EDF6EFF0E236EFF0E246E04
:1001E000A00E1A6E000E1B6E73EC82F023501A26BE
:1001F00024501B22A00E1A24D96E000E1B20DA6E8A
:100200000A0EDE18D8B4D2D7FF0E236EFF0E246E6E
:10021000A00E1A6E000E1B6E73EC82F023501A268D
:1002200024501B22A00E1A24D96E000E1B20DA6E59
:100230000D0EDE18D8B4BAD7000E356EA00E216EA2
:10024000000E226E00EC80F012000E01F5A302D029
:10025000F599F5893850010D600EF324D96E000E22
:10026000F420DA6EF1CEDFFF382A3F0E386402D078
:10027000000E386E362A0A0EF119D8B404D00D0ECD
:10028000F119D8A405D0010E356E000EF16F02D021
:10029000000E356E080EF119D8A412003850010D69
:1002A000600EF324D96E000EF420DA6E000EDF6EBD
:1002B0003806FA0E036EFF0E046E0BEC83F0375017
:1002C0003818D8B40BD03850010D600EF324D96E15
:1002D000000EF420DA6E000EDF6E3806000E0E01FE
:1002E000F16F1200000E7D6E000E7C6E000E796EB6
:1002F000000E7E6E000E7A6E000E7F6E000E7B6E1C
:10030000000E806E8568866881685F0E876E8268E1
:100310000F0E886E836884680E01A7699A69AF69B9
:10032000BF0EBC6FB4699269000EA66F000EB36F6A
:10033000000EAE6F000E996F000EBB6F000E916F36
:10034000000EA16F000EC06F000EAD6F000EB26FF9
:10035000000E906F000EBA6F000E986F000EBF6F08
:10036000000EA06F000EA56F0E0E896F1191118304
:10037000118511971189118B12000E012C9F4A0EC5
:100380001A6E020E1B6E010E1C6E4EEC83F00E01F7
:100390002C9D880E1A6E050E1B6E010E1C6E47EC0E
:1003A00083F0080E0E01F76F900EF56F240EF66FB6
:1003B0008A0EF36F000EF46F000E3A6E000E396E67
:1003C000400E346E000E386E000E376E000E366E24
:1003D0002C8F12003CEC83F0F28EF28CABEC82F0AE
:1003E000000E7E6E290E2D6E960E2C6E7F0EE82E60
:1003F000FED72C2EFCD72D2EFAD700F07E68290EC2
:100400002D6E960E2C6E7F0EE82EFED72C2EFCD76E
:100410002D2EFAD700F03550D8B4E2D79DEC80F0FD
:10042000DFD704D01A4A1B2A1C4A1D2A1AC0D9FF3A
:100430001BC0DAFFDF501E6E1CC0F6FF1DC0F7FFA9
:10044000000EF86E0800F55000081E241F6E1F50A5
:10045000D8A407D01AC0D9FF1BC0DAFFDF50D8A438
:10046000E1D71F501A6E1B6A1ABE1B0612001A6EC5
:100470003450D8B4FDD70E012CBD03D01AC0F2FE03
:1004800012D02C9D3A50010D000EF324D96E010EAE
:10049000F420DA6E1AC0DFFF3A2A3F0E3A6402D027
:1004A000000E3A6E34062C8D1200016E3450D8B412
:1004B000FDD70E012CBD03D001C0F2FE12D02C9D41
:1004C0003A50010D000EF324D96E010EF420DA6EBD
:1004D00001C0DFFF3A2A3F0E3A6402D0000E3A6EA6
:1004E00034062C8D12001AC01EF01BC01FF002D063
:1004F0001E4A1F2A1EC0D9FF1FC0DAFFDF50D8A432
:10050000F7D71AC01CF01BC01DF01C1E1D1E1C4A74
:100510001D2A1E501C241A6E1F501D201B6E120017
:10052000000E1A6E3650D8B4FDD73750010D600E4C
:10053000F324D96E000EF420DA6EDF501A6E372ADB
:100540003F0E376402D0000E376E0E012C9F360628
:100550002C8F1A501200F10E1C6EFF0E1D6EF4EC63
:1005600082F0F60E1C6EFF0E1D6EF4EC82F0010E92
:100570001C6EFF0E1D6EF4EC82F0BE0E1C6EFF0EA4
:100580001D6EF4EC82F01200400E346013D039502E
:10059000010D000EF324D96E010EF420DA6EDF5047
:1005A0000E01F26F392A3F0E396402D0000E396E07
:1005B000342A12000E012C9D120001EE00F0400EB4
:1005C000EE6AE806FDE100EE60F0800EEE6AE806F5
:1005D000FDE13A6A396A386A376A366A356A3B90A9
:1005E0003B920001EAEF81F01E0E1E6E000E1F6EA0
:1005F00003D0205055EC83F01CC0F6FF1DC0F7FF60
:100600001C4A1D2A000EF86E0800F5CF20F020507D
:10061000D8B41200EED7050E056E000E066E03D09C
:1006200007505FEC83F003C0F6FF04C0F7FF034AF6
:10063000042A000EF86E0800F5CF07F00750D8B472
:100640001200EED7000E0E014C6F000E4D6F000E23
:100650004E6F000E4F6F000E506F000E516F120064
:10066000600E0E01436F000E456F000E476F080EBF
:10067000496F000E486F12005AEC83F022EC83F0B1
:1006800072EC81F030EC83F0BDEC81F012001AC006
:1006900031F01BC032F01CC033F012001AC02EF033
:1006A0001BC02FF01CC030F012001B6E1B5037EC2B
:1006B00082F01200F28A0E01228D228F1200026E49
:0806C000025055EC82F012001B
:020000040020DA
:10000000FF0FFF0FFF0FFF0FFF0FFF0FFF0FFF0F80
:020000040030CA
:0C000000ECFFFFF79FFFFFDFFFFFFFFF9B
:00000001FF
