:0400000072EF00F0AB
:100008004F82FACF17F0FBCF18F0E9CF19F0EACFFB
:100018001AF0E1CF1BF0E2CF1CF0D9CF1DF0DACFF8
:100028001EF0F3CF1FF0F4CF20F0F6CF21F0F7CF7A
:1000380022F0F8CF23F0F5CF24F04FC025F050C0C0
:1000480026F051C027F052C028F00E012CBD36AD65
:100058000AD001D81DD00500FA6E4B50FD6E4C50E9
:10006800FE6E4D500DD02CBF36AF0DD001D810D03C
:100078000500FA6E0001E151FD6EE251FE6EE3519A
:10008800FF6EFA5012002AB334A302D036EC92F075
:1000980028C052F027C051F026C050F025C04FF0BC
:1000A80024C0F5FF23C0F8FF22C0F7FF21C0F6FFE8
:1000B80020C0F4FF1FC0F3FF1EC0DAFF1DC0D9FF28
:1000C8001CC0E2FF1BC0E1FF1AC0EAFF19C0E9FF2C
:1000D80018C0FBFF17C0FAFF4F9211009BEF8BF07F
:10FBCA000001000A006400E803102700000000009A
:10FBDA0000000000000000000064010101000000B4
:10FBEA0000000000000000000064010202000000A2
:10FBFA000000000000000000006401030300000090
:10FC0A00000000000000000000640104040000007D
:10FC1A0000000000000000000064010022502820BB
:10FC2A000000000001235028200000000002245098
:10FC3A0028200000000003255028200000000004AE
:10FC4A00265028200000000020202020426F6F74D8
:10FC5A0020636F6D706C6574650A0D202020504911
:10FC6A004331384636374B3430206D546F756368EC
:10FC7A00205465737420426F6172640A0D2020203B
:10FC8A004576616C756174657320746865206D547E
:10FC9A006F75636820636170616369746976652052
:10FCAA00746F756368206C69627261727920646925
:10FCBA00737472696275746564206279204D696330
:10FCCA00726F636869700A0D20202053657473206F
:10FCDA00746865207374617465206F66206669763E
:10FCEA0065204C454473206261736564206F6E2001
:10FCFA006D546F75636820636170616369746976B6
:10FD0A00652070757368627574746F6E730A0D205E
:10FD1A0020204261756420726174653A2031313560
:10FD2A00323030206270730A0D2020204E6F20700E
:10FD3A0061726974792C203820626974732C206E80
:10FD4A006F20666C6F7720636F6E74726F6C2C20F5
:10FD5A00312073746F70206269740A0D2020204369
:10FD6A006F6D6D616E647320617265206361736586
:10FD7A002073656E7369746976650A0D20202045C3
:10FD8A006E746572206120636F6D6D616E642C20E4
:10FD9A006F7220656E7465722048656C7020666F9C
:10FDAA0072206C697374206F6620636F6D6D616E6B
:10FDBA0064730A0D002020204C697374206F66203A
:10FDCA00737570706F7274656420636F6D6D616EA8
:10FDDA0064733A0A0D2020204C454473204F6E3A32
:10FDEA00205475726E7320616C6C204C45447320EC
:10FDFA004F6E0A0D2020204C454473204F66663A08
:10FE0A00205475726E7320616C6C204C45447320CB
:10FE1A004F66660A0D202020427574746F6E205357
:10FE2A0074617465733F3A2052657475726E7320FB
:10FE3A007374617465206F6620616C6C20666976E4
:10FE4A0065206D546F75636820627574746F6E7384
:10FE5A000A0D20202052657365743A20436C65614F
:10FE6A00727320746865207465726D696E616C20A6
:10FE7A00616E642072657365747320746865206DA1
:10FE8A006963726F0A0D202020436C6561723A2003
:10FE9A00436C6561727320746865207465726D695C
:10FEAA006E616C2062757420646F65736E277420AE
:10FEBA00726573657420746865206D6963726F0A70
:10FECA000D2020202A49444E3F3A2052657475720B
:10FEDA006E7320646576696365206964656E74690A
:10FEEA006669636174696F6E0A0D20202048656C2B
:10FEFA00703A2054686973206D6573736167652C65
:10FF0A00206C6973747320636F6D6D616E64730A1C
:10FF1A000D00202020206D546F756368205465738E
:10FF2A007420426F6172642C205245564100202091
:10FF3A002020427574746F6E20303A2025640A0DB1
:10FF4A000020202020427574746F6E20313A2025DB
:10FF5A00640A0D0020202020427574746F6E2032CE
:10FF6A003A2025640A0D0020202020427574746FFF
:10FF7A006E20333A2025640A0D0020202020427585
:10FF8A0074746F6E20343A2025640A0D00202020F4
:10FF9A00204C415446203D20307830300A0D004232
:10FFAA007574746F6E205374617465733F004C41AD
:10FFBA005446203D20307846460A0D004C4544738D
:10FFCA00204F6666004C454473204F6E002A494410
:10FFDA004E3F00436C656172005265736574004858
:10FFEA00656C70001B5B324A0049444E001B5B483B
:06FFFA00001B5B4B000040
:020000040001F9
:10000000C8C0B0F0C9C0B1F0CF0E0001B26FFF0E92
:10001000B36FC7EC8DF00001B051B111D8A417D067
:10002000000E7E6EA60EBC6FFF0EBD6F40EC85F01D
:10003000970E0001BC6FFF0EBD6F40EC85F0A60E61
:100040000001BC6FFF0EBD6F40EC85F01200C8C010
:10005000B0F0C9C0B1F0C60E0001B26FFF0EB36FB1
:10006000C7EC8DF00001B051B111D8A416D07E6854
:10007000A60EBC6FFF0EBD6F40EC85F0B80E000100
:10008000BC6FFF0EBD6F40EC85F0A60E0001BC6F8B
:10009000FF0EBD6F40EC85F01200C8C0B0F0C9C0C3
:1000A000B1F0A90E0001B26FFF0EB36FC7EC8DF077
:1000B0000001B051B111D8A459D0A60EBC6FFF0EEB
:1000C000BD6F40EC85F0380E0001BC6FFF0EBD6FB8
:1000D000000E59EC8FF00001CA6FCA51BE6FBF6BA2
:1000E00040EC85F04B0E0001BC6FFF0EBD6F010EA2
:1000F00059EC8FF00001CA6FCA51BE6FBF6B40EC64
:1001000085F05E0E0001BC6FFF0EBD6F020E59EC54
:100110008FF00001CA6FCA51BE6FBF6B40EC85F013
:10012000710E0001BC6FFF0EBD6F030E59EC8FF016
:100130000001CA6FCA51BE6FBF6B40EC85F0840EE0
:100140000001BC6FFF0EBD6F040E59EC8FF0000173
:10015000CA6FCA51BE6FBF6B40EC85F0A60E00019E
:10016000BC6FFF0EBD6F40EC85F01200C8C0B0F050
:10017000C9C0B1F0E30E0001B26FFF0EB36FC7EC60
:100180008DF00001B051B111D8A40FD0EE0EBC6FAC
:10019000FF0EBD6F40EC85F0F70E0001BC6FFF0E47
:1001A000BD6F40EC85F0FF001200C8C0B0F0C9C0C0
:1001B000B1F0DD0E0001B26FFF0EB36FC7EC8DF032
:1001C0000001B051B111D8A40ED0EE0EBC6FFF0EDD
:1001D000BD6F40EC85F0F70E0001BC6FFF0EBD6FE8
:1001E00040EC85F01200C8C0B0F0C9C0B1F0D70E25
:1001F0000001B26FFF0EB36FC7EC8DF00001B0517C
:10020000B111D8B40FD0C8C0B0F0C9C0B1F0F30E6E
:10021000B26FFF0EB36FC7EC8DF00001B051B1119A
:10022000D8A415D0A60EBC6FFF0EBD6F40EC85F0B4
:100230001C0E0001BC6FFF0EBD6F40EC85F0A60EDA
:100240000001BC6FFF0EBD6F40EC85F01200C8C00E
:10025000B0F0C9C0B1F0E90E0001B26FFF0EB36F8C
:10026000C7EC8DF00001B051B111D8A41200A60E58
:10027000BC6FFF0EBD6F40EC85F0BF0E0001BC6F80
:10028000FD0EBD6F40EC85F0A60E0001BC6FFF0EA9
:10029000BD6F40EC85F012000001B66F0001B65151
:1002A000020D290EF324D96E000EF420DA6EB65139
:1002B000060D600EB26F000EB36FF350B227F4500C
:1002C000B323B651010D330EF324E16E000EF4207A
:1002D000E26EE7CFB4F0010EE726B451020DF35001
:1002E000B225E16EF450B321E26EDECFE6FFDDCF42
:1002F000E5FFB651010D330EF324D96E000EF42044
:10030000DA6E020EDF640AD0B651010D330EF3240B
:10031000D96E000EF420DA6E000EDF6EB651060DB7
:10032000020EF326000EF422600EF324D96E000EA6
:10033000F420DA6EB651060D600EF324E16E000E65
:10034000F420E26EDE50E65CDE50E658D8A067D0BE
:10035000B651060D040EF326000EF422600EF324AF
:10036000D96E000EF420DA6EB651060D020EF32699
:10037000000EF422600EF324E16E000EF420E26E13
:10038000DE50E65CDE50E658D8A011D0B651060D1E
:10039000020EF326000EF422600EF324D96E000E36
:1003A000F420DA6EDECFB0F0DDCFB1F01200B6513E
:1003B000060D040EF326000EF422600EF324D96E0F
:1003C000000EF420DA6EB651060D600EF324E16ED5
:1003D000000EF420E26EDE50E65CDE50E658D8A057
:1003E00011D0B651060D040EF326000EF422600E55
:1003F000F324D96E000EF420DA6EDECFB0F0DDCF3C
:10040000B1F01200B651060D600EF324D96E000E45
:10041000F420DA6EDECFB0F0DDCFB1F01200B651CD
:10042000060D040EF326000EF422600EF324D96E9E
:10043000000EF420DA6EB651060D600EF324E16E64
:10044000000EF420E26EDE50E65CDE50E658D8A0E6
:100450000DD0B651060D600EF324D96E000EF420B7
:10046000DA6EDECFB0F0DDCFB1F01200B651060D7E
:10047000040EF326000EF422600EF324D96E000E53
:10048000F420DA6EB651060D020EF326000EF422A9
:10049000600EF324E16E000EF420E26EDE50E65CA6
:1004A000DE50E658D8A011D0B651060D040EF32642
:1004B000000EF422600EF324D96E000EF420DA6EE2
:1004C000DECFB0F0DDCFB1F01200B651060D020E56
:1004D000F326000EF422600EF324D96E000EF420F1
:1004E000DA6EDECFB0F0DDCFB1F01200000E000109
:1004F000BE6F000EBD6F000EC06F040EC06501D050
:100500003FD0C051020D290EF324D96E000EF42005
:10051000DA6EDECFB4F0DDCFB5F0C051060D600E5F
:10052000B66F000EB76FF350B627F450B723815162
:10053000020DF350B625D96EF450B721DA6EDECF36
:10054000B8F0DDCFB9F0B81FB91FB84BB92BB45113
:10055000B825B06FB551B921B16FA8EC90F0B0C01B
:10056000BBF0B1C0BCF00001BB51BD5DBC51BE5978
:10057000D8B004D0BBC0BDF0BCC0BEF0C02BBDD74E
:10058000BE5104E1650EBD5DD8A05AD08151010D68
:100590007E0EF324D96E000EF420DA6EDF2A050EEB
:1005A000DF641200000EBA6F8151010DDE0EF324DC
:1005B000D96E000EF420DA6EDF50BF6FBF51D8B491
:1005C00002D0BF0702D0780EBF6F010EBA6F000EC7
:1005D000C16F020EC16501D014D08151C119D8B4C8
:1005E0000ED0C151010DDE0EF324D96E000EF420A1
:1005F000DA6EBF51DE18D8A402D0000EBA6FC12B3C
:10060000E8D7BA51D8B4DAD78151010DDE0EF32400
:10061000D96E000EF420DA6EBFC0DFFF000EC16F8E
:10062000020EC16501D01200C151010D7E0EF324EE
:10063000D96E000EF420DA6E000EDF6EC12BF0D7FB
:10064000BE5119E1320EBD5DD8B012008151010DCD
:100650007E0EF324D96E000EF420DA6EDF50D8B48B
:1006600012008151010D7E0EF324D96E000EF4208C
:10067000DA6EDF0612001200000E0001B56F000EE8
:10068000F2BE010EB46F0DD03B2A050E3B18D8A464
:1006900008D0000E3B6E000E3A6E010E0001B56FE1
:1006A0000CD03B50E3EC8FF00009D8A4EDD73B50C1
:1006B000C9EC8FF00009D8B4E7D70001B551D8A430
:1006C00012003B50090D830EF324B66F000EF42088
:1006D000B76FB6C0B0F0B7C0B1F0A1EC91F00009AF
:1006E000D8B415D0000120EE03F0B651D926B75189
:1006F000DA22DF500F015C6F000120EE02F0B651EC
:10070000D926B751DA22DF500F015E6F22D0B6C072
:10071000B0F0B7C0B1F094EC91F00009D8B414D0A7
:10072000000120EE02F0B651D926B751DA22DF508F
:100730000F015E6F000120EE03F0B651D926B751CC
:10074000DA22DF500F0104D0800E0F015E6F800EA1
:100750005C6F38505E27000120EE01F0B651D926BB
:10076000B751DA22DF500F015F6F000120EE04F075
:10077000B651D926B751DA22DF50B26FD890B231D4
:10078000666E20EE05F0B651D926B751DA22DF5059
:100790000F015D6F608E010E3A6E010E0001B06FA9
:1007A0003B5088EC8CF0F29E6080000120EE04F05B
:1007B000B651D926B751DA22DF50B26FB36B090EAA
:1007C000D890B237B337E82EFBD7B2C070FFB3C0B2
:1007D00071FFB4A102D0F28E01D0F29E000E396EEC
:1007E0001200000120EE0EF0B951D926BA51DA22DA
:1007F000DF500008BB6F20EE09F0B951D926BA517D
:10080000DA22DE50800ABD6FBB51800ABD5DD8B0D0
:1008100028D020EE0AF0B951D926BA51DA22DE2AC0
:10082000000EDD2220EE0AF0B951D926BA51DA22A3
:10083000010EDB5004E1410EDE5CD8A055D020EE65
:100840000AF0B951D926BA51DA22000EDE6E000E36
:10085000DD6EB9C0D9FFBAC0DAFFDF5015EC8CF0FD
:1008600043D0000120EE09F0B951D926BA51DA225D
:1008700010EE0EF0B951E126BA51E222E650800A9C
:10088000BD6FDE50800ABD5DD8B023D020EE02F0EF
:10089000B951D926BA51DA22020EDF6E20EE0AF0E3
:1008A000B951D926BA51DA22000EDE6E000EDD6E85
:1008B00001D81AD00500FA6E4550FD6E4650FE6E06
:1008C0004750FF6EFA50B9C0D9FFBAC0DAFFDF5007
:1008D0001200000120EE0AF0B951D926BA51DA22ED
:1008E000000EDE6E000EDD6E000120EE0CF0B95140
:1008F000D926BA51DA22DE2A000EDD2220EE0CF0D3
:10090000B951D926BA51DA22400EDE18DE10D8A429
:10091000120020EE0CF0B951D926BA51DA22000E9D
:10092000DE6E000EDD6EB9C0B0F0BAC0B1F029ECD9
:1009300088F01200000E066E000EF2BE010E056E6B
:100940000CD03B2A050E3B18D8A407D0000E3B6EF6
:10095000000E3A6E010E066E0CD03B5030EC90F05B
:100960000009D8A4EED73B5049EC90F00009D8B468
:10097000E8D70650D8A412003B50090D830EF3248B
:10098000076E000EF420086E07C001F008C002F0E8
:10099000C7EC91F00009D8B412D020EE03F0075054
:1009A000D9260850DA22DF500F015C6F20EE02F0EA
:1009B0000750D9260850DA22DF505E6F1FD007C0DB
:1009C00001F008C002F0D3EC91F00009D8B411D0C6
:1009D00020EE02F00750D9260850DA22DF500F012E
:1009E0005E6F20EE03F00750D9260850DA22DF5060
:1009F00004D0800E0F015E6F800E5C6F38505E2752
:100A000020EE01F00750D9260850DA22DF505F6F40
:100A100020EE04F00750D9260850DA22DF50036E8A
:100A2000D8900330666E20EE05F00750D9260850A6
:100A3000DA22DF505D6F608E010E3A6E010E016E9C
:100A40003B50BBEC8CF0F29E608020EE04F007502F
:100A5000D9260850DA22DF50036E046A090ED890B6
:100A600003360436E82EFBD703C070FF04C071FFC5
:100A700005A002D0F28E01D0F29E000E396E120057
:100A8000BE0E0001C16F000EC26F8AD0250EC719BD
:100A9000D8B404D0C7510BEC92F082D0000E000104
:100AA000C36FBCC0F6FFBDC0F7FFBC4BBD2B000E33
:100AB000F86E0800F5CFC7F0C751000AD8B412008D
:100AC000640AD8B403D00D0AD8A46AD0C1C0D9FF33
:100AD000C2C0DAFFDECFC5F0DDCFC6F0020EC127FF
:100AE000000EC223C6AF06D0030EC313C56DC61FCA
:100AF000D8B0C62B010EC76F050EC719D8B415D0D4
:100B0000C751020DCB0EF324F66EFB0EF420F76EE8
:100B1000F86A000EF8220900F550C55D0900F5508D
:100B2000C659D8A002D0C72BE7D7C3C0C0F0030E68
:100B3000C017D8B403D02D0E0BEC92F0C7C0C4F090
:100B40002AD00001C451020DCB0EF324F66EFB0E29
:100B5000F420F76EF86A000EF8220900F5CFB2F023
:100B60000A00F5CFB3F0C5C0B0F0C6C0B1F04BEC91
:100B70008DF0B0C0B7F0B1C0B8F0000E0001BA6F90
:100B80000A0EB96F60EC8EF00001B751300FC76FDD
:100B9000C7510BEC92F00001C407C429D8A4D1D7E7
:100BA000BCC0F6FFBDC0F7FF0001BC4BBD2B000E63
:100BB000F86E0800F5CFC7F0C751D8B4120066D759
:100BC00005C0D9FF06C0DAFFDF500D6E05C001F089
:100BD00006C002F0D3EC91F00009D8A42DD020EE8D
:100BE00004F00550D9260650DA22DF50076E086A55
:100BF000090ED89007360836E82EFBD77250075CEE
:100C000073500858D8B011D020EE05F00550D92601
:100C10000650DA22DF2A1E0EDF64120005C001F042
:100C200006C002F07AEC90F0120005C001F006C098
:100C300002F07AEC90F0120020EE04F00550D92674
:100C40000650DA22DF50076E086AD8900736083659
:100C50000D50020D290EF324D96E000EF420DA6E29
:100C6000DECF09F0DDCF0AF072CF0BF073CF0CF0BE
:100C70000B1E0C1E0B4A0C2A09500B24016E0A5045
:100C80000C20026E0DEC91F00750015C08500258E8
:100C9000D8B00FD020EE02F00550D9260650DA2247
:100CA000800EDF6E05C001F006C002F06AEC91F024
:100CB000120020EE03F00550D9260650DA22770EF6
:100CC000DF640FD020EE02F00550D9260650DA225C
:100CD000800EDF6E05C001F006C002F06AEC91F0F4
:100CE000120020EE03F00550D9260650DA22080E35
:100CF000DF2612000F0E106E000E116E85D0250E2D
:100D00001618D8B404D0165031EC92F07DD0000EF5
:100D1000126E0DC0F6FF0EC0F7FF0D4A0E2A000E30
:100D2000F86E0800F5CF16F01650000AD8B412007D
:100D3000640AD8B403D00D0AD8A466D010C0D9FF75
:100D400011C0DAFFDECF14F0DDCF15F0020E102651
:100D5000000E112215AE06D0030E1212146C151ED1
:100D6000D8B0152A010E166E050E1618D8B415D077
:100D70001650020DCB0EF324F66EFB0EF420F76E28
:100D8000F86A000EF8220900F550145C0900F550CD
:100D90001558D8A002D0162AE7D712C00FF0030EBC
:100DA0000F16D8B403D02D0E31EC92F016C013F00C
:100DB00027D01350020DCB0EF324F66EFB0EF42059
:100DC000F76EF86A000EF8220900F5CF03F00A006A
:100DD000F5CF04F014C001F015C002F09EEC8DF0C8
:100DE00001C008F002C009F0000E0B6E0A0E0A6E78
:100DF00082EC8EF00850300F166E165031EC92F0E7
:100E000013061328D8A4D5D70DC0F6FF0EC0F7FFE0
:100E10000D4A0E2A000EF86E0800F5CF16F0165097
:100E2000D8B412006CD73DC0CEF00001CF6B000EDD
:100E3000D36F000ED26FD3BF06D0D3510FE1400E57
:100E4000D25DD8B00BD0900ED225D96E010ED32131
:100E5000DA6E000EDF6ED24BD32BEDD7000ED16FC2
:100E6000000ED06F0ED000EC8FF00001CB6F900E13
:100E7000D025D96E010ED121DA6ECBC0DFFFD04B69
:100E8000D12BCE51D05DD151800ACB6FCF51800A8A
:100E9000CB59D8A0E8D73FC03EF017D0FF0ECB6F9C
:100EA000FF0ECC6F900EB06F010EB16FA3EC8EF001
:100EB0000001CB51B027CC51B123900EB025D96E93
:100EC000010EB121DA6E000EDF6EFF0ECB6FFF0E4A
:100ED000CC6F900EB06F010EB16FA3EC8EF00001DD
:100EE000CB51B027CC51B123900EB025D96E010E55
:100EF000B121DA6E0A0EDE18D8B4D0D7FF0ECB6F50
:100F0000FF0ECC6F900EB06F010EB16FA3EC8EF0A0
:100F10000001CB51B027CC51B123900EB025D96E32
:100F2000010EB121DA6E0D0EDE18D8B4B7D7000E5F
:100F3000826F900EC86F010EC96F00EC80F0120036
:100F4000000120EE05F0B051D926B151DA22DECFF2
:100F5000B2F0DECFB3F0DECFB4F0DECFB5F0050EE9
:100F600005D0D890B533B433B333B233E82EF9D7C4
:100F7000B21FB31FB41FB51FB22B000EB323B4238F
:100F8000B52320EE03F0B051D926B151DA22DECFDD
:100F9000B6F0DDCFB7F0B651B225B86FB751B32177
:100FA000B96F000EB421BA6F000EB521BB6F20EEF1
:100FB0000FF0B051D926B151DA22DF50B26FB8C06C
:100FC000B3F0B9C0B4F0BAC0B5F0BBC0B6F0B26708
:100FD00001D007D0B635B633B533B433B333B22FFF
:100FE000F6D7B3C0B8F0B4C0B9F0B5C0BAF0B6C067
:100FF000BBF00001BBBF10D0BB51BA11B91104E165
:10100000800EB85DD8A008D07F0EB86F000EB96F03
:10101000000EBA6F000EBB6FBBAF12D0800EB85D72
:10102000FF0EB959FF0EBA59FF0EBB59D8B008D000
:10103000800EB86FFF0EB96FFF0EBA6FFF0EBB6F59
:1010400020EE09F0B051D926B151DA22B8C0DFFF45
:101050001200F2AE40D0F29E000120EE05F0B05139
:10106000D926B151DA22DECFB2F0DECFB3F0DECF37
:10107000B4F0DECFB5F0050E05D0D890B533B4335B
:10108000B333B233E82EF9D720EE05F0B051D926AC
:10109000B151DA22B251DE5EB351DE5AB451DE5A9A
:1010A000B551DE5A20EE03F0B051D926B151DA2203
:1010B000DECFB2F0DDCFB3F020EE05F0B051D9268F
:1010C000B151DA22B251DE26B351DE22000EDE2209
:1010D000DE22F28E1200000120EE05F0B051D9267A
:1010E000B151DA22DECFB2F0DECFB3F0DECFB4F012
:1010F000DECFB5F0050E05D0D890B533B433B33399
:10110000B233E82EF9D720EE05F0B051D926B1510F
:10111000DA22B251DE5EB351DE5AB451DE5AB55115
:10112000DE5A20EE03F0B051D926B151DA22DECFDB
:10113000B2F0DDCFB3F020EE05F0B051D926B151B9
:10114000DA22B251DE26B351DE22000EDE22DE228A
:101150001200000120EE0AF0B951D926BA51DA2264
:10116000E80EDE5C030EDE58D8A018D0B9C0D9FF57
:10117000BAC0DAFFDF5015EC8CF001D81200050080
:10118000FA6E4250FD6E4350FE6E4450FF6EFA50B0
:10119000B9C0D9FFBAC0DAFFDF501200000120EE5B
:1011A0000EF0B951D926BA51DA22DF50BB6F20EECA
:1011B0000EF0B951D926BA51DA22DF50BC6FBC35D6
:1011C000BC310008BB25BD6F20EE09F0B951D9260E
:1011D000BA51DA22DE50800ABF6FBD51800ABF5D6E
:1011E000D8B0120020EE02F0B951D926BA51DA2255
:1011F000010EDF6E20EE0AF0B951D926BA51DA227B
:10120000000EDE6E000EDD6E20EE0CF0B951D92618
:10121000BA51DA22FF0EDE6EFB0EDD6E01D812002F
:101220000500FA6E4250FD6E4350FE6E4450FF6E54
:10123000FA50B9C0D9FFBAC0DAFFDF50120000017E
:10124000C16F0001C151090D830EF324C26F000E5E
:10125000F420C36FC2C0B0F0C3C0B1F021EC91F074
:101260000009D8B45AD00001C151020D290EF3244F
:10127000D96E000EF420DA6EDECFBBF0DDCFBCF00D
:1012800020EE06F0C251D926C351DA22DECFBDF0DE
:10129000DDCFBEF0BD1FBE1FBD4BBE2BBB51BD255C
:1012A000B06FBC51BE21B16FA8EC90F0000120EEF0
:1012B00004F0C251D926C351DA22DF50BF6FC06B90
:1012C000D890BF37C037D890BF37C037B051BF5D57
:1012D000B151C059D8B007D0C2C0B0F0C3C0B1F04E
:1012E000FAEC91F006D0C2C0B0F0C3C0B1F0F1EC9E
:1012F00091F0C2C0B7F0C3C0B8F016EC8EF001D8C0
:1013000012000500FA6E4850FD6E4950FE6E4A50BC
:10131000FF6EFA500001C1511200C2C0B0F0C3C04C
:10132000B1F0F1EC91F01200000120EE0AF0B95199
:10133000D926BA51DA22010EDB500BE1090EDE5C30
:10134000D8B007D0B9C0B3F0BAC0B4F0ECEC8CF0B0
:1013500006D0B9C0B0F0BAC0B1F029EC88F00001F5
:1013600020EE0AF0B951D926BA51DA22DE2A000E4F
:10137000DD2220EE0AF0B951D926BA51DA22010E47
:10138000DB5004E1100EDE5CD8A0120020EE05F068
:10139000B951D926BA51DA22DECFBBF0DECFBCF08C
:1013A000DECFBDF0DECFBEF0050E05D0D890BE3347
:1013B000BD33BC33BB33E82EF9D720EE03F0B9516F
:1013C000D926BA51DA22BBC0DEFFBCC0DDFF20EE59
:1013D00002F0B951D926BA51DA22010EDF6E20EEA1
:1013E0000AF0B951D926BA51DA22000EDE6E000E8B
:1013F000DD6E12000001C16F0001C151100D400EE1
:10140000F324C26F010EF420C36F20EE01F0C2512D
:10141000D926C351DA22DF50E3EC8FF00009D8B4AB
:101420001200000120EE01F0C251D926C351DA2288
:10143000DF50FDEC8FF00009D8B41200C2C0B7F045
:10144000C3C0B8F058EC91F0C2C0B0F0C3C0B1F066
:10145000A0EC87F0000120EE02F0C251D926C35162
:10146000DA22020EDF6407D0C2C0D9FFC3C0DAFFA0
:10147000DF5015EC8CF0C2C0B9F0C3C0BAF0000167
:1014800020EE02F0C251D926C351DA22DF50C06FDC
:10149000C051030DD50EF324D96E000EF420DA6E80
:1014A00001D812000500FA6EDE50FD6EDE50FE6EB1
:1014B000DE50FF6EFA501200000120EE02F0B35130
:1014C000D926B451DA22DF50D8B435D020EE03F05B
:1014D000B351D926B451DA22DECFB5F0DDCFB6F064
:1014E000D890B633B533D890B633B53320EE03F089
:1014F000B351D926B451DA22B551DE5EB651DD5A68
:1015000020EE01F0B351D926B451DA22DF50ADEC10
:101510008FF00001D890B133B033D890B133B033ED
:1015200020EE03F0B351D926B451DA22B051DE26B1
:10153000B151DD22120020EE01F0B351D926B45191
:10154000DA22DF50ADEC8FF0000120EE03F0B35152
:10155000D926B451DA22B0C0DEFFB1C0DDFF1200DF
:101560000E01F5A302D0F599F5893F50010D000E4B
:10157000F324D96E010EF420DA6EF1CEDFFF3F2A9C
:101580003F0E3F6402D0000E3F6E3D2A0A0EF11955
:10159000D8B404D00D0EF119D8A407D0010E000163
:1015A000826F000E0E01F16F03D0000E0001826FFA
:1015B000080E0E01F119D8A412003F50010D000EC3
:1015C000F324D96E010EF420DA6E000EDF6E3F06B2
:1015D000FB0E0D6EFF0E0E6E7AEC86F03E503F183D
:1015E000D8B40BD03F50010D000EF324D96E010E7C
:1015F000F420DA6E000EDF6E3F06000E0E01F16F72
:10160000120087EC91F0F28EF28C3CEC8FF000012E
:101610008251D8A413EC87F0D1EC90F0000E92EC3C
:1016200090F0FF0A0001D46F7E50D419FE0BD4193C
:101630007E6E010E92EC90F0FF0A0001D46FD44749
:101640007E50D419FD0BD4197E6E020E92EC90F0F0
:10165000FF0A0001D46FD447D4477E50D419FB0B46
:10166000D4197E6E030E92EC90F0FF0A0001D46F45
:10167000D447D447D4477E50D419F70BD4197E6E83
:10168000040E92EC90F0FF0A0001D46FD43B7E5020
:10169000D419EF0BD4197E6E00F0B9D7000E7D6E11
:1016A000000E7C6E000E796E1F0E7E6E000E7A6E3E
:1016B000000E7F6E000E7B6E000E806E8568E00E61
:1016C000866E81685F0E876E82680F0E886E8368F3
:1016D00084680E01A7699A69AF69BF0EBC6FE00EFE
:1016E000B46F9269000EA66F000EB36F000EAE6F5E
:1016F000000E996F000EBB6F000E916F000EA16F70
:10170000000EC06F000EAD6F1F0EB26F000E906F17
:10171000000EBA6F000E986F000EBF6F000EA06F24
:10172000000EA56F0E0E896F11911183118511970F
:101730001189118B1200400EF66E240EF76E010E09
:10174000F86E00EED5F010EE0CF00900F5CFEEFFCC
:10175000E550E150FAE1760EF66E240EF76E010EBA
:10176000F86E00EE42F010EE09F00900F5CFEEFF42
:10177000E550E150FAE102EE00F0400EEE6AE806B4
:10178000FDE101EE00F0D00EEE6AE806FDE100EEAC
:1017900060F0500EEE6AE806FDE100EE29F0190E49
:1017A000EE6AE806FDE14F904F92000101EF8BF0E9
:1017B0000001B26F14D00E01AE95AF9522D00E018C
:1017C000AE97AF971ED00E01AE99AF991AD00E0109
:1017D000AE9BAF9B16D00E01AE9DAF9D12D0000107
:1017E000B251000AD8B4E7D7010AD8B4E8D7030A3F
:1017F000D8B4E9D7010AD8B4EAD7070AD8A41200A6
:10180000EAD70001B251BDEC90F00001B251F9EC01
:1018100090F00001B251090D830EF324B06F000E59
:10182000F420B16FE8EC91F012000001B16F0001FB
:10183000B151100D400EF324B26F010EF420B36FBE
:1018400020EE02F0B251D926B351DA22000EDF6E3B
:1018500020EE05F0B251D926B351DA22DE6ADE6AF3
:10186000DE6ADD6A20EE0AF0B251D926B351DA22DF
:10187000000EDE6E000EDD6E20EE0CF0B251D926A9
:10188000B351DA22000EDE6E000EDD6E20EE01F0A6
:10189000B251D926B351DA22DF50F9EC90F01200A0
:1018A000000E016E3B50BBEC8CF03950D8B402D026
:1018B000609E2BD0609E3B50090D830EF3240E6E6C
:1018C000000EF4200F6E0EC001F00FC002F0C7EC46
:1018D00091F00009D8A407D00EC005F00FC006F0A3
:1018E000E0EC85F006D00EC001F00FC002F003EC72
:1018F00092F03B50020D290EF324D96E000EF42015
:10190000DA6E72CFDEFF73CFDDFF9AEC84F0120047
:101910000001B16F1ED0B0B102D0859401D0858492
:101920001200B0B102D0859601D085861200B0B108
:1019300002D0859801D085881200B0B102D0859A76
:1019400001D0858A1200B0B102D0859C01D0858C6F
:1019500012000001B151000AD8B4DDD7010AD8B491
:10196000E0D7030AD8B4E3D7010AD8B4E6D7070A08
:10197000D8A41200E8D7026E1ED001B002D0859420
:1019800001D08584120001B002D0859601D08586F1
:10199000120001B002D0859801D08588120001B0F4
:1019A00002D0859A01D0858A120001B002D0859CB0
:1019B00001D0858C12000250000AD8B4DED7010A8B
:1019C000D8B4E1D7030AD8B4E4D7010AD8B4E7D72A
:1019D000070AD8A41200E9D7000120EE01F0B351A4
:1019E000D926B451DA22DF50ADEC8FF00001B051AE
:1019F000B56FB151B66FB76BB86B20EE05F0B35150
:101A0000D926B451DA22B5C0DEFFB6C0DEFFB7C0BA
:101A1000DEFFB8C0DEFF20EE05F0B351D926B45189
:101A2000DA22040ED890DE36DE36DE36DD36D90612
:101A3000D906E82EF7D712000E012C9F600E000188
:101A4000B06F150EB16F010EB26F19EC92F00E016E
:101A50002C9D2E0E0001B06F200EB16F010EB26FE3
:101A600012EC92F0080E0E01F76F900EF56F240E37
:101A7000F66F8A0EF36F000EF46F000E416E000ECB
:101A8000406E400E4E6E000E3F6E000E3E6E000E1B
:101A90003D6E2C8F1200000E0001B66F000EB56F68
:101AA000B251B311D8B41CD0010EB46F04D0D89089
:101AB000B237B337B42BB3AFFAD7D890B537B63700
:101AC000B251B05DB351B159D8A005D0B251B05F99
:101AD000B351B15BB581D890B333B233B42FEDD7E6
:101AE000B5C0B0F0B6C0B1F01200000120EE02F0B7
:101AF000B051D926B151DA22020EDE18D8A4120054
:101B000020EE0AF0B051D926B151DA22DE2A000EB9
:101B1000DD2220EE0AF0B051D926B151DA22DE5092
:101B2000DE10D8A4120020EE0AF0B051D926B1512F
:101B3000DA22FF0EDE6EFF0EDD6E1200000E066E64
:101B4000000E056E03500410D8B41CD0010E076EB1
:101B500004D0D89003360436072A04AEFAD7D890BA
:101B6000053606360350015C04500258D8A005D053
:101B70000350015E0450025A0580D89004320332AB
:101B8000072EEDD705C001F006C002F0120005D007
:101B90000001B04BB12BB24BB32BB0C0D9FFB1C0D9
:101BA000DAFFDF500001B46FB2C0F6FFB3C0F7FF39
:101BB000000EF86E0800F5500008B425B56FB55159
:101BC000D8A407D0B0C0D9FFB1C0DAFFDF50D8A485
:101BD000DFD7B551B06FB16BB0BFB1071200B2C063
:101BE000B9F0B3C0BAF0B0C0B7F0B1C0B8F014D01B
:101BF000B9C0F6FFBAC0F7FF000EF86E0800F5CFC7
:101C0000B6F00001B94BBA2BB7C0D9FFB8C0DAFFA4
:101C1000B6C0DFFFB74BB82B0001B407D8A0B5079B
:101C2000B429E6E1B529D8B41200E2D7B7C0D9FF8C
:101C3000B8C0DAFFDF504CEC81F0B0C0B9F0B1C0F1
:101C4000BAF0F2AE0ED0F29E000120EE06F0B751CF
:101C5000D926B851DA22B9C0DEFFBAC0DDFFF28E54
:101C60001200000120EE06F0B751D926B851DA2251
:101C7000B9C0DEFFBAC0DDFF1200000E0001C56F63
:101C8000040EC56501D018D0C551E3EC8FF00009F2
:101C9000D8A40FD00001C551C9EC8FF00009D8B409
:101CA00008D046EC92F00009D8B43CEC83F0000E6A
:101CB00012000001C52BE4D734EC91F0010E1200A4
:101CC0000001B951BA11D8B418D0010EBB6F04D0BD
:101CD000D890B937BA37BB2BBAAFFAD7B951B75D7D
:101CE000BA51B859D8A004D0B951B75FBA51B85B4E
:101CF000D890BA33B933BB2FF1D7B7C0B7F0B8C05B
:101D0000B8F012000A500B10D8B418D0010E0C6EA7
:101D100004D0D8900A360B360C2A0BAEFAD70A50EC
:101D2000085C0B500958D8A004D00A50085E0B502C
:101D3000095AD8900B320A320C2EF1D708C008F09D
:101D400009C009F01200B0C0B4F0B1C0B5F003D0C2
:101D50000001B44BB52BB4C0D9FFB5C0DAFFDF50DA
:101D6000D8A4F6D7B0C0B2F0B1C0B3F00001B21F32
:101D7000B31FB24BB32BB451B225B06FB551B321E1
:101D8000B16F12000001B06F4E50D8B4FDD70E01F4
:101D90002CBD03D0B0C0F2FE12D02C9D4150010DDD
:101DA000000EF324D96E020EF420DA6EB0C0DFFF0D
:101DB000412A3F0E416402D0000E416E4E062C8D2A
:101DC00012001F0E0F01576F000E586F000E5D6F4F
:101DD000000E6A6E000E6B6E000E6C6E000E6D6E65
:101DE000000E686E000E696E410E596F8B0E5A6FB1
:101DF0000F0E5B6FC40E606E0E0134932A831200C7
:101E0000000E0001B06F3D50D8B4FDD73E50010D1B
:101E1000000EF324D96E010EF420DA6EDF500001BB
:101E2000B06F3E2A3F0E3E6402D0000E3E6E0E01A1
:101E30002C9F3D062C8F0001B0511200016E4E50B8
:101E4000D8B4FDD70E012CBD03D001C0F2FE12D0D4
:101E50002C9D4150010D000EF324D96E020EF4208A
:101E6000DA6E01C0DFFF412A3F0E416402D0000E4E
:101E7000416E4E062C8D1200EE0E0001BC6FFF0E5F
:101E8000BD6F40EC85F0F70E0001BC6FFF0EBD6F1B
:101E900040EC85F0520E0001BC6FFC0EBD6F40ECB3
:101EA00085F0A60E0001BC6FFF0EBD6F40EC85F003
:101EB00012000001B16F050E0001B16114D0B151E3
:101EC000100D020EF326000EF422400EF324D96EFC
:101ED000010EF420DA6E020EDE18D8A402D0010E34
:101EE0001200000E1200000E1200830E0001B06FEF
:101EF000000EB16F250EB26FFC0EB36F000EB56F02
:101F00002D0EB46FEFEC8DF0000E0001BB6F040ED0
:101F1000BB6501D01200BB51D8EC8BF00001BB2B8C
:101F2000F6D7400E0001B06F010EB16FD50EB26F43
:101F3000FB0EB36F000EB56F500EB46FEFEC8DF06B
:101F4000000E0001BB6F040EBB6501D01200BB5137
:101F500015EC8CF00001BB2BF6D70001B26F050E1B
:101F60000001B26111D0B251090D060EF326000E28
:101F7000F422830EF324D96E000EF420DA6EDECF45
:101F8000B0F0DDCFB1F01200000EB16F000EB06FF7
:101F900012000001B06F050E0001B06112D0B05107
:101FA000090D080EF326000EF422830EF324D96ED9
:101FB000000EF420DA6EDFA002D0010E1200000E37
:101FC0001200000E12000001B06F050E0001B0619A
:101FD00012D0B051090D080EF326000EF422830E24
:101FE000F324D96E000EF420DA6EDFA202D0010EC7
:101FF0001200000E1200000E12000001B06F050E5C
:102000000001B06112D0B051090D080EF326000E88
:10201000F422830EF324D96E000EF420DA6EDFA6CC
:1020200002D0010E1200000E1200000E1200400E2F
:102030004E6013D04050010D000EF324D96E020EF5
:10204000F420DA6EDF500E01F26F402A3F0E40643A
:1020500002D0000E406E4E2A12000E012C9D12007E
:10206000016E050E016013D00150090D080EF32614
:10207000000EF422830EF324D96E000EF420DA6EE3
:102080000001DFA202D0010E1200000E1200000EAD
:102090001200016E050E016013D00150090D080EEB
:1020A000F326000EF422830EF324D96E000EF420E2
:1020B000DA6E0001DFA002D0010E1200000E120045
:1020C000000E1200830E0001B26F000EB36FB35109
:1020D000000802E1B251A708D8A01200B2C0B0F0C7
:1020E000B3C0B1F0E8EC91F0090E0001B227000E88
:1020F000B323EDD720EE08F00150D9260250DA22A2
:10210000DF8820EE03F00150D9260250DA22080EB3
:10211000DF6E20EE02F00150D9260250DA22800E46
:10212000DF6E12000001B06F050E0001B0610ED02D
:10213000B051100D020EF326000EF422400EF324CF
:10214000D96E010EF420DA6EDF501200000E12007C
:102150000001B1AF0DD0B0C0B2F0B1C0B3F0B21F4A
:10216000B31FB24BB32BB2C0B0F0B3C0B1F012008A
:10217000B0C0B0F0B1C0B1F012000001B06F050EF8
:102180000001B0611200B051090D080EF326000ED7
:10219000F422830EF324D96E000EF420DA6EDF8071
:1021A0001200010E3C6E3C50D8B412003DEC8EF093
:1021B0000009D8B41200AEEC91F02CEC92F03C6E19
:1021C00062EC90F043EC92F01200000E0001B46F4C
:1021D000040EB46501D01200B451100D400EF3246A
:1021E000B06F010EF420B16F75EC8DF00001B42BCF
:1021F000EFD70001B06F050E0001B0611200B051C1
:10220000090D080EF326000EF422830EF324D96E76
:10221000000EF420DA6EDF96120002AE0DD001C07F
:1022200003F002C004F0031E041E034A042A03C084
:1022300001F004C002F0120001C001F002C002F07F
:1022400012000001B051B111D8B40CD020EE08F04A
:10225000B051D926B151DA22DFA002D0010E12000E
:10226000000E1200000E120076EC82F0000E00014B
:10227000C46F040EC46501D006D0C4511FEC89F0B0
:102280000001C42BF6D746EC91F012000001812B1F
:10229000020E816502D0000E816F8151010DDE0EAC
:1022A000F324D96E000EF420DA6EDF50386E12007F
:1022B000F2AE09D0F29EB7C0B3F0B8C0B4F05CEC97
:1022C0008AF0F28E1200B7C0B3F0B8C0B4F05CEC84
:1022D0008AF0120020EE08F00150D9260250DA22CE
:1022E000DF8620EE08F00150D9260250DA22DF986E
:1022F0001200000E0E014C6F000E4D6F000E4E6F5F
:10230000000E4F6F000E506F000E516F120026EC42
:1023100092F079EC91F04EEC8BF0BBEC91F01CEC70
:102320008DF0DFEC91F01200000120EE08F0B051CA
:10233000D926B151DA22DFA802D0010E1200000E18
:102340001200000120EE08F0B051D926B151DA2276
:10235000DFA602D0010E1200000E1200000E0001D6
:10236000C46F040EC46501D01200C451FAEC89F0A8
:102370000001C42BF6D7600E0E01436F000E456FAF
:10238000000E476F080E496F000E486F120020EED6
:1023900008F00150D9260250DA22DFA602D0010E41
:1023A0001200000E120020EE08F00150D926025053
:1023B000DA22DFA802D0010E1200000E120075EC26
:1023C0008FF091EC8FF062EC90F040EC92F0120004
:1023D000000120EE08F0B051D926B151DA22DF9287
:1023E0001200000120EE08F0B051D926B151DA22D6
:1023F000DF941200000120EE08F0B051D926B1514F
:10240000DA22DF84120020EE08F00150D9260250B3
:10241000DA22DF8212000001B16F0001B151C2EC7B
:102420008EF01200B0C04BF0B1C04CF0B2C04DF015
:102430001200B0C0E1F0B1C0E2F0B2C0E3F01200AF
:10244000281301E20701521101003C78F28A0E01C3
:10245000228D228F20831200000E0001B06FB05138
:102460001200026E02501EEC8FF012000E01349327
:0F24700050EC8CF0120092240192240190240170
:10248000E1EC8EF01200E5EC90F012003A501200F0
:042490001200120024
:020000040020DA
:10000000FF0FFF0FFF0FFF0FFF0FFF0FFF0FFF0F80
:020000040030CA
:0C000000ECFFFFF79FFFFFDFFFFFFFFF9B
:00000001FF
