:040000006CEF00F0B1
:100008003982FACF08F0FBCF09F0E9CF0AF0EACF3E
:100018000BF0E1CF0CF0E2CF0DF0D9CF0EF0DACF34
:100028000FF0F3CF10F0F4CF11F0F6CF12F0F7CFB6
:1000380013F0F8CF14F0F5CF15F039C016F03AC028
:1000480017F03BC018F03CC019F00E012CBD36ADBE
:100058000AD001D817D00500FA6E2F50FD6E305027
:10006800FE6E31500CD02CBF36AF0CD001D80AD060
:100078000500FA6E2C50FD6E2D50FE6E2E50FF6E50
:10008800FA50120019C03CF018C03BF017C03AF003
:1000980016C039F015C0F5FF14C0F8FF13C0F7FFFC
:1000A80012C0F6FF11C0F4FF10C0F3FF0FC0DAFF53
:1000B8000EC0D9FF0DC0E2FF0CC0E1FF0BC0EAFF84
:1000C8000AC0E9FF09C0FBFF08C0FAFF3992110016
:0400D800E5EF82F0DE
:10FDBA00002020204C697374206F66207375707060
:10FDCA006F7274656420636F6D6D616E64733A0A55
:10FDDA000D2020204C454473204F6E3A20547572F2
:10FDEA006E7320616C6C204C454473204F6E0A0D73
:10FDFA002020204C454473204F66663A2054757281
:10FE0A006E7320616C6C204C454473204F66660A01
:10FE1A000D20202052657365743A20436C65617227
:10FE2A007320746865207465726D696E616C2061F7
:10FE3A006E642072657365747320746865206D69D9
:10FE4A0063726F0A0D202020436C6561723A204369
:10FE5A006C6561727320746865207465726D696E71
:10FE6A00616C2062757420646F65736E27742072EA
:10FE7A006573657420746865206D6963726F0A0D15
:10FE8A002020202A49444E3F3A2052657475726EEA
:10FE9A007320646576696365206964656E74696652
:10FEAA0069636174696F6E0A0D20202048656C7061
:10FEBA003A2054686973206D6573736167652C20F5
:10FECA006C6973747320636F6D6D616E64730A0D70
:10FEDA000050494331384636374B3430206D546F21
:10FEEA007563682044656D6F0A0D426175642072FE
:10FEFA006174653A20313135323030206B6270736B
:10FF0A000A0D4E6F207061726974792C2038206254
:10FF1A006974732C206E6F20666C6F7720636F6E26
:10FF2A0074726F6C2C20312073746F702062697444
:10FF3A000A0D436F6D6D616E647320617265206393
:10FF4A006173652073656E7369746976650A0D4518
:10FF5A006E746572206120636F6D6D616E642C2012
:10FF6A006F722048656C7020666F72206C697374BA
:10FF7A00206F6620636F6D6D616E64730A0D0020D9
:10FF8A002020206D546F7563682054657374204275
:10FF9A006F6172642C205245564100202020204C6B
:10FFAA00415446203D20307830300A0D004C4154EF
:10FFBA0046203D20307846460A0D004C45447320C1
:10FFCA004F6666004C454473204F6E002A49444EE2
:10FFDA003F00436C65617200526573657400486541
:10FFEA006C70001B5B324A0049444E001B5B4800A0
:05FFFA001B5B4B000041
:020000040001F9
:1000000021C01AF022C01BF0CE0E1C6EFF0E1D6E1A
:1000100019EC82F01A501B10D8A415D0000E7E6E79
:10002000B40E1C6EFF0E1D6EFCEC82F0A50E1C6E55
:10003000FF0E1D6EFCEC82F0B40E1C6EFF0E1D6EEA
:10004000FCEC82F0120021C01AF022C01BF0C50E99
:100050001C6EFF0E1D6E19EC82F01A501B10D8A4F6
:1000600014D07E68B40E1C6EFF0E1D6EFCEC82F088
:10007000B70E1C6EFF0E1D6EFCEC82F0B40E1C6EF3
:10008000FF0E1D6EFCEC82F0120021C01AF022C09F
:100090001BF0E20E1C6EFF0E1D6E19EC82F01A5062
:1000A0001B10D8A40ED0ED0E1C6EFF0E1D6EFCECC6
:1000B00082F0F60E1C6EFF0E1D6EFCEC82F0FF004F
:1000C000120021C01AF022C01BF0DC0E1C6EFF0EC5
:1000D0001D6E19EC82F01A501B10D8A40DD0ED0E35
:1000E0001C6EFF0E1D6EFCEC82F0F60E1C6EFF0EF9
:1000F0001D6EFCEC82F0120021C01AF022C01BF031
:10010000D60E1C6EFF0E1D6E19EC82F01A501B10DD
:10011000D8B40ED021C01AF022C01BF0F20E1C6E13
:10012000FF0E1D6E19EC82F01A501B10D8A413D0CC
:10013000B40E1C6EFF0E1D6EFCEC82F0890E1C6E60
:10014000FF0E1D6EFCEC82F0B40E1C6EFF0E1D6ED9
:10015000FCEC82F0120021C01AF022C01BF0E80E65
:100160001C6EFF0E1D6E19EC82F01A501B10D8A4E5
:100170001200B40E1C6EFF0E1D6EFCEC82F0BB0E66
:100180001C6EFD0E1D6EFCEC82F0B40E1C6EFF0E9C
:100190001D6EFCEC82F0120034C026F0276A000EBF
:1001A0002B6E000E2A6E2BBE06D02B500FE1400E98
:1001B0002A5CD8B00BD0A00E2A24D96E000E2B20BA
:1001C000DA6E000EDF6E2A4A2B2AEDD7000E296E5A
:1001D000000E286E0DD098EC82F0236EA00E28241D
:1001E000D96E000E2920DA6E23C0DFFF284A292AA3
:1001F0002650285C2950800A236E2750800A2358F5
:10020000D8A0E9D736C035F016D0FF0E236EFF0E0A
:10021000246EA00E1A6E000E1B6E7BEC82F0235033
:100220001A2624501B22A00E1A24D96E000E1B2061
:10023000DA6E000EDF6EFF0E236EFF0E246EA00E30
:100240001A6E000E1B6E7BEC82F023501A2624508F
:100250001B22A00E1A24D96E000E1B20DA6E0A0E85
:10026000DE18D8B4D2D7FF0E236EFF0E246EA00E78
:100270001A6E000E1B6E7BEC82F023501A2624505F
:100280001B22A00E1A24D96E000E1B20DA6E0D0E52
:10029000DE18D8B4BAD7000E336EA00E216E000E51
:1002A000226E00EC80F012000E01F5A302D0F59949
:1002B000F5893650010D600EF324D96E000EF4203E
:1002C000DA6EF1CEDFFF362A3F0E366402D0000E22
:1002D000366E342A0A0EF119D8B404D00D0EF11975
:1002E000D8A405D0010E336E000EF16F02D0000EBF
:1002F000336E080EF119D8A412003650010D600EAD
:10030000F324D96E000EF420DA6E000EDF6E36068E
:10031000FA0E036EFF0E046E13EC83F035503618A0
:10032000D8B40BD03650010D600EF324D96E000EF8
:10033000F420DA6E000EDF6E3606000E0E01F16F4D
:100340001200000E7D6E000E7C6E000E796E000EA7
:100350007E6E000E7A6E000E7F6E000E7B6E000EBB
:10036000806E8568866881685F0E876E82680F0E72
:10037000886E836884680E01A7699A69AF69BF0EA9
:10038000BC6FB4699269000EA66F000EB36F000EC9
:10039000AE6F000E996F000EBB6F000E916F000ED6
:1003A000A16F000EC06F000EAD6F000EB26F000E99
:1003B000906F000EBA6F000E986F000EBF6F000EA8
:1003C000A06F000EA56F0E0E896F1191118311851C
:1003D00011971189118B12000E012C9FA80E1A6E15
:1003E000020E1B6E010E1C6E62EC83F00E012C9D42
:1003F000980E1A6E050E1B6E010E1C6E5BEC83F0E0
:10040000080E0E01F76F900EF56F240EF66F8A0E30
:10041000F36F000EF46F000E386E000E376E400E54
:10042000326E000E366E000E356E000E346E2C8F5E
:10043000120004D01A4A1B2A1C4A1D2A1AC0D9FFCE
:100440001BC0DAFFDF501E6E1CC0F6FF1DC0F7FF99
:10045000000EF86E0800F55000081E241F6E1F5095
:10046000D8A407D01AC0D9FF1BC0DAFFDF50D8A428
:10047000E1D71F501A6E1B6A1ABE1B0612001A6EB5
:100480003250D8B4FDD70E012CBD03D01AC0F2FEF5
:1004900012D02C9D3850010D000EF324D96E010EA0
:1004A000F420DA6E1AC0DFFF382A3F0E386402D01B
:1004B000000E386E32062C8D1200016E3250D8B408
:1004C000FDD70E012CBD03D001C0F2FE12D02C9D31
:1004D0003850010D000EF324D96E010EF420DA6EAF
:1004E00001C0DFFF382A3F0E386402D0000E386E9C
:1004F00032062C8D12001AC01EF01BC01FF002D055
:100500001E4A1F2A1EC0D9FF1FC0DAFFDF50D8A421
:10051000F7D71AC01CF01BC01DF01C1E1D1E1C4A64
:100520001D2A1E501C241A6E1F501D201B6E120007
:10053000000E1A6E3450D8B4FDD73550010D600E40
:10054000F324D96E000EF420DA6EDF501A6E352ACD
:100550003F0E356402D0000E356E0E012C9F34061E
:100560002C8F1A501200ED0E1C6EFF0E1D6EFCEC4F
:1005700082F0F60E1C6EFF0E1D6EFCEC82F0DB0EA0
:100580001C6EFE0E1D6EFCEC82F0B40E1C6EFF0E97
:100590001D6EFCEC82F01200400E326013D037501A
:1005A000010D000EF324D96E010EF420DA6EDF5037
:1005B0000E01F26F372A3F0E376402D0000E376EFD
:1005C000322A12000E012C9D120001EE00F0400EA6
:1005D000EE6AE806FDE100EE60F0800EEE6AE806E5
:1005E000FDE1386A376A366A356A346A336A3990A7
:1005F0003992000138EF83F01E0E1E6E000E1F6E42
:1006000003D0205069EC83F01CC0F6FF1DC0F7FF3B
:100610001C4A1D2A000EF86E0800F5CF20F020506D
:10062000D8B41200EED7050E056E000E066E03D08C
:10063000075073EC83F003C0F6FF04C0F7FF034AD2
:10064000042A000EF86E0800F5CF07F00750D8B462
:100650001200EED7000E0E014C6F000E4D6F000E13
:100660004E6F000E4F6F000E506F000E516F120054
:1006700050EC83F0F28EF28CB3EC82F03350D8A4BD
:10068000CCEC80F000F0FAD7600E0E01436F000E44
:10069000456F000E476F080E496F000E486F12003D
:1006A0006EEC83F02AEC83F0A1EC81F044EC83F053
:1006B000ECEC81F012001AC02FF01BC030F01CC00F
:1006C00031F012001AC02CF01BC02DF01CC02EF00F
:1006D00012001B6E1B503FEC82F01200F28A0E01DA
:1006E000228D228F1200026E02505DEC82F0120009
:020000040020DA
:10000000FF0FFF0FFF0FFF0FFF0FFF0FFF0FFF0F80
:020000040030CA
:0C000000ECFFFFF79FFFFFDFFFFFFFFF9B
:00000001FF
