:040000006CEF00F0B1
:100008002282FACF01F0FBCF02F0E9CF03F0EACF6A
:1000180004F0E1CF05F0E2CF06F0D9CF07F0DACF50
:1000280008F0F3CF09F0F4CF0AF0F6CF0BF0F7CFD2
:100038000CF0F8CF0DF0F5CF0EF022C00FF023C072
:1000480010F024C011F025C012F00E012CBD36AD01
:100058000AD001D817D00500FA6E1950FD6E1A5053
:10006800FE6E1B500CD02CBF36AF0CD001D80AD076
:100078000500FA6E1650FD6E1750FE6E1850FF6E92
:10008800FA50120012C025F011C024F010C023F05D
:100098000FC022F00EC0F5FF0DC0F8FF0CC0F7FF2F
:1000A8000BC0F6FF0AC0F4FF09C0F3FF08C0DAFF6F
:1000B80007C0D9FF06C0E2FF05C0E1FF04C0EAFFA0
:1000C80003C0E9FF02C0FBFF01C0FAFF2292110042
:1000D80016EF01F0000E7D6E000E7C6E000E796E3C
:1000E800000E7E6E000E7A6E000E7F6E000E7B6E26
:1000F800000E806E8568866881685F0E876E8268EC
:100108000F0E886E836884680E01A7699A69AF69C3
:10011800BF0EBC6FB4699269000EA66F000EB36F74
:10012800000EAE6F000E996F000EBB6F000E916F40
:10013800000EA16F000EC06F000EAD6F000EB26F03
:10014800000E906F000EBA6F000E986F000EBF6F12
:10015800000EA06F000EA56F0E0E896F119111830E
:10016800118511971189118B12000E012C9FFE0E1B
:10017800136E010E146E000E156E52EC01F00E0196
:100188002C9DCC0E136E010E146E000E156E4BECEA
:1001980001F0080E0E01F76F900EF56F240EF66F42
:1001A8008A0EF36F000EF46F000E216E000E206EA3
:1001B800400E1C6E000E1F6E000E1E6E000E1D6E91
:1001C8002C8F1200400E1C6013D02050010DA00E81
:1001D800F324D96E000EF420DA6EDF500E01F26FB0
:1001E800202A3F0E206402D0000E206E1C2A120026
:1001F8000E012C9D12000E01F5A302D0F599F58988
:100208001F50010D600EF324D96E000EF420DA6E33
:10021800F1CEDFFF1F2A3F0E1F6402D0000E1F6EB3
:100228001D2A120000EE60F0800EEE6AE806FDE17D
:10023800216A206A1F6A1E6A1D6A229022920001A2
:1002480059EF01F0000E0E014C6F000E4D6F000EBD
:100258004E6F000E4F6F000E506F000E516F120060
:10026800600E0E01436F000E456F000E476F080EBB
:10027800496F000E486F12005FEC01F026EC01F0A8
:100288006EEC00F034EC01F0B9EC00F0120013C091
:1002980019F014C01AF015C01BF0120013C016F0A4
:1002A80014C017F015C018F0120040EC01F0F28EDF
:1002B800F28C00F0FED7F28A0E01228D228F1200F6
:020000040020DA
:10000000FF0FFF0FFF0FFF0FFF0FFF0FFF0FFF0F80
:020000040030CA
:0C000000ECFFFFF79FFFFFDFFFFFFFFF9B
:00000001FF
