:0400000079EF00F0A4
:100008005082FACF17F0FBCF18F0E9CF19F0EACFFA
:100018001AF0E1CF1BF0E2CF1CF0D9CF1DF0DACFF8
:100028001EF0F3CF1FF0F4CF20F0F6CF21F0F7CF7A
:1000380022F0F8CF23F0F5CF24F050C025F051C0BE
:1000480026F052C027F053C028F00E012CBD36AD63
:100058000BD001D824D00500FA6E0001E351FD6EE3
:10006800E451FE6EE5510DD02CBF36AF0DD001D84E
:1000780016D00500FA6E0001E051FD6EE151FE6EEA
:10008800E251FF6EFA5012002AB334A303D077EC82
:1000980092F005D029B933A902D061EC92F028C0BA
:1000A80053F027C052F026C051F025C050F024C0AC
:1000B800F5FF23C0F8FF22C0F7FF21C0F6FF20C0DC
:1000C800F4FF1FC0F3FF1EC0DAFF1DC0D9FF1CC01C
:1000D800E2FF1BC0E1FF1AC0EAFF19C0E9FF18C020
:0E00E800FBFF17C0FAFF50921100B1EF8BF032
:10FBCA000001000A006400E803102700000000009A
:10FBDA0000000000000000000064010101000000B4
:10FBEA0000000000000000000064010202000000A2
:10FBFA000000000000000000006401030300000090
:10FC0A00000000000000000000640104040000007D
:10FC1A0000000000000000000064010022502820BB
:10FC2A000000000001235028200000000002245098
:10FC3A0028200000000003255028200000000004AE
:10FC4A00265028200000000020202020426F6F74D8
:10FC5A0020636F6D706C6574650A0D202020504911
:10FC6A004331384636374B3430206D546F756368EC
:10FC7A00205465737420426F6172640A0D2020203B
:10FC8A004576616C756174657320746865206D547E
:10FC9A006F75636820636170616369746976652052
:10FCAA00746F756368206C69627261727920646925
:10FCBA00737472696275746564206279204D696330
:10FCCA00726F636869700A0D20202053657473206F
:10FCDA00746865207374617465206F66206669763E
:10FCEA0065204C454473206261736564206F6E2001
:10FCFA006D546F75636820636170616369746976B6
:10FD0A00652070757368627574746F6E730A0D205E
:10FD1A0020204261756420726174653A2031313560
:10FD2A00323030206270730A0D2020204E6F20700E
:10FD3A0061726974792C203820626974732C206E80
:10FD4A006F20666C6F7720636F6E74726F6C2C20F5
:10FD5A00312073746F70206269740A0D2020204369
:10FD6A006F6D6D616E647320617265206361736586
:10FD7A002073656E7369746976650A0D20202045C3
:10FD8A006E746572206120636F6D6D616E642C20E4
:10FD9A006F7220656E7465722048656C7020666F9C
:10FDAA0072206C697374206F6620636F6D6D616E6B
:10FDBA0064730A0D002020204C697374206F66203A
:10FDCA00737570706F7274656420636F6D6D616EA8
:10FDDA0064733A0A0D2020204C454473204F6E3A32
:10FDEA00205475726E7320616C6C204C45447320EC
:10FDFA004F6E0A0D2020204C454473204F66663A08
:10FE0A00205475726E7320616C6C204C45447320CB
:10FE1A004F66660A0D202020427574746F6E205357
:10FE2A0074617465733F3A2052657475726E7320FB
:10FE3A007374617465206F6620616C6C20666976E4
:10FE4A0065206D546F75636820627574746F6E7384
:10FE5A000A0D20202052657365743A20436C65614F
:10FE6A00727320746865207465726D696E616C20A6
:10FE7A00616E642072657365747320746865206DA1
:10FE8A006963726F0A0D202020436C6561723A2003
:10FE9A00436C6561727320746865207465726D695C
:10FEAA006E616C2062757420646F65736E277420AE
:10FEBA00726573657420746865206D6963726F0A70
:10FECA000D2020202A49444E3F3A2052657475720B
:10FEDA006E7320646576696365206964656E74690A
:10FEEA006669636174696F6E0A0D20202048656C2B
:10FEFA00703A2054686973206D6573736167652C65
:10FF0A00206C6973747320636F6D6D616E64730A1C
:10FF1A000D00202020206D546F756368205465738E
:10FF2A007420426F6172642C205245564100202091
:10FF3A002020427574746F6E20303A2025640A0DB1
:10FF4A000020202020427574746F6E20313A2025DB
:10FF5A00640A0D0020202020427574746F6E2032CE
:10FF6A003A2025640A0D0020202020427574746FFF
:10FF7A006E20333A2025640A0D0020202020427585
:10FF8A0074746F6E20343A2025640A0D00202020F4
:10FF9A00204C415446203D20307830300A0D004232
:10FFAA007574746F6E205374617465733F004C41AD
:10FFBA005446203D20307846460A0D004C4544738D
:10FFCA00204F6666004C454473204F6E002A494410
:10FFDA004E3F00436C656172005265736574004858
:10FFEA00656C70001B5B324A0049444E001B5B483B
:06FFFA00001B5B4B000040
:020000040001F9
:100000004FA01200C7C0AFF0C8C0B0F0CF0E0001C3
:10001000B16FFF0EB26FDEEC8DF00001AF51B01189
:10002000D8A417D0000E7E6EA60EBB6FFF0EBC6F5D
:1000300042EC85F0970E0001BB6FFF0EBC6F42ECE7
:1000400085F0A60E0001BB6FFF0EBC6F42EC85F081
:100050001200C7C0AFF0C8C0B0F0C60E0001B16F4B
:10006000FF0EB26FDEEC8DF00001AF51B011D8A4DD
:1000700016D07E68A60EBB6FFF0EBC6F42EC85F0FB
:10008000B80E0001BB6FFF0EBC6F42EC85F0A60EF0
:100090000001BB6FFF0EBC6F42EC85F01200C7C0C1
:1000A000AFF0C8C0B0F0A90E0001B16FFF0EB26F83
:1000B000DEEC8DF00001AF51B011D8A459D0A60EDE
:1000C000BB6FFF0EBC6F42EC85F0380E0001BB6FBA
:1000D000FF0EBC6F000E72EC8FF00001C96FC951AA
:1000E000BD6FBE6B42EC85F04B0E0001BB6FFF0E87
:1000F000BC6F010E72EC8FF00001C96FC951BD6F6A
:10010000BE6B42EC85F05E0E0001BB6FFF0EBC6F54
:10011000020E72EC8FF00001C96FC951BD6FBE6B4A
:1001200042EC85F0710E0001BB6FFF0EBC6F030E39
:1001300072EC8FF00001C96FC951BD6FBE6B42EC0C
:1001400085F0840E0001BB6FFF0EBC6F040E72ECD5
:100150008FF00001C96FC951BD6FBE6B42EC85F0D5
:10016000A60E0001BB6FFF0EBC6F42EC85F01200C3
:10017000C7C0AFF0C8C0B0F0E30E0001B16FFF0E12
:10018000B26FDEEC8DF00001AF51B011D8A40FD0EA
:10019000EE0EBB6FFF0EBC6F42EC85F0F70E000158
:1001A000BB6FFF0EBC6F42EC85F0FF001200C7C0B2
:1001B000AFF0C8C0B0F0DD0E0001B16FFF0EB26F3E
:1001C000DEEC8DF00001AF51B011D8A40ED0EE0ED0
:1001D000BB6FFF0EBC6F42EC85F0F70E0001BB6FEA
:1001E000FF0EBC6F42EC85F01200C7C0AFF0C8C074
:1001F000B0F0D70E0001B16FFF0EB26FDEEC8DF0E4
:100200000001AF51B011D8B40FD0C7C0AFF0C8C013
:10021000B0F0F30EB16FFF0EB26FDEEC8DF00001A7
:10022000AF51B011D8A415D0A60EBB6FFF0EBC6F96
:1002300042EC85F01C0E0001BB6FFF0EBC6F42EC60
:1002400085F0A60E0001BB6FFF0EBC6F42EC85F07F
:100250001200C7C0AFF0C8C0B0F0E90E0001B16F26
:10026000FF0EB26FDEEC8DF00001AF51B011D8A4DB
:100270001200A60EBB6FFF0EBC6F42EC85F0BF0EE6
:100280000001BB6FFD0EBC6F42EC85F0A60E0001B5
:10029000BB6FFF0EBC6F42EC85F012000001B56F22
:1002A0000001B551020D290EF324D96E000EF42081
:1002B000DA6EB551060D600EB16F000EB26FF350DD
:1002C000B127F450B223B551010D330EF324E16E82
:1002D000000EF420E26EE7CFB3F0010EE726B35133
:1002E000020DF350B125E16EF450B221E26EDECF83
:1002F000E6FFDDCFE5FFB551010D330EF324D96ED6
:10030000000EF420DA6E020EDF640AD0B551010D42
:10031000330EF324D96E000EF420DA6E000EDF6E79
:10032000B551060D020EF326000EF422600EF324E2
:10033000D96E000EF420DA6EB551060D600EF3246E
:10034000E16E000EF420E26EDE50E65CDE50E65810
:10035000D8A067D0B551060D040EF326000EF42286
:10036000600EF324D96E000EF420DA6EB551060D3E
:10037000020EF326000EF422600EF324E16E000E4E
:10038000F420E26EDE50E65CDE50E658D8A011D0D4
:10039000B551060D020EF326000EF422600EF32472
:1003A000D96E000EF420DA6EDECFAFF0DDCFB0F004
:1003B0001200B551060D040EF326000EF422600E55
:1003C000F324D96E000EF420DA6EB551060D600EDE
:1003D000F324E16E000EF420E26EDE50E65CDE50A7
:1003E000E658D8A011D0B551060D040EF326000E24
:1003F000F422600EF324D96E000EF420DA6EDECF04
:10040000AFF0DDCFB0F01200B551060D600EF32451
:10041000D96E000EF420DA6EDECFAFF0DDCFB0F093
:100420001200B551060D040EF326000EF422600EE4
:10043000F324D96E000EF420DA6EB551060D600E6D
:10044000F324E16E000EF420E26EDE50E65CDE5036
:10045000E658D8A00DD0B551060D600EF324D96E24
:10046000000EF420DA6EDECFAFF0DDCFB0F0120078
:10047000B551060D040EF326000EF422600EF3248F
:10048000D96E000EF420DA6EB551060D020EF32679
:10049000000EF422600EF324E16E000EF420E26EF2
:1004A000DE50E65CDE50E658D8A011D0B551060DFE
:1004B000040EF326000EF422600EF324D96E000E13
:1004C000F420DA6EDECFAFF0DDCFB0F01200B55120
:1004D000060D020EF326000EF422600EF324D96EF0
:1004E000000EF420DA6EDECFAFF0DDCFB0F01200F8
:1004F000000E0001BD6F000EBC6F000EBF6F040E3A
:10050000BF6501D03FD0BF51020D290EF324D96E33
:10051000000EF420DA6EDECFB3F0DDCFB4F0BF51C1
:10052000060D600EB56F000EB66FF350B527F45090
:10053000B6238151020DF350B525D96EF450B62182
:10054000DA6EDECFB7F0DDCFB8F0B71FB81FB74B0C
:10055000B82BB351B725AF6FB451B821B06FC1EC10
:1005600090F0AFC0BAF0B0C0BBF00001BA51BC5DB2
:10057000BB51BD59D8B004D0BAC0BCF0BBC0BDF0AF
:10058000BF2BBDD7BD5104E1650EBC5DD8A05AD0CC
:100590008151010D7E0EF324D96E000EF420DA6E27
:1005A000DF2A050EDF641200000EB96F8151010DC4
:1005B000DD0EF324D96E000EF420DA6EDF50BE6F2C
:1005C000BE51D8B402D0BE0702D0780EBE6F010E65
:1005D000B96F000EC06F020EC06501D014D08151FA
:1005E000C019D8B40ED0C051010DDD0EF324D96E60
:1005F000000EF420DA6EBE51DE18D8A402D0000E30
:10060000B96FC02BE8D7B951D8B4DAD78151010DF1
:10061000DD0EF324D96E000EF420DA6EBEC0DFFFCB
:10062000000EC06F020EC06501D01200C051010D56
:100630007E0EF324D96E000EF420DA6E000EDF6E0B
:10064000C02BF0D7BD5119E1320EBC5DD8B01200FD
:100650008151010D7E0EF324D96E000EF420DA6E66
:10066000DF50D8B412008151010D7E0EF324D96EF3
:10067000000EF420DA6EDF0612001200000E0001F8
:10068000B46F000EF2BE010EB36F0DD03B2A050E03
:100690003B18D8A408D0000E3B6E000E3A6E010E37
:1006A0000001B46F0CD03B50FCEC8FF00009D8A4D3
:1006B000EDD73B50E2EC8FF00009D8B4E7D700014A
:1006C000B451D8A412003B50090D820EF324B56F2B
:1006D000000EF420B66FB5C0AFF0B6C0B0F0CEECEF
:1006E00091F00009D8B415D0000120EE03F0B55107
:1006F000D926B651DA22DF500F015C6F000120EEDF
:1007000002F0B551D926B651DA22DF500F015E6FE3
:1007100022D0B5C0AFF0B6C0B0F0C1EC91F0000986
:10072000D8B414D0000120EE02F0B551D926B6514C
:10073000DA22DF500F015E6F000120EE03F0B551A9
:10074000D926B651DA22DF500F0104D0800E0F01F6
:100750005E6F800E5C6F38505E27000120EE01F066
:10076000B551D926B651DA22DF500F015F6F000173
:1007700020EE04F0B551D926B651DA22DF50B16F20
:10078000D890B131666E20EE05F0B551D926B6513C
:10079000DA22DF500F015D6F608E010E3A6E010E9E
:1007A0000001AF6F3B509FEC8CF0F29E6080000127
:1007B00020EE04F0B551D926B651DA22DF50B16FE0
:1007C000B26B090ED890B137B237E82EFBD7B1C063
:1007D00070FFB2C071FFB3A102D0F28E01D0F29EC1
:1007E000000E396E1200000120EE0EF0B851D9262D
:1007F000B951DA22DF500008BA6F20EE09F0B85183
:10080000D926B951DA22DE50800ABC6FBA51800A6B
:10081000BC5DD8B028D020EE0AF0B851D926B95125
:10082000DA22DE2A000EDD2220EE0AF0B851D926A7
:10083000B951DA22010EDB5004E1410EDE5CD8A092
:1008400055D020EE0AF0B851D926B951DA22000E5F
:10085000DE6E000EDD6EB8C0D9FFB9C0DAFFDF5022
:100860002CEC8CF043D0000120EE09F0B851D926D1
:10087000B951DA2210EE0EF0B851E126B951E22258
:10088000E650800ABC6FDE50800ABC5DD8B023D031
:1008900020EE02F0B851D926B951DA22020EDF6EED
:1008A00020EE0AF0B851D926B951DA22000EDE6ED8
:1008B000000EDD6E01D81AD00500FA6E4550FD6EAF
:1008C0004650FE6E4750FF6EFA50B8C0D9FFB9C00F
:1008D000DAFFDF501200000120EE0AF0B851D926ED
:1008E000B951DA22000EDE6E000EDD6E000120EE40
:1008F0000CF0B851D926B951DA22DE2A000EDD22D9
:1009000020EE0CF0B851D926B951DA22400EDE188B
:10091000DE10D8A4120020EE0CF0B851D926B9513F
:10092000DA22000EDE6E000EDD6EB8C0AFF0B9C088
:10093000B0F02AEC88F01200000E066E000EF2BE37
:10094000010E056E0CD03B2A050E3B18D8A407D02B
:10095000000E3B6E000E3A6E010E066E0CD03B5040
:1009600049EC90F00009D8A4EED73B5062EC90F02F
:100970000009D8B4E8D70650D8A412003B50090D9E
:10098000820EF324076E000EF420086E07C001F0FB
:1009900008C002F0F4EC91F00009D8B412D020EEB7
:1009A00003F00750D9260850DA22DF500F015C6FA0
:1009B00020EE02F00750D9260850DA22DF505E6F91
:1009C0001FD007C001F008C002F000EC92F000094F
:1009D000D8B411D020EE02F00750D9260850DA2200
:1009E000DF500F015E6F20EE03F00750D92608504C
:1009F000DA22DF5004D0800E0F015E6F800E5C6F34
:100A000038505E2720EE01F00750D9260850DA2230
:100A1000DF505F6F20EE04F00750D9260850DA222D
:100A2000DF50036ED8900330666E20EE05F007505D
:100A3000D9260850DA22DF505D6F608E010E3A6EC3
:100A4000010E016E3B50D2EC8CF0F29E608020EEE5
:100A500004F00750D9260850DA22DF50036E046AEA
:100A6000090ED89003360436E82EFBD703C070FF7A
:100A700004C071FF05A002D0F28E01D0F29E000EDC
:100A8000396E1200BD0E0001C06F000EC16F8AD01A
:100A9000250EC619D8B404D0C65138EC92F082D0D5
:100AA000000E0001C26FBBC0F6FFBCC0F7FFBB4B1E
:100AB000BC2B000EF86E0800F5CFC6F0C651000A38
:100AC000D8B41200640AD8B403D00D0AD8A46AD0EE
:100AD000C0C0D9FFC1C0DAFFDECFC4F0DDCFC5F0A2
:100AE000020EC027000EC123C5AF06D0030EC213ED
:100AF000C46DC51FD8B0C52B010EC66F050EC61933
:100B0000D8B415D0C651020DCB0EF324F66EFB0EF1
:100B1000F420F76EF86A000EF8220900F550C45D63
:100B20000900F550C559D8A002D0C62BE7D7C2C0DE
:100B3000BFF0030EBF17D8B403D02D0E38EC92F0DF
:100B4000C6C0C3F02AD00001C351020DCB0EF3245E
:100B5000F66EFB0EF420F76EF86A000EF82209001C
:100B6000F5CFB1F00A00F5CFB2F0C4C0AFF0C5C008
:100B7000B0F062EC8DF0AFC0B6F0B0C0B7F0000ED0
:100B80000001B96F0A0EB86F77EC8EF00001B65114
:100B9000300FC66FC65138EC92F00001C307C3296D
:100BA000D8A4D1D7BBC0F6FFBCC0F7FF0001BB4B38
:100BB000BC2B000EF86E0800F5CFC6F0C651D8B4B5
:100BC000120066D705C0D9FF06C0DAFFDF500D6EF0
:100BD00005C001F006C002F000EC92F00009D8A4B4
:100BE0002DD020EE04F00550D9260650DA22DF5031
:100BF000076E086A090ED89007360836E82EFBD72C
:100C00007250075C73500858D8B011D020EE05F030
:100C10000550D9260650DA22DF2A1E0EDF641200A4
:100C200005C001F006C002F093EC90F0120005C080
:100C300001F006C002F093EC90F0120020EE04F0F8
:100C40000550D9260650DA22DF50076E086AD89080
:100C5000073608360D50020D290EF324D96E000E0A
:100C6000F420DA6EDECF09F0DDCF0AF072CF0BF0A0
:100C700073CF0CF00B1E0C1E0B4A0C2A09500B24D0
:100C8000016E0A500C20026E3AEC91F00750015CA4
:100C900008500258D8B00FD020EE02F00550D926E7
:100CA0000650DA22800EDF6E05C001F006C002F0A9
:100CB00097EC91F0120020EE03F00550D926065073
:100CC000DA22770EDF640FD020EE02F00550D9262D
:100CD0000650DA22800EDF6E05C001F006C002F079
:100CE00097EC91F0120020EE03F00550D926065043
:100CF000DA22080EDF2612000F0E106E000E116EA3
:100D000085D0250E1618D8B404D0165072EC92F087
:100D10007DD0000E126E0DC0F6FF0EC0F7FF0D4A1B
:100D20000E2A000EF86E0800F5CF16F01650000AD5
:100D3000D8B41200640AD8B403D00D0AD8A466D07F
:100D400010C0D9FF11C0DAFFDECF14F0DDCF15F0EF
:100D5000020E1026000E112215AE06D0030E12123E
:100D6000146C151ED8B0152A010E166E050E161835
:100D7000D8B415D01650020DCB0EF324F66EFB0E30
:100D8000F420F76EF86A000EF8220900F550145CA2
:100D90000900F5501558D8A002D0162AE7D712C07E
:100DA0000FF0030E0F16D8B403D02D0E72EC92F094
:100DB00016C013F027D01350020DCB0EF324F66E9D
:100DC000FB0EF420F76EF86A000EF8220900F5CF4A
:100DD00003F00A00F5CF04F014C001F015C002F0D2
:100DE000B5EC8DF001C008F002C009F0000E0B6EEA
:100DF0000A0E0A6E99EC8EF00850300F166E1650DF
:100E000072EC92F013061328D8A4D5D70DC0F6FFC4
:100E10000EC0F7FF0D4A0E2A000EF86E0800F5CF3F
:100E200016F01650D8B412006CD73DC0CDF00001BA
:100E3000CE6B000ED26F000ED16FD2BF06D0D25152
:100E40000FE1400ED15DD8B00BD0900ED125D96EF8
:100E5000010ED221DA6E000EDF6ED14BD22BEDD710
:100E6000000ED06F000ECF6F0ED036EC8FF0000169
:100E7000CA6F900ECF25D96E010ED021DA6ECAC08E
:100E8000DFFFCF4BD02BCD51CF5DD051800ACA6F41
:100E9000CE51800ACA59D8A0E8D73FC03EF017D03B
:100EA000FF0ECA6FFF0ECB6F900EAF6F010EB06FCB
:100EB000BAEC8EF00001CA51AF27CB51B023900E8F
:100EC000AF25D96E010EB021DA6E000EDF6EFF0E77
:100ED000CA6FFF0ECB6F900EAF6F010EB06FBAEC02
:100EE0008EF00001CA51AF27CB51B023900EAF2531
:100EF000D96E010EB021DA6E0A0EDE18D8B4D0D742
:100F0000FF0ECA6FFF0ECB6F900EAF6F010EB06F6A
:100F1000BAEC8EF00001CA51AF27CB51B023900E2E
:100F2000AF25D96E010EB021DA6E0D0EDE18D8B4E1
:100F3000B7D74F92900EC76F010EC86F00EC80F0CC
:100F40001200000120EE05F0AF51D926B051DA228F
:100F5000DECFB1F0DECFB2F0DECFB3F0DECFB4F053
:100F6000050E05D0D890B433B333B233B133E82E85
:100F7000F9D7B11FB21FB31FB41FB12B000EB2239C
:100F8000B323B42320EE03F0AF51D926B051DA22B7
:100F9000DECFB5F0DDCFB6F0B551B125B76FB651A4
:100FA000B221B86F000EB321B96F000EB421BA6F31
:100FB00020EE0FF0AF51D926B051DA22DF50B16FD9
:100FC000B7C0B2F0B8C0B3F0B9C0B4F0BAC0B5F0B1
:100FD000B16701D007D0B535B533B433B333B233CD
:100FE000B12FF6D7B2C0B7F0B3C0B8F0B4C0B9F003
:100FF000B5C0BAF00001BABF10D0BA51B911B811DA
:1010000004E1800EB75DD8A008D07F0EB76F000E48
:10101000B86F000EB96F000EBA6FBAAF12D0800E63
:10102000B75DFF0EB859FF0EB959FF0EBA59D8B0C7
:1010300008D0800EB76FFF0EB86FFF0EB96FFF0EAE
:10104000BA6F20EE09F0AF51D926B051DA22B7C0FD
:10105000DFFF1200F2AE40D0F29E000120EE05F05C
:10106000AF51D926B051DA22DECFB1F0DECFB2F0E7
:10107000DECFB3F0DECFB4F0050E05D0D890B43398
:10108000B333B233B133E82EF9D720EE05F0AF51C8
:10109000D926B051DA22B151DE5EB251DE5AB351D7
:1010A000DE5AB451DE5A20EE03F0AF51D926B051CA
:1010B000DA22DECFB1F0DDCFB2F020EE05F0AF5195
:1010C000D926B051DA22B151DE26B251DE22000E0D
:1010D000DE22DE22F28E1200000120EE05F0AF517A
:1010E000D926B051DA22DECFB1F0DECFB2F0DECFBA
:1010F000B3F0DECFB4F0050E05D0D890B433B333DF
:10110000B233B133E82EF9D720EE05F0AF51D9262E
:10111000B051DA22B151DE5EB251DE5AB351DE5A1D
:10112000B451DE5A20EE03F0AF51D926B051DA2285
:10113000DECFB1F0DDCFB2F020EE05F0AF51D92611
:10114000B051DA22B151DE26B251DE22000EDE228B
:10115000DE221200000120EE0AF0B851D926B95162
:10116000DA22E80EDE5C030EDE58D8A018D0B8C034
:10117000D9FFB9C0DAFFDF502CEC8CF001D8120097
:101180000500FA6E4250FD6E4350FE6E4450FF6EF5
:10119000FA50B8C0D9FFB9C0DAFFDF501200000121
:1011A00020EE0EF0B851D926B951DA22DF50BA6FCD
:1011B00020EE0EF0B851D926B951DA22DF50BB6FBC
:1011C000BB35BB310008BA25BC6F20EE09F0B85121
:1011D000D926B951DA22DE50800ABE6FBC51800A8E
:1011E000BE5DD8B0120020EE02F0B851D926B95138
:1011F000DA22010EDF6E20EE0AF0B851D926B9517D
:10120000DA22000EDE6E000EDD6E20EE0CF0B8511C
:10121000D926B951DA22FF0EDE6EFB0EDD6E01D843
:1012200012000500FA6E4250FD6E4350FE6E4450AF
:10123000FF6EFA50B8C0D9FFB9C0DAFFDF50120014
:101240000001C06F0001C051090D820EF324C16F6F
:10125000000EF420C26FC1C0AFF0C2C0B0F04EECBF
:1012600091F00009D8B45AD00001C051020D290EE6
:10127000F324D96E000EF420DA6EDECFBAF0DDCFA3
:10128000BBF020EE06F0C151D926C251DA22DECFE2
:10129000BCF0DDCFBDF0BC1FBD1FBC4BBD2BBA5198
:1012A000BC25AF6FBB51BD21B06FC1EC90F0000108
:1012B00020EE04F0C151D926C251DA22DF50BE6FB0
:1012C000BF6BD890BE37BF37D890BE37BF37AF514E
:1012D000BE5DB051BF59D8B007D0C1C0AFF0C2C0D9
:1012E000B0F027EC92F006D0C1C0AFF0C2C0B0F0B1
:1012F0001EEC92F0C1C0B6F0C2C0B7F02DEC8EF07B
:1013000001D812000500FA6E4850FD6E4950FE6E7D
:101310004A50FF6EFA500001C0511200C1C0AFF038
:10132000C2C0B0F01EEC92F01200000120EE0AF0F4
:10133000B851D926B951DA22010EDB500BE1090E62
:10134000DE5CD8B007D0B8C0B2F0B9C0B3F003ECDF
:101350008DF006D0B8C0AFF0B9C0B0F02AEC88F07C
:10136000000120EE0AF0B851D926B951DA22DE2A5E
:10137000000EDD2220EE0AF0B851D926B951DA224A
:10138000010EDB5004E1100EDE5CD8A0120020EE4E
:1013900005F0B851D926B951DA22DECFBAF0DECF46
:1013A000BBF0DECFBCF0DECFBDF0050E05D0D8908F
:1013B000BD33BC33BB33BA33E82EF9D720EE03F08C
:1013C000B851D926B951DA22BAC0DEFFBBC0DDFF61
:1013D00020EE02F0B851D926B951DA22010EDF6EA3
:1013E00020EE0AF0B851D926B951DA22000EDE6E8D
:1013F000000EDD6E12000001C06F0001C051100D23
:10140000400EF324C16F010EF420C26F20EE01F0F4
:10141000C151D926C251DA22DF50FCEC8FF000090D
:10142000D8B41200000120EE01F0C151D926C251FA
:10143000DA22DF5016EC90F00009D8B41200C1C0D7
:10144000B6F0C2C0B7F085EC91F0C1C0AFF0C2C039
:10145000B0F0A1EC87F0000120EE02F0C151D926D6
:10146000C251DA22020EDF6407D0C1C0D9FFC2C068
:10147000DAFFDF502CEC8CF0C1C0B8F0C2C0B9F07C
:10148000000120EE02F0C151D926C251DA22DF500C
:10149000BF6FBF51030DD40EF324D96E000EF4209C
:1014A000DA6E01D812000500FA6EDE50FD6EDE50D5
:1014B000FE6EDE50FF6EFA501200000E7D6E000EC2
:1014C0007C6E000E796E1F0E7E6E000E7A6E000E20
:1014D0007F6E000E7B6E000E806E7C0E856E000EA1
:1014E000866E000E816E400E876E040E826E000EB8
:1014F000886E000E836E000E846E0E01A769FB0ECF
:101500009A6FAF69BF0EBC6FE00EB46F9269000EA8
:10151000A66F000EB36F000EAE6F000E996F000E37
:10152000BB6F000E916F000EA16F000EC06F000E1A
:10153000AD6F1F0EB26F000E906F000EBA6F000EEF
:10154000986F000EBF6F000EA06F000EA56F9395F1
:1015500094859585160E0001AF6F250EB06F010EB4
:10156000B16F3FEC92F00E0129890E0E896F119137
:101570001183118511971189118B1200B4EC91F030
:10158000CE0E0001AF6F240EB06F010EB16F3FECB5
:1015900092F0F28EF28CD9EC8EF04FB215EC87F00F
:1015A000EAEC90F0000EABEC90F0FF0A0001D36F74
:1015B0007E50D319FE0BD3197E6E010EABEC90F06A
:1015C000FF0A0001D36FD3477E50D319FD0BD31907
:1015D0007E6E020EABEC90F0FF0A0001D36FD34792
:1015E000D3477E50D319FB0BD3197E6E030EABECA1
:1015F00090F0FF0A0001D36FD347D347D3477E5003
:10160000D319F70BD3197E6E040EABEC90F0FF0AE2
:101610000001D36FD33B7E50D319EF0BD3197E6EED
:1016200000F0BBD7000120EE02F0B251D926B35131
:10163000DA22DF50D8B435D020EE03F0B251D926EB
:10164000B351DA22DECFB4F0DDCFB5F0D890B533A8
:10165000B433D890B533B43320EE03F0B251D92669
:10166000B351DA22B451DE5EB551DD5A20EE01F0FD
:10167000B251D926B351DA22DF50C6EC8FF0000107
:10168000D890B033AF33D890B033AF3320EE03F0FF
:10169000B251D926B351DA22AF51DE26B051DD2244
:1016A000120020EE01F0B251D926B351DA22DF50F8
:1016B000C6EC8FF0000120EE03F0B251D926B351F1
:1016C000DA22AFC0DEFFB0C0DDFF12000E01F5A3CD
:1016D00002D0F599F5893F50010D000EF324D96E23
:1016E000010EF420DA6EF1CEDFFF3F2A3F0E3F6499
:1016F00002D0000E3F6E3D2A0A0EF119D8B404D074
:101700000D0EF119D8A404D04F82000EF16F01D054
:101710004F92080EF119D8A412003F50010D000E8F
:10172000F324D96E010EF420DA6E000EDF6E3F0650
:10173000FB0E0D6EFF0E0E6E7CEC86F03E503F18D9
:10174000D8B40BD03F50010D000EF324D96E010E1A
:10175000F420DA6E000EDF6E3F06000E0E01F16F10
:101760001200B60EF66E240EF76E010EF86E00EE45
:10177000D4F010EE0CF00900F5CFEEFFE550E1508B
:10178000FAE1F80EF66E240EF76E010EF86E00EE1A
:1017900042F010EE09F00900F5CFEEFFE550E15000
:1017A000FAE102EE00F0400EEE6AE806FDE101EE1D
:1017B00000F0D00EEE6AE806FDE100EE60F04F0E9C
:1017C000EE6AE806FDE14F6A00EE29F0190EEE6AB6
:1017D000E806FDE1509050920001BEEF8AF0000152
:1017E000B16F14D00E01AE95AF9522D00E01AE9719
:1017F000AF971ED00E01AE99AF991AD00E01AE9BD5
:10180000AF9B16D00E01AE9DAF9D12D00001B1511D
:10181000000AD8B4E7D7010AD8B4E8D7030AD8B485
:10182000E9D7010AD8B4EAD7070AD8A41200EAD740
:101830000001B151D6EC90F00001B15112EC91F0E1
:101840000001B151090D820EF324AF6F000EF42098
:10185000B06F15EC92F012000001B06F0001B051B2
:10186000100D400EF324B16F010EF420B26F20EE84
:1018700002F0B151D926B251DA22000EDF6E20EE0D
:1018800005F0B151D926B251DA22DE6ADE6ADE6A8B
:10189000DD6A20EE0AF0B151D926B251DA22000EEB
:1018A000DE6E000EDD6E20EE0CF0B151D926B25185
:1018B000DA22000EDE6E000EDD6E20EE01F0B15178
:1018C000D926B251DA22DF5012EC91F01200000E4C
:1018D000016E3B50D2EC8CF03950D8B402D0609EEF
:1018E0002BD0609E3B50090D820EF3240E6E000E2D
:1018F000F4200F6E0EC001F00FC002F0F4EC91F076
:101900000009D8A407D00EC005F00FC006F0E2EC25
:1019100085F006D00EC001F00FC002F030EC92F05E
:101920003B50020D290EF324D96E000EF420DA6E1E
:1019300072CFDEFF73CFDDFF9CEC84F0120000015C
:10194000B06F1ED0AFB102D0859401D08584120053
:10195000AFB102D0859601D085861200AFB102D01A
:10196000859801D085881200AFB102D0859A01D048
:10197000858A1200AFB102D0859C01D0858C1200FF
:101980000001B051000AD8B4DDD7010AD8B4E0D7BD
:10199000030AD8B4E3D7010AD8B4E6D7070AD8A413
:1019A0001200E8D7026E1ED001B002D0859401D09B
:1019B0008584120001B002D0859601D08586120080
:1019C00001B002D0859801D08588120001B002D004
:1019D000859A01D0858A120001B002D0859C01D081
:1019E000858C12000250000AD8B4DED7010AD8B4A0
:1019F000E1D7030AD8B4E4D7010AD8B4E7D7070A75
:101A0000D8A41200E9D7000120EE01F0B251D92686
:101A1000B351DA22DF50C6EC8FF00001AF51B46F42
:101A2000B051B56FB66BB76B20EE05F0B251D92649
:101A3000B351DA22B4C0DEFFB5C0DEFFB6C0DEFFB0
:101A4000B7C0DEFF20EE05F0B251D926B351DA223D
:101A5000040ED890DE36DE36DE36DD36D906D906FF
:101A6000E82EF7D712000E012C9FCC0E0001AF6FAD
:101A7000160EB06F010EB16F54EC92F00E012C9D5A
:101A8000600E0001AF6F200EB06F010EB16F4DEC14
:101A900092F0080E0E01F76F900EF56F240EF66FA0
:101AA0008A0EF36F000EF46F000E416E000E406E52
:101AB000400E4E6E000E3F6E000E3E6E000E3D6EEE
:101AC0002C8F1200000E0001B56F000EB46FB151E3
:101AD000B211D8B41CD0010EB36F04D0D890B13776
:101AE000B237B32BB2AFFAD7D890B437B537B151BC
:101AF000AF5DB251B059D8A005D0B151AF5FB2516E
:101B0000B05BB481D890B233B133B32FEDD7B4C04A
:101B1000AFF0B5C0B0F01200000120EE02F0AF51FE
:101B2000D926B051DA22020EDE18D8A4120020EE17
:101B30000AF0AF51D926B051DA22DE2A000EDD229A
:101B400020EE0AF0AF51D926B051DA22DE50DE1075
:101B5000D8A4120020EE0AF0AF51D926B051DA22F3
:101B6000FF0EDE6EFF0EDD6E1200000E066E000E22
:101B7000056E03500410D8B41CD0010E076E04D0BB
:101B8000D89003360436072A04AEFAD7D890053623
:101B900006360350015C04500258D8A005D003500B
:101BA000015E0450025A0580D89004320332072E99
:101BB000EDD705C001F006C002F0120005D000010B
:101BC000AF4BB02BB14BB22BAFC0D9FFB0C0DAFFD7
:101BD000DF500001B36FB1C0F6FFB2C0F7FF000ED7
:101BE000F86E0800F5500008B325B46FB451D8A4BE
:101BF00007D0AFC0D9FFB0C0DAFFDF50D8A4DFD71D
:101C0000B451AF6FB06BAFBFB0071200B1C0B8F046
:101C1000B2C0B9F0AFC0B6F0B0C0B7F014D0B8C021
:101C2000F6FFB9C0F7FF000EF86E0800F5CFB5F06B
:101C30000001B84BB92BB6C0D9FFB7C0DAFFB5C0A9
:101C4000DFFFB64BB72B0001B307D8A0B407B32909
:101C5000E6E1B429D8B41200E2D7B6C0D9FFB7C0C4
:101C6000DAFFDF504EEC81F0AFC0B8F0B0C0B9F091
:101C7000F2AE0ED0F29E000120EE06F0B651D9264B
:101C8000B751DA22B8C0DEFFB9C0DDFFF28E120014
:101C9000000120EE06F0B651D926B751DA22B8C0BD
:101CA000DEFFB9C0DDFF1200000E0001C46F040E9C
:101CB000C46501D018D0C451FCEC8FF00009D8A441
:101CC0000FD00001C451E2EC8FF00009D8B408D065
:101CD00087EC92F00009D8B43EEC83F0000E1200BD
:101CE0000001C42BE4D761EC91F0010E1200000159
:101CF000B851B911D8B418D0010EBA6F04D0D89029
:101D0000B837B937BA2BB9AFFAD7B851B65DB951B0
:101D1000B759D8A004D0B851B65FB951B75BD890C5
:101D2000B933B833BA2FF1D7B6C0B6F0B7C0B7F0F1
:101D300012000A500B10D8B418D0010E0C6E04D04B
:101D4000D8900A360B360C2A0BAEFAD70A50085C2C
:101D50000B500958D8A004D00A50085E0B50095AFD
:101D6000D8900B320A320C2EF1D708C008F009C007
:101D700009F01200AFC0B3F0B0C0B4F003D000015E
:101D8000B34BB42BB3C0D9FFB4C0DAFFDF50D8A433
:101D9000F6D7AFC0B1F0B0C0B2F00001B11FB21FB2
:101DA000B14BB22BB351B125AF6FB451B221B06F6B
:101DB00012004FA01200EE0E0001BB6FFF0EBC6FB1
:101DC00042EC85F0F70E0001BB6FFF0EBC6F42ECDA
:101DD00085F0520E0001BB6FFC0EBC6F42EC85F02B
:101DE000A60E0001BB6FFF0EBC6F42EC85F0120027
:101DF0000001AF6F4E50D8B4FDD70E012CBD03D0FB
:101E0000AFC0F2FE12D02C9D4150010D000EF32404
:101E1000D96E020EF420DA6EAFC0DFFF412A3F0E0A
:101E2000416402D0000E416E4E062C8D12001F0E32
:101E30000F01576F000E586F000E5D6F000E6A6E37
:101E4000000E6B6E000E6C6E000E6D6E000E686EF6
:101E5000000E696E410E596F8B0E5A6F0F0E5B6F3D
:101E6000C40E606E0E0134932A831200000E00012E
:101E7000AF6F3D50D8B4FDD73E50010D000EF32496
:101E8000D96E010EF420DA6EDF500001AF6F3E2AEA
:101E90003F0E3E6402D0000E3E6E0E012C9F3D06AA
:101EA0002C8F0001AF511200016E4E50D8B4FDD7F7
:101EB0000E012CBD03D001C0F2FE12D02C9D41506A
:101EC000010D000EF324D96E020EF420DA6E01C06B
:101ED000DFFF412A3F0E416402D0000E416E4E06E4
:101EE0002C8D12000001B06F050E0001B06114D0FE
:101EF000B051100D020EF326000EF422400EF32412
:101F0000D96E010EF420DA6E020EDE18D8A402D0CB
:101F1000010E1200000E1200000E1200820E0001CF
:101F2000AF6F000EB06F250EB16FFC0EB26F000EDA
:101F3000B46F2D0EB36F06EC8EF0000E0001BA6F79
:101F4000040EBA6501D01200BA51EFEC8BF000011B
:101F5000BA2BF6D7400E0001AF6F010EB06FD50E51
:101F6000B16FFB0EB26F000EB46F500EB36F06EC84
:101F70008EF0000E0001BA6F040EBA6501D0120097
:101F8000BA512CEC8CF00001BA2BF6D70001B16FDE
:101F9000050E0001B16111D0B151090D060EF326F5
:101FA000000EF422820EF324D96E000EF420DA6EB5
:101FB000DECFAFF0DDCFB0F01200000EB06F000E3C
:101FC000AF6F12000001AF6F050E0001AF6112D0BC
:101FD000AF51090D080EF326000EF422820EF324F1
:101FE000D96E000EF420DA6EDFA002D0010E1200CE
:101FF000000E1200000E12000001AF6F050E00016E
:10200000AF6112D0AF51090D080EF326000EF42275
:10201000820EF324D96E000EF420DA6EDFA202D015
:10202000010E1200000E1200000E12000001AF6F30
:10203000050E0001AF6112D0AF51090D080EF32655
:10204000000EF422820EF324D96E000EF420DA6E14
:10205000DFA602D0010E1200000E1200000E1200C8
:10206000400E4E6013D04050010D000EF324D96E87
:10207000020EF420DA6EDF500E01F26F402A3F0E9E
:10208000406402D0000E406E4E2A12000E012C9DBC
:102090001200016E050E016013D00150090D080EEB
:1020A000F326000EF422820EF324D96E000EF420E3
:1020B000DA6E0001DFA202D0010E1200000E120043
:1020C000000E1200016E050E016013D00150090DC3
:1020D000080EF326000EF422820EF324D96E000EB1
:1020E000F420DA6E0001DFA002D0010E1200000E13
:1020F0001200000E1200820E0001B16F000EB26FCE
:10210000B251000802E1B151A608D8A01200B1C036
:10211000AFF0B2C0B0F015EC92F0090E0001B1279B
:10212000000EB223EDD720EE08F00150D926025060
:10213000DA22DF8820EE03F00150D9260250DA229D
:10214000080EDF6E20EE02F00150D9260250DA228E
:10215000800EDF6E12000001AF6F050E0001AF614F
:102160000ED0AF51100D020EF326000EF422400ED9
:10217000F324D96E010EF420DA6EDF501200000E47
:1021800012000001B0AF0DD0AFC0B1F0B0C0B2F0DE
:10219000B11FB21FB14BB22BB1C0AFF0B2C0B0F0A3
:1021A0001200AFC0AFF0B0C0B0F012000001AF6FCE
:1021B000050E0001AF611200AF51090D080EF326A4
:1021C000000EF422820EF324D96E000EF420DA6E93
:1021D000DF801200010E3C6E3C50D8B4120054EC6B
:1021E0008EF00009D8B41200DBEC91F06DEC92F0A7
:1021F0003C6E7BEC90F084EC92F01200000E00013B
:10220000B36F040EB36501D01200B351100D400E30
:10221000F324AF6F010EF420B06F8CEC8DF0000151
:10222000B32BEFD70001AF6F050E0001AF611200B5
:10223000AF51090D080EF326000EF422820EF3248E
:10224000D96E000EF420DA6EDF9612004B504C105F
:102250004D10D8B40CD001D80AD00500FA6E4B50FE
:10226000FD6E4C50FE6E4D50FF6EFA5012000E0186
:102270009395120002AE0DD001C003F002C004F02D
:10228000031E041E034A042A03C001F004C002F026
:10229000120001C001F002C002F012000001AF51B3
:1022A000B011D8B40CD020EE08F0AF51D926B051FF
:1022B000DA22DFA002D0010E1200000E1200000E82
:1022C000120078EC82F0000E0001C36F040EC365AB
:1022D00001D006D0C35120EC89F00001C32BF6D702
:1022E00073EC91F012000001812B020E816502D087
:1022F000000E816F8151010DDD0EF324D96E000EA9
:10230000F420DA6EDF50386E1200F2AE09D0F29E81
:10231000B6C0B2F0B7C0B3F012EC8BF0F28E120080
:10232000B6C0B2F0B7C0B3F012EC8BF0120020EEE2
:1023300008F00150D9260250DA22DF8620EE08F09C
:102340000150D9260250DA22DF981200000E0E0149
:102350004C6F000E4D6F000E4E6F000E4F6F000E53
:10236000506F000E516F120046EC92F0A6EC91F007
:102370005DEC8AF0E8EC91F033EC8DF00CEC92F02F
:102380001200000120EE08F0AF51D926B051DA2238
:10239000DFA802D0010E1200000E1200000120EE94
:1023A00008F0AF51D926B051DA22DFA602D0010ED3
:1023B0001200000E1200000E0001C36F040EC36570
:1023C00001D01200C351FBEC89F00001C32BF6D7FA
:1023D000600E0E01436F000E456F000E476F080E32
:1023E000496F000E486F120020EE08F00150D92608
:1023F0000250DA22DFA602D0010E1200000E1200F7
:1024000020EE08F00150D9260250DA22DFA802D0CF
:10241000010E1200000E12008EEC8FF0AAEC8FF06D
:102420007BEC90F081EC92F01200000120EE08F0BD
:10243000AF51D926B051DA22DF921200000120EE0E
:1024400008F0AF51D926B051DA22DF941200000112
:1024500020EE08F0AF51D926B051DA22DF84120005
:1024600020EE08F00150D9260250DA22DF82120055
:102470000001B06F0001B051F8EC8EF01200AFC057
:102480004BF0B0C04CF0B1C04DF01200F28A0E011A
:10249000228D228F20831F891200AFC0E3F0B0C0CD
:1024A000E4F0B1C0E5F01200AFC0E0F0B0C0E1F080
:1024B000B1C0E2F012002A1301E607015411010035
:1024C0003C780E0193A5120026EC91F012008AA42C
:1024D00002D04F8012004F901200000E0001AF6F2B
:1024E000AF511200026E025054EC8FF012000E0138
:1024F000349367EC8CF01200142501142501122589
:0125000001D9
:1025020017EC8FF01200FEEC90F012003A5012001D
:062512001200120012008D
:020000040020DA
:10000000FF0FFF0FFF0FFF0FFF0FFF0FFF0FFF0F80
:020000040030CA
:0C000000ECFFFFF79FFFFFDFFFFFFFFF9B
:00000001FF
