:040000006CEF00F0B1
:100008005C82FACF79F0FBCF7AF0E9CF7BF0EACFC8
:100018007CF0E1CF7DF0E2CF7EF0D9CF7FF0DACF70
:1000280080F0F3CF81F0F4CF82F0F6CF83F0F7CFF2
:1000380084F0F8CF85F0F5CF86F05CC087F05DC01E
:1000480088F05EC089F05FC08AF00E012CBD36AD25
:100058000AD001D817D00500FA6E5850FD6E5950D5
:10006800FE6E5A500CD02CBF36AF0CD001D80AD037
:100078000500FA6E5550FD6E5650FE6E5750FF6ED5
:10008800FA5012008AC05FF089C05EF088C05DF047
:1000980087C05CF086C0F5FF85C0F8FF84C0F7FF15
:1000A80083C0F6FF82C0F4FF81C0F3FF80C0DAFF8F
:1000B8007FC0D9FF7EC0E2FF7DC0E1FF7CC0EAFFC0
:1000C8007BC0E9FF7AC0FBFF79C0FAFF5C921100A0
:0400D80045EFA7F059
:10FBFA00000000803F000020410000C84200007A57
:10FC0A004400401C460050C347002474498096189B
:10FC1A004B20BCBE4C286B6E4EF9021550EC78ADE9
:10FC2A0060CAF249710000803FCDCCCC3D0AD7238F
:10FC3A003C6F12833A17B7D138ACC52737BD378620
:10FC4A003595BFD63377CC2B325F708930FFE6DB30
:10FC5A002E08E53C1E6042A20D010000000A0000C9
:10FC6A000064000000E803000010270000A08601DD
:10FC7A000040420F008096980000E1F50500CA9AFC
:10FC8A003B2020204C697374206F66207375707056
:10FC9A006F7274656420636F6D6D616E6473207337
:10FCAA006F206661723A0A0D2020204C4544204F8D
:10FCBA006E3A205475726E73204C4544204F6E0A7A
:10FCCA000D2020204C4544204F66663A2054757218
:10FCDA006E73204C4544204F66660A0D202020543E
:10FCEA00616C6B20746F206D653A20537065777371
:10FCFA0020612062756E6368206F75740A0D20207A
:10FD0A00204164643A204164647320616C6C206110
:10FD1A007267756D656E747320666F6C6C6F776948
:10FD2A006E6720636F6D6D616E640A0D2020204D31
:10FD3A00756C7469706C793A204D756C7469706C65
:10FD4A0069657320616C6C20617267756D656E748C
:10FD5A00730A0D20202052657365743A20436C653E
:10FD6A00617273207468652073637265656E2061C1
:10FD7A006E642072657365747320746865206D699A
:10FD8A0063726F0A0D20202048656C703A2054680F
:10FD9A006973206D6573736167652C206C69737470
:10FDAA007320636F6D6D616E64730A0D0050494371
:10FDBA0031384636374B3430206D546F75636820BE
:10FDCA0044656D6F0A0D4261756420726174653A0B
:10FDDA0020313135323030206B6270730A0D4E6F2C
:10FDEA00207061726974792C203820626974732CCE
:10FDFA00206E6F20666C6F7720636F6E74726F6C03
:10FE0A002C20312073746F70206269740A0D436F5D
:10FE1A006D6D616E64732061726520636173652024
:10FE2A0073656E7369746976650A0D456E746572D9
:10FE3A00206120636F6D6D616E642C206F722048A3
:10FE4A00656C7020666F72206C697374206F66200F
:10FE5A00636F6D6D616E64730A0D00202020204669
:10FE6A0069727374207468696E6727732066697291
:10FE7A0073742C2049276D2074616C6B696E67203E
:10FE8A00746F20796F75207468726F756768206166
:10FE9A00205541525420746F205553422062726992
:10FEAA006467652C2070726F64756365642062797B
:10FEBA0020465444490A0D002020202049276D205D
:10FECA00612050494331384636374B34302C206153
:10FEDA006E64204920646F6E2774206B6E6F7720E2
:10FEEA006D79207265766973696F6E206E756D62C1
:10FEFA006572207965740D0A0020202020546865F7
:10FF0A002070726F64756374206F6620616C6C2058
:10FF1A00617267756D656E747320656E746572655E
:10FF2A00642069732025640A0D002020202054686B
:10FF3A00652073756D206F6620616C6C2061726735
:10FF4A00756D656E747320656E746572656420697B
:10FF5A00732025660A0D002020202057656C6C2C22
:10FF6A00204927766520676F742061206C6F7420A2
:10FF7A00746F2074616C6B2061626F75742E2E2E03
:10FF8A000A0D0020202020546865207061727420B8
:10FF9A006E756D6265722069732046543233320A77
:10FFAA000D002020202052433720436C6561726582
:10FFBA00640A0D0020202020524337205365740A1A
:10FFCA000D0054616C6B20746F206D65004C4544C4
:10FFDA00204F6666004C4544204F6E00526573659B
:10FFEA00740048656C70001B5B324A001B5B48005A
:05FFFA001B5B4B000041
:020000040001F9
:10000000120E01011A6F010E1B6FC4D3250E2E199B
:10001000D8B404D02E51AFECA7F0BCD3000E010130
:100020001D6F000E1C6F02D01D8518D010C1F6FF89
:1000300011C1F7FF104B112B000EF86E0800F5CF21
:100040002EF12E51000AD8B41200640AD8B406D09A
:10005000020AD8B4E9D70F0AD8A49CD3070E1D15FD
:10006000D8B4F5D2000E1F6F060E1E6F1AC1D9FF4D
:100070001BC1DAFFDECF2AF1DECF2BF1DECF2CF170
:10008000DECF2DF1040E1A27000E1B232DAF15D045
:100090002AC18BF02BC18CF02CC18DF02DC18EF0BC
:1000A000D9ECA6F08BC02AF18CC02BF18DC02CF1BD
:1000B0008EC02DF1030E01011C13000E256F000EE2
:1000C000246F2A512B112C112D11D8B488D02C3526
:1000D0002D35820F246F256BFF0E25232407D8A012
:1000E000250724C18BF025C18CF0000E00018E6F16
:1000F000030E8D6F31ECA7F08BC024F18CC025F17D
:1001000024C191F025C192F0000E0001946F0A0EF7
:10011000936F74ECA3F091C024F192C025F101011A
:1001200025AF03D02407D8A0250724510008A5EC4B
:100130008AF0B2C026F1B3C027F1B4C028F1B5C02F
:1001400029F126C199F027C19AF028C19BF029C155
:100150009CF02AC19DF02BC19EF02CC19FF02DC1B7
:10016000A0F01CEC93F099C026F19AC027F19BC037
:1001700028F19CC029F126C18BF027C18CF028C141
:100180008DF029C18EF0000E00018F6F000E906F70
:10019000800E916F3F0E926F6BECA0F00001D8B013
:1001A00005D001012407D8A0250719D026C18BF05E
:1001B00027C18CF028C18DF029C18EF0000E0001FE
:1001C0008F6F000E906F200E916F410E926F6BEC4F
:1001D000A0F00001D8A003D00101244B252B010180
:1001E0001FBF06D01F5121E10D0E1E5DD8B01DD0DE
:1001F0002AC1C2F02BC1C3F02CC1C4F02DC1C5F07F
:100200001E510BEC98F0B2C0C6F0B3C0C7F0B4C03A
:10021000C8F0B5C0C9F05EEC91F0C2C02AF1C3C00D
:100220002BF1C4C02CF1C5C02DF1010125BF06D0B2
:10023000255124E10A0E245DD8B020D02A512B117B
:100240002C112D11D8B467D02AC1BBF02BC1BCF042
:100250002CC1BDF02DC1BEF08CECA1F00001BB5152
:10026000BC11BD11BE11D8A456D0010125BF53D079
:10027000255104E1020E245DD8A04DD026C18BF09B
:1002800027C18CF028C18DF029C18EF05F0E0001CE
:100290008F6F700E906F890E916F400E926F6BECA6
:1002A000A0F00001D8B003D00101F70E02D0010187
:1002B000F80E2427FF0E25232451A5EC8AF0B2C0A6
:1002C00026F1B3C027F1B4C028F1B5C029F12AC185
:1002D0008BF02BC18CF02CC18DF02DC18EF026C17E
:1002E0008FF027C190F028C191F029C192F042EC23
:1002F0009FF08BC020F18CC021F18DC022F18EC007
:1003000023F1000E01012A6F000E2B6F000E2C6FDF
:10031000000E2D6F3CD02AC1BBF02BC1BCF02CC10C
:10032000BDF02DC1BEF08CECA1F0BBC020F1BCC073
:1003300021F1BDC022F1BEC023F12AC108F12BC1B9
:1003400009F12CC10AF12DC10BF120C198F021C196
:1003500099F022C19AF023C19BF0000E20EC9CF092
:1003600098C00CF199C00DF19AC00EF19BC00FF12D
:10037000D9ECA5F008C12AF109C12BF10AC12CF171
:100380000BC12DF1000E0101256F000E246F010E2F
:100390002E6F0A0E2E19D8B41BD02E51040D630EE9
:1003A000F324F66EFC0EF420F76EF86A000EF822C5
:1003B0000900F550205D0900F55021590900F5505C
:1003C00022590900F5502359D8A002D02E2BE1D78D
:1003D000030E1C150001CE6F000E01011D1500015A
:1003E000CF6FCE51CF11D8B44ED02D0EAFECA7F0B9
:1003F0004AD020C18BF021C18CF022C18DF023C1E5
:100400008EF001012E51040D630EF324F66EFC0EE6
:10041000F420F76EF86A000EF8220900F5CF8FF08D
:100420000900F5CF90F00900F5CF91F00A00F5CF63
:1004300092F0B7ECA3F08BC026F18CC027F18DC0F1
:1004400028F18EC029F126C198F027C199F028C162
:100450009AF029C19BF00A0E00019C6F000E9D6F5F
:10046000000E9E6F000E9F6FEDECA4F098C026F179
:1004700099C027F19AC028F19BC029F101012651AA
:10048000300FAFECA7F001012E072E29D8B408D009
:10049000B0D7300EAFECA7F001012407D8A0250794
:1004A00025BF05D02551F5E12405D8B0F2D71FBFEF
:1004B00009D01F5104E1090E1E5DD8A003D0080E1B
:1004C0002E6F02D01EC12EF12E511E5F000E2EBFC8
:1004D000FF0E1F5B2E51D8B403D02E0EAFECA7F049
:1004E00001012E51A5EC8AF0B2C016F1B3C017F18C
:1004F000B4C018F1B5C019F12AC19DF02BC19EF00E
:100500002CC19FF02DC1A0F016C199F017C19AF02F
:1005100018C19BF019C19CF01CEC93F099C0BBF082
:100520009AC0BCF09BC0BDF09CC0BEF08CECA1F0AA
:10053000BBC020F1BCC021F1BDC022F1BEC023F17F
:1005400074D020C18BF021C18CF022C18DF023C169
:100550008EF001012E51040D630EF324F66EFC0E95
:10056000F420F76EF86A000EF8220900F5CF8FF03C
:100570000900F5CF90F00900F5CF91F00A00F5CF12
:1005800092F0B7ECA3F08BC026F18CC027F18DC0A0
:1005900028F18EC029F126C198F027C199F028C111
:1005A0009AF029C19BF00A0E00019C6F000E9D6F0E
:1005B000000E9E6F000E9F6FEDECA4F098C026F128
:1005C00099C027F19AC028F19BC029F10101265159
:1005D000300FAFECA7F020C198F021C199F022C1F3
:1005E0009AF023C19BF001012E51040D630EF324F8
:1005F000F66EFC0EF420F76EF86A000EF822090081
:10060000F5CF9CF00900F5CF9DF00900F5CF9EF0E5
:100610000A00F5CF9FF0EDECA4F098C020F199C04E
:1006200021F19AC022F19BC023F101012E072E294E
:10063000D8B408D086D7300EAFECA7F001011E0762
:10064000D8A01F071E511F11D8B4A4D0F4D71AC1C7
:10065000D9FF1BC1DAFFDECF20F1DDCF21F1000E83
:1006600021BFFF0E226F236F020E1A27000E1B23DD
:1006700023AF0AD0030E1C13231F221F211F206D3E
:10068000000E212322232323010E2E6F0A0E2E1982
:10069000D8B41BD02E51040D630EF324F66EFC0E5D
:1006A000F420F76EF86A000EF8220900F550205D7C
:1006B0000900F55021590900F55022590900F5505B
:1006C0002359D8A002D02E2BE1D7030E1C15000110
:1006D000CE6F000E01011D150001CF6FCE51CF115D
:1006E000D8B403D02D0EAFECA7F001012E511E6F30
:1006F0001F6B1EBF1F0745D01EC1CEF01FC1CFF01C
:100700000001D890CE37CF37D890CE37CF37630E91
:10071000CE25F66EFC0ECF21F76EF86A000EF82299
:100720000900F5CF8FF00900F5CF90F00900F5CF63
:1007300091F00A00F5CF92F020C18BF021C18CF02E
:1007400022C18DF023C18EF0B7ECA3F08BC098F0DE
:100750008CC099F08DC09AF08EC09BF00A0E0001FB
:100760009C6F000E9D6F000E9E6F000E9F6FEDEC54
:10077000A4F000019851300F01012E6F2E51AFEC03
:10078000A7F001011E07D8A01F071E29B5E11F29E8
:10079000D8A4B2D710C1F6FF11C1F7FF0101104B69
:1007A000112B000EF86E0800F5CF2EF12E51D8B4A3
:1007B00012002CD4530E0001646F000E656FB0D38D
:1007C000250E7819D8B404D07851C9ECA7F0A8D375
:1007D000000E0001676F000E666F02D0678518D0AB
:1007E00051C0F6FF52C0F7FF514A522A000EF86E70
:1007F0000800F5CF78F07851000AD8B41200640AE6
:10080000D8B406D0020AD8B4E9D70F0AD8A488D33E
:10081000070E6715D8B4E7D2000E696F060E686F31
:1008200064C0D9FF65C0DAFFDECF74F0DECF75F0AB
:10083000DECF76F0DECF77F0040E6427000E65235E
:1008400077AF15D074C001F075C002F076C003F028
:1008500077C004F0F1ECA6F001C074F002C075F0AE
:1008600003C076F004C077F0030E00016613000E9B
:100870006F6F000E6E6F7451751176117711D8B4C9
:1008800082D076357735820F6E6F6F6BFF0E6F23D8
:100890006E07D8A06F076EC001F06FC002F0000EA7
:1008A000046E030E036E58ECA7F001C06EF002C098
:1008B0006FF06EC007F06FC008F0000E0A6E0A0EEF
:1008C000096EF9ECA3F007C06EF008C06FF00001EC
:1008D0006FAF03D06E07D8A06F076E510008F7EC1A
:1008E0008CF028C070F029C071F02AC072F02BC0C3
:1008F00073F070C00FF071C010F072C011F073C0CF
:1009000012F074C013F075C014F076C015F077C003
:1009100016F0C5EC94F00FC070F010C071F011C06B
:1009200072F012C073F070C001F071C002F072C0BA
:1009300003F073C004F0000E056E000E066E800E0C
:10094000076E3F0E086EFCECA0F0D8B005D0000199
:100950006E07D8A06F0717D070C001F071C002F009
:1009600072C003F073C004F0000E056E000E066E38
:10097000200E076E410E086EFCECA0F0D8A003D04C
:1009800000016E4B6F2B000169BF06D0695121E158
:100990000D0E685DD8B01DD074C035F075C036F04E
:1009A00076C037F077C038F06851C9EC9AF028C0AB
:1009B00039F029C03AF02AC03BF02BC03CF06DEC76
:1009C00096F035C074F036C075F037C076F038C098
:1009D00077F000016FBF06D06F5123E10A0E6E5D04
:1009E000D8B01FD07451751176117711D8B464D076
:1009F00074C028F075C029F076C02AF077C02BF0BB
:100A0000FBECA1F0285029102A102B10D8A454D0A8
:100A100000016FBF51D06F5104E1020E6E5DD8A08E
:100A20004BD070C001F071C002F072C003F073C00F
:100A300004F05F0E056E700E066E890E076E400E96
:100A4000086EFCECA0F0D8B003D00001F70E02D085
:100A50000001F80E6E27FF0E6F236E51F7EC8CF03D
:100A600028C070F029C071F02AC072F02BC073F05A
:100A700074C001F075C002F076C003F077C004F0D6
:100A800070C005F071C006F072C007F073C008F0C6
:100A9000D7EC9FF001C06AF002C06BF003C06CF0AD
:100AA00004C06DF0000E0001746F000E756F000E33
:100AB000766F000E776F3CD074C028F075C029F0B7
:100AC00076C02AF077C02BF0FBECA1F028C06AF0CA
:100AD00029C06BF02AC06CF02BC06DF074C049F0D7
:100AE00075C04AF076C04BF077C04CF06AC001F098
:100AF0006BC002F06CC003F06DC004F0000ECAECD5
:100B00009CF001C04DF002C04EF003C04FF004C095
:100B100050F0FDECA5F049C074F04AC075F04BC030
:100B200076F04CC077F0000E00016F6F000E6E6F14
:100B3000010E786F0A0E7819D8B41BD07851040DC5
:100B4000630EF324F66EFC0EF420F76EF86A000EC6
:100B5000F8220900F5506A5D0900F5506B5909004B
:100B6000F5506C590900F5506D59D8A002D0782B7A
:100B7000E1D7030E6615536E000E6715546E535081
:100B80005410D8B44DD02D0EC9ECA7F049D06AC08E
:100B900001F06BC002F06CC003F06DC004F0000106
:100BA0007851040D630EF324F66EFC0EF420F76EFC
:100BB000F86A000EF8220900F5CF05F00900F5CF1C
:100BC00006F00900F5CF07F00A00F5CF08F03BEC7E
:100BD000A4F001C070F002C071F003C072F004C054
:100BE00073F070C00EF071C00FF072C010F073C0DF
:100BF00011F00A0E126E000E136E000E146E000E2F
:100C0000156E21ECA5F00EC070F00FC071F010C091
:100C100072F011C073F000017051300FC9ECA7F0F1
:100C2000000178077829D8B408D0B1D7300EC9ECC4
:100C3000A7F000016E07D8A06F076FBF05D06F51F6
:100C4000F5E16E05D8B0F2D769BF09D0695104E16A
:100C5000090E685DD8A003D0080E786F02D068C076
:100C600078F07851685F000E78BFFF0E695B7851AD
:100C7000D8B403D02E0EC9ECA7F000017851F7ECE0
:100C80008CF028C060F029C061F02AC062F02BC04F
:100C900063F074C013F075C014F076C015F077C01F
:100CA00016F060C00FF061C010F062C011F063C0B8
:100CB00012F0C5EC94F00FC028F010C029F011C05C
:100CC0002AF012C02BF0FBECA1F028C06AF029C07A
:100CD0006BF02AC06CF02BC06DF073D06AC001F0CD
:100CE0006BC002F06CC003F06DC004F000017851DD
:100CF000040D630EF324F66EFC0EF420F76EF86A12
:100D0000000EF8220900F5CF05F00900F5CF06F036
:100D10000900F5CF07F00A00F5CF08F03BECA4F08E
:100D200001C070F002C071F003C072F004C073F033
:100D300070C00EF071C00FF072C010F073C011F0EF
:100D40000A0E126E000E136E000E146E000E156E5B
:100D500021ECA5F00EC070F00FC071F010C072F061
:100D600011C073F000017051300FC9ECA7F06AC0D8
:100D70000EF06BC00FF06CC010F06DC011F00001F0
:100D80007851040D630EF324F66EFC0EF420F76E1A
:100D9000F86A000EF8220900F5CF12F00900F5CF2D
:100DA00013F00900F5CF14F00A00F5CF15F021EC8F
:100DB000A5F00EC06AF00FC06BF010C06CF011C04F
:100DC0006DF0000178077829D8B408D087D7300EA5
:100DD000C9ECA7F000016807D8A06907685169113C
:100DE000D8B49ED0F4D764C0D9FF65C0DAFFDECF97
:100DF0006AF0DDCF6BF0000E6BBFFF0E6C6F6D6F96
:100E0000020E6427000E65236DAF0AD0030E661331
:100E10006D1F6C1F6B1F6A6D000E6B236C236D239F
:100E2000010E786F0A0E7819D8B41BD07851040DD2
:100E3000630EF324F66EFC0EF420F76EF86A000ED3
:100E4000F8220900F5506A5D0900F5506B59090058
:100E5000F5506C590900F5506D59D8A002D0782B87
:100E6000E1D7030E6615536E000E6715546E53508E
:100E70005410D8B403D02D0EC9ECA7F0000178515E
:100E8000686F696B68BF690742D068C053F069C07A
:100E900054F0D89053365436D89053365436630EA7
:100EA0005324F66EFC0E5420F76EF86A000EF822FA
:100EB0000900F5CF05F00900F5CF06F00900F5CFE0
:100EC00007F00A00F5CF08F06AC001F06BC002F02D
:100ED0006CC003F06DC004F03BECA4F001C00EF058
:100EE00002C00FF003C010F004C011F00A0E126E21
:100EF000000E136E000E146E000E156E21ECA5F0A0
:100F00000E50300F0001786F7851C9ECA7F0000146
:100F10006807D8A069076829B8E16929D8A4B5D7B6
:100F200051C0F6FF52C0F7FF514A522A000EF86E28
:100F30000800F5CF78F000017851D8B4120040D401
:100F40002FC18BF030C18CF0DF0E00018D6FFF0ED2
:100F50008E6FB1ECA5F000018B518C11D8A417D085
:100F60007B8E8A0E0101106FFF0E116F00EC80F076
:100F7000BE0E0101106FFF0E116F00EC80F08A0EA3
:100F80000101106FFF0E116F00EC80F012002FC1F5
:100F90008BF030C18CF0D70E00018D6FFF0E8E6F7D
:100FA000B1ECA5F000018B518C11D8A417D07B9E19
:100FB0008A0E0101106FFF0E116F00EC80F0AC0E75
:100FC0000101106FFF0E116F00EC80F08A0E01011D
:100FD000106FFF0E116F00EC80F012002FC18BF02C
:100FE00030C18CF0CC0E00018D6FFF0E8E6FB1EC16
:100FF000A5F000018B518C11D8A42BD08A0E0101D1
:10100000106FFF0E116F00EC80F0610E0101106F88
:10101000FF0E116F00EC80F0650E0101106FFE0EE7
:10102000116F00EC80F08D0E0101106FFF0E116F3B
:1010300000EC80F0C20E0101106FFE0E116F00EC8B
:1010400080F08A0E0101106FFF0E116F00EC80F02E
:1010500012002FC1D9FF30C1DAFF410EDE18D8A42B
:101060002ED1010120EE01F02F51D9263051DA2284
:10107000640EDE18D8A423D120EE02F02F51D92619
:101080003051DA22640EDE18D8A419D1000EB46FE4
:10109000000EB36F000EC86F000EC96F000ECA6F4E
:1010A000000ECB6F000EC16F000EC06F0ED0C0518E
:1010B0002F25D96EC1513021DA6E200EDE18D8A44A
:1010C00002D0B34BB42BC04BC12B2FC18BF030C11E
:1010D0008CF063ECA6F000018B510101C05D0001B2
:1010E0008C510101C159D8A0E2D7000ECF6F040E78
:1010F000CE6F000EBB6F000EB66F000EB56FB8D08E
:10110000CEC1C2F1CFC1C3F129D00101CE512F25EB
:10111000D96ECF513021DA6EC2C131F1C3C132F183
:10112000311F321F314B322BCE513127CF51322359
:10113000730E3125E16E010E3221E26EDFCFE7FF43
:10114000CE4BCF2BCE512F25D96ECF513021DA6E19
:101150002E0EDE18D8A402D0010EBB6FCE512F2563
:10116000D96ECF513021DA6EDF506BECA7F0D8B0DA
:10117000CCD70101CE512F25D96ECF513021DA6E57
:101180002D0EDE18D8B4C1D7CE512F25D96ECF5130
:101190003021DA6E2E0EDE18D8B4B7D7CE4BCF2B57
:1011A000010EC225316F000EC321326F311F321F75
:1011B000314B322BCE513127CF513223730E312593
:1011C000D96E010E3221DA6E000EDF6ECEC1C2F191
:1011D000CFC1C3F1BB51D8A41AD0C8C1C2F0C9C194
:1011E000C3F0CAC1C4F0CBC1C5F0730E0001BE6F1D
:1011F000010EBF6F1DECA7F0BEC0C6F0BFC0C7F0A8
:10120000C0C0C8F0C1C0C9F05EEC91F026D0C8C122
:10121000C2F0C9C1C3F0CAC1C4F0CBC1C5F0730EDE
:101220000001916F010E926F69ECA2F0000191C074
:1012300098F092C099F0000E99BFFF0E9A6F9B6FC5
:10124000010E20EC9CF098C0C6F099C0C7F09AC07F
:10125000C8F09BC0C9F05EEC91F0C2C0C8F1C3C039
:10126000C9F1C4C0CAF1C5C0CBF10101B54BB62B61
:10127000B351B55DB651800A316FB451800A31590E
:10128000D8A03ED78A0E106FFF0E116F00EC80F0D1
:10129000340E0101106FFF0E116FC8C112F1C9C1E8
:1012A00013F1CAC114F1CBC115F100EC80F08A0E24
:1012B0000101106FFF0E116F00EC80F012002FC1C2
:1012C000D9FF30C1DAFF4D0EDE18D8A4F8D00101E5
:1012D00020EE01F02F51D9263051DA22750EDE189A
:1012E000D8A4EDD020EE02F02F51D9263051DA22C9
:1012F0006C0EDE18D8A4E3D020EE03F02F51D926CF
:101300003051DA22740EDE18D8A4D9D0000EB86F8E
:10131000000EB76F010EBC6F000EBD6F000EBE6FEA
:10132000000EBF6F000EC56F000EC46F0ED0C4510B
:101330002F25D96EC5513021DA6E200EDE18D8A4C3
:1013400002D0B74BB82BC44BC52B2FC18BF030C18B
:101350008CF063ECA6F000018B510101C45D00012B
:101360008C510101C559D8A0E2D7000ECD6F050EF2
:10137000CC6F000EBA6F000EB96F7AD0CCC1C6F137
:10138000CDC1C7F11DD00101CC512F25D96ECD5152
:101390003021DA6EC6C131F1C7C132F1311F321FBF
:1013A000314B322BCC513127CD513223330E3125E5
:1013B000E16E010E3221E26EDFCFE7FFCC4BCD2B89
:1013C000CC512F25D96ECD513021DA6EDF506BEC28
:1013D000A7F0D8B0D8D70101CC512F25D96ECD5167
:1013E0003021DA6E2D0EDE18D8B4CDD7CC4BCD2BF4
:1013F000010EC625316F000EC721326F311F321F1B
:10140000314B322BCC513127CD513223330E312584
:10141000D96E010E3221DA6E000EDF6ECCC1C6F13C
:10142000CDC1C7F1BCC198F0BDC199F0BEC19AF061
:10143000BFC19BF0330E0001916F010E926F69ECFA
:10144000A2F0000191C09CF092C09DF0000E9DBFE3
:10145000FF0E9E6F9F6F85ECA5F098C0BCF199C000
:10146000BDF19AC0BEF19BC0BFF10101B94BBA2BCF
:10147000B751B95DBA51800A316FB851800A3159FC
:10148000D8A07CD78A0E106FFF0E116F00EC80F091
:10149000030E0101106FFF0E116FBCC112F1BDC12F
:1014A00013F1BEC114F1BFC115F100EC80F08A0E3A
:1014B0000101106FFF0E116F00EC80F012002FC1C0
:1014C0008BF030C18CF0E60E00018D6FFF0E8E6F39
:1014D000B1ECA5F000018B518C11D8A410D0F10E05
:1014E0000101106FFF0E116F00EC80F0F60E01018C
:1014F000106FFF0E116F00EC80F0FF0012002FC183
:101500008BF030C18CF0EC0E00018D6FFF0E8E6FF2
:10151000B1ECA5F000018B518C11D8A412008A0EF9
:101520000101106FFF0E116F00EC80F08B0E0101B6
:10153000106FFC0E116F00EC80F08A0E0101106F2D
:10154000FF0E116F00EC80F012000001BA6F000175
:10155000BAAF27D1BA6DBA51800A120FD8A0A5D060
:10156000000E946F0A0E936F000E8E6F640E8D6FD7
:10157000BA518B6F8C6B8BBF8C077CECA4F08BC04B
:1015800091F08CC092F074ECA3F00001D8909137E8
:101590009237D89091379237240E9127000E9223DC
:1015A0002F0E9125F66EFC0E9221F76EF86A000E52
:1015B000F8220900F5CF9DF00900F5CF9EF0090053
:1015C000F5CF9FF00A00F5CFA0F0000E946F640EE7
:1015D000936FBA51916F926B91BF920774ECA3F025
:1015E0000001D89091379237D89091379237480EB2
:1015F0009127000E92232F0E9125F66EFC0E92215C
:10160000F76EF86A000EF8220900F5CF99F009008C
:10161000F5CF9AF00900F5CF9BF00A00F5CF9CF0CA
:101620001CEC93F099C0B6F09AC0B7F09BC0B8F02C
:101630009CC0B9F0B6C099F0B7C09AF0B8C09BF0A2
:10164000B9C09CF0000E00018E6F0A0E8D6FBA516A
:101650008B6F8C6B8BBF8C077CECA4F00001D89057
:101660008B378C37D8908B378C372F0E8B25F66EB7
:10167000FC0E8C21F76EF86A000EF8220900F5CFF7
:101680009DF00900F5CF9EF00900F5CF9FF00A000C
:10169000F5CFA0F01CEC93F099C0B2F09AC0B3F073
:1016A0009BC0B4F09CC0B5F012000001BA51800A92
:1016B000750FD8A05DD0000E946F0A0E936FBA51CB
:1016C000916F926B91BF920774ECA3F00001D890D8
:1016D00091379237D89091379237240E9127000E88
:1016E00092232F0E9125F66EFC0E9221F76EF86A6A
:1016F000000EF8220900F5CF99F00900F5CF9AF015
:101700000900F5CF9BF00A00F5CF9CF0000E8E6F1C
:101710000A0E8D6FBA518B6F8C6B8BBF8C077CEC74
:10172000A4F00001D8908B378C37D8908B378C374A
:101730002F0E8B25F66EFC0E8C21F76EF86A000ECC
:10174000F8220900F5CF9DF00900F5CF9EF00900C1
:10175000F5CF9FF00A00F5CFA0F01CEC93F099C0F4
:10176000B2F09AC0B3F09BC0B4F09CC0B5F01200C8
:101770000001BA51040D2F0EF324F66EFC0EF42076
:10178000F76EF86A000EF8220900F5CFB2F00900F2
:10179000F5CFB3F00900F5CFB4F00A00F5CFB5F0FE
:1017A0001200BA51800A120FD8A0A5D0000E946F73
:1017B0000A0E936F000E8E6F640E8D6FBA518B6F91
:1017C0008C6B8BBF8C077CECA4F08BC091F08CC031
:1017D00092F074ECA3F00001D89091379237D89032
:1017E00091379237240E9127000E9223FB0E9125FC
:1017F000F66EFB0E9221F76EF86A000EF8220900D1
:10180000F5CF9DF00900F5CF9EF00900F5CF9FF0D0
:101810000A00F5CFA0F0000E946F640E936FBA51DA
:10182000916F926B91BF920774ECA3F00001D89076
:1018300091379237D89091379237480E9127000E02
:101840009223FB0E9125F66EFB0E9221F76EF86A3D
:10185000000EF8220900F5CF99F00900F5CF9AF0B3
:101860000900F5CF9BF00A00F5CF9CF01CEC93F03B
:1018700099C0B6F09AC0B7F09BC0B8F09CC0B9F060
:10188000B6C099F0B7C09AF0B8C09BF0B9C09CF050
:10189000000E00018E6F0A0E8D6FBA518B6F8C6B2C
:1018A0008BBF8C077CECA4F00001D8908B378C3771
:1018B000D8908B378C37FB0E8B25F66EFB0E8C2168
:1018C000F76EF86A000EF8220900F5CF9DF00900C6
:1018D000F5CF9EF00900F5CF9FF00A00F5CFA0F0FC
:1018E0001CEC93F099C0B2F09AC0B3F09BC0B4F076
:1018F0009CC0B5F012000001BA51800A750FD8A043
:101900005DD0000E946F0A0E936FBA51916F926B77
:1019100091BF920774ECA3F00001D89091379237F1
:10192000D89091379237240E9127000E9223FB0E08
:101930009125F66EFB0E9221F76EF86A000EF822E2
:101940000900F5CF99F00900F5CF9AF00900F5CF1D
:101950009BF00A00F5CF9CF0000E8E6F0A0E8D6F83
:10196000BA518B6F8C6B8BBF8C077CECA4F00001A1
:10197000D8908B378C37D8908B378C37FB0E8B25D4
:10198000F66EFB0E8C21F76EF86A000EF822090045
:10199000F5CF9DF00900F5CF9EF00900F5CF9FF03F
:1019A0000A00F5CFA0F01CEC93F099C0B2F09AC0F9
:1019B000B3F09BC0B4F09CC0B5F012000001BA5166
:1019C000040DFB0EF324F66EFB0EF420F76EF86A9E
:1019D000000EF8220900F5CFB2F00900F5CFB3F000
:1019E0000900F5CFB4F00A00F5CFB5F01200306E63
:1019F00030AE1FD1306C3050800A120FD8A0A1D069
:101A0000000E0A6E0A0E096E000E046E640E036E5E
:101A10003050016E026A01BE0206B5ECA4F001C0AE
:101A200007F002C008F0F9ECA3F0D89007360836AA
:101A3000D89007360836240E0726000E08222F0EEF
:101A40000724F66EFC0E0820F76EF86A000EF822E6
:101A50000900F5CF13F00900F5CF14F00900F5CF18
:101A600015F00A00F5CF16F0000E0A6E640E096E2E
:101A70003050076E086A07BE0806F9ECA3F0D8904C
:101A800007360836D89007360836480E0726000E67
:101A900008222F0E0724F66EFC0E0820F76EF86A57
:101AA000000EF8220900F5CF0FF00900F5CF10F075
:101AB0000900F5CF11F00A00F5CF12F0C5EC94F053
:101AC0000FC02CF010C02DF011C02EF012C02FF05E
:101AD0002CC00FF02DC010F02EC011F02FC012F04E
:101AE000000E046E0A0E036E3050016E026A01BED3
:101AF0000206B5ECA4F0D89001360236D890013633
:101B000002362F0E0124F66EFC0E0220F76EF86AE4
:101B1000000EF8220900F5CF13F00900F5CF14F0FC
:101B20000900F5CF15F00A00F5CF16F0C5EC94F0DA
:101B30000FC028F010C029F011C02AF012C02BF0FD
:101B400012003050800A750FD8A05BD0000E0A6ECC
:101B50000A0E096E3050076E086A07BE0806F9ECD7
:101B6000A3F0D89007360836D89007360836240EEA
:101B70000726000E08222F0E0724F66EFC0E082002
:101B8000F76EF86A000EF8220900F5CF0FF0090091
:101B9000F5CF10F00900F5CF11F00A00F5CF12F0E3
:101BA000000E046E0A0E036E3050016E026A01BE12
:101BB0000206B5ECA4F0D89001360236D890013672
:101BC00002362F0E0124F66EFC0E0220F76EF86A24
:101BD000000EF8220900F5CF13F00900F5CF14F03C
:101BE0000900F5CF15F00A00F5CF16F0C5EC94F01A
:101BF0000FC028F010C029F011C02AF012C02BF03D
:101C000012003050040D2F0EF324F66EFC0EF4205B
:101C1000F76EF86A000EF8220900F5CF28F00900E7
:101C2000F5CF29F00900F5CF2AF00A00F5CF2BF007
:101C300012003050800A120FD8A0A1D0000E0A6EF8
:101C40000A0E096E000E046E640E036E3050016EB3
:101C5000026A01BE0206B5ECA4F001C007F002C0A2
:101C600008F0F9ECA3F0D89007360836D89007367C
:101C70000836240E0726000E0822FB0E0724F66EF7
:101C8000FB0E0820F76EF86A000EF8220900F5CF67
:101C900013F00900F5CF14F00900F5CF15F00A0094
:101CA000F5CF16F0000E0A6E640E096E3050076E06
:101CB000086A07BE0806F9ECA3F0D8900736083684
:101CC000D89007360836480E0726000E0822FB0E6D
:101CD0000724F66EFB0E0820F76EF86A000EF82255
:101CE0000900F5CF0FF00900F5CF10F00900F5CF8E
:101CF00011F00A00F5CF12F0C5EC94F00FC02CF0F3
:101D000010C02DF011C02EF012C02FF02CC00FF01B
:101D10002DC010F02EC011F02FC012F0000E046E76
:101D20000A0E036E3050016E026A01BE0206B5EC67
:101D3000A4F0D89001360236D89001360236FB0E58
:101D40000124F66EFB0E0220F76EF86A000EF822F0
:101D50000900F5CF13F00900F5CF14F00900F5CF15
:101D600015F00A00F5CF16F0C5EC94F00FC028F07E
:101D700010C029F011C02AF012C02BF01200305010
:101D8000800A750FD8A05BD0000E0A6E0A0E096E8D
:101D90003050076E086A07BE0806F9ECA3F0D89029
:101DA00007360836D89007360836240E0726000E68
:101DB0000822FB0E0724F66EFB0E0820F76EF86A69
:101DC000000EF8220900F5CF0FF00900F5CF10F052
:101DD0000900F5CF11F00A00F5CF12F0000E046EE5
:101DE0000A0E036E3050016E026A01BE0206B5ECA7
:101DF000A4F0D89001360236D89001360236FB0E98
:101E00000124F66EFB0E0220F76EF86A000EF8222F
:101E10000900F5CF13F00900F5CF14F00900F5CF54
:101E200015F00A00F5CF16F0C5EC94F00FC028F0BD
:101E300010C029F011C02AF012C02BF0120030504F
:101E4000040DFB0EF324F66EFB0EF420F76EF86A19
:101E5000000EF8220900F5CF28F00900F5CF29F08F
:101E60000900F5CF2AF00A00F5CF2BF0120000018F
:101E7000B451B511D8B40CD0B4C0D9FFB5C0DAFF95
:101E8000B2C0DEFFB3C0DDFF03D00001B24BB32B05
:101E9000B2C0D9FFB3C0DAFFDF50B76FB75108EC5B
:101EA000A7F0D8B0F2D7000E0001B86F2D0EB71909
:101EB000D8A403D0010EB86F04D02B0EB719D8A444
:101EC00002D0B24BB32B000EB76F000EBA6F000EEC
:101ED000BB6F000EBC6F000EBD6F000EB96FB8B9BE
:101EE0000AD0B2C0D9FFB3C0DAFF2E0EDE18D8A4D4
:101EF00002D0B8893ED0B2C0D9FFB3C0DAFFDF50FC
:101F00006BECA7F0D8A038D00001B883090EB71940
:101F1000D8B42DD0B8B9B907B72BBAC098F0BBC0A8
:101F200099F0BCC09AF0BDC09BF00A0E9C6F000EE9
:101F30009D6F000E9E6F000E9F6F85ECA5F098C000
:101F4000BAF099C0BBF09AC0BCF09BC0BDF0B2C063
:101F5000D9FFB3C0DAFFDF500001B66FD00EB6274D
:101F6000B651BA27000EBB23BC23BD2302D0B8A9AB
:101F7000B92BB24BB32BB3D7000E0001B76FB2C071
:101F8000D9FFB3C0DAFF650EDE18D8B408D0B2C0EE
:101F9000D9FFB3C0DAFF450EDE18D8A462D0B24B29
:101FA000B32BB2C0D9FFB3C0DAFF2D0EDE18D8A410
:101FB00002D0B88708D0B2C0D9FFB3C0DAFF2B0E69
:101FC000DE18D8A402D0B24BB32BB2C0D9FFB3C035
:101FD000DAFF300EDE18D8B4F6D7B2C0D9FFB3C0DE
:101FE000DAFFDF506BECA7F0D8A038D0B2C0D9FF31
:101FF000B3C0DAFFDF50D00F0001B76FB24BB32B85
:10200000B2C0D9FFB3C0DAFFDF506BECA7F0D8A0A5
:1020100025D0B2C0D9FFB3C0DAFFDF500001B66FE0
:10202000B7510A0DF350B625D00FB76FB24BB32B93
:10203000B2C0D9FFB3C0DAFFDF506BECA7F0D8A075
:102040000DD0B2C0D9FFB3C0DAFFDF500001B66FC8
:10205000B7510A0DF350B625D00FB76F0001B8B7CE
:10206000B76DB751B927B451B511D8A4B8A308D0EA
:10207000B4C0D9FFB5C0DAFFB2C0DEFFB3C0DDFF28
:10208000BAC098F0BBC099F0BCC09AF0BDC09BF03C
:10209000010E20EC9CF098C0BAF099C0BBF09AC039
:1020A000BCF09BC0BDF00001BA51BB11BC11BD1109
:1020B000D8A409D0000EB26F000EB36F000EB46F3B
:1020C000000EB56F1200B9AF6DD0B96D1DD0BAC09A
:1020D0008BF0BBC08CF0BCC08DF0BDC08EF0F90E93
:1020E0008F6F020E906F150E916F500E926F6EEC07
:1020F00099F08BC0BAF08CC0BBF08DC0BCF08EC024
:10210000BDF0F60E0001B927B951800A760FD8A0AC
:102110001DD0DDD7BAC08BF0BBC08CF0BCC08DF039
:10212000BDC08EF0000E8F6F000E906F200E916F6D
:10213000410E926F6EEC99F08BC0BAF08CC0BBF080
:102140008DC0BCF08EC0BDF00001B907B951D8A454
:10215000E1D7BAC08BF0BBC08CF0BCC08DF0BDC065
:102160008EF0000E8F6F000E906F800E916F000E3C
:10217000926F6BECA0F00001D8B083D0B8A109D069
:10218000000EB26F000EB36F800EB46F800EB56F8D
:102190001200000EB26F000EB36F800EB46F000E0F
:1021A000B56F1200B951800A7F0FD8B01ED069D028
:1021B000BAC099F0BBC09AF0BCC09BF0BDC09CF007
:1021C000F90E9D6F020E9E6F150E9F6F500EA06F41
:1021D0001CEC93F099C0BAF09AC0BBF09BC0BCF065
:1021E0009CC0BDF0F60E0001B9270A0EB961E0D718
:1021F0001CD0BAC099F0BBC09AF0BCC09BF0BDC067
:102200009CF0000E9D6F000E9E6F200E9F6F410E82
:10221000A06F1CEC93F099C0BAF09AC0BBF09BC0C1
:10222000BCF09CC0BDF00001B907B951D8A4E1D7FA
:10223000FF0E8B6FFF0E8C6F7F0E8D6F7F0E8E6F7C
:10224000BAC08FF0BBC090F0BCC091F0BDC092F09E
:102250006BECA0F00001D8B014D0B8A109D0000EEA
:10226000B26F000EB36F800EB46F800EB56F1200A8
:10227000000EB26F000EB36F800EB46F000EB56F1C
:102280001200B8A112D0BAC08BF0BBC08CF0BCC099
:102290008DF0BDC08EF0D9ECA6F08BC0BAF08CC02A
:1022A000BBF08DC0BCF08EC0BDF0BAC0B2F0BBC0F8
:1022B000B3F0BCC0B4F0BDC0B5F012000001C55110
:1022C000800BCA6FC551C525CC6FC4BFCC81CC5122
:1022D000D8B40DD0CC29D8A408D0000EC26F000EFF
:1022E000C36F000EC46F000EC56FC48F06D0000E02
:1022F000C26F000EC36F000EC46F000EC56FC951D0
:10230000800BCB6FCA51CB19D8A4CA8DC951C9252E
:10231000CB6FC8BFCB81CB51D8B40DD0CB29D8A4BB
:1023200008D0000EC66F000EC76F000EC86F000EFB
:10233000C96FC88F06D0000EC66F000EC76F000EA3
:10234000C86F000EC96FCC51CB5DD8B022D0CAADDA
:1023500002D0800ECA1BCCC0CDF0CBC0CCF0CDC01B
:10236000CBF0C2C0CDF0C6C0C2F0CDC0C6F0C3C075
:10237000CDF0C7C0C3F0CDC0C7F0C4C0CDF0C8C059
:10238000C4F0CDC0C8F0C5C0CDF0C9C0C5F0CDC047
:10239000C9F0000ECD6FCC510101006F016B001F21
:1023A000011F004B012B0001CB510101026F036B98
:1023B000005102270151032303BF2DD0035104E133
:1023C0001A0E025DD8A027D00001C251C311C4115A
:1023D000C511D8B402D0010E01D0000ECD6F000E91
:1023E000C26F000EC36F000EC46F000EC56FCBC06E
:1023F000CCF016D0CDA105D0D890CD310109CD6F4C
:1024000002D0D890CD33C2B1CD8FC535C533C433DA
:10241000C333C233CC2B0001CB51CC5DD8A0EAD75B
:10242000CABD29D0CC51D8A409D0000EC26F000E6D
:10243000C36F000EC46F000EC56F1200C651C227D5
:10244000C751C323C851C423C951C523C5A196D0C0
:10245000CDA106D0D890CD33CD510109CD6F02D09A
:10246000D890CD33C2B1CD8FC535C533C433C33356
:10247000C233CC2B83D0C651C25DC751C359C8519A
:10248000C459C551800A0101006F0001C951800A79
:1024900001010059D8B045D0C2C000F1C3C001F15C
:1024A000C4C002F1C5C003F1001F011F021F031FBA
:1024B000002B000E0123022303230001C65101015A
:1024C0000025046F0001C75101010121056F0001C2
:1024D000C85101010221066F0001C9510101032108
:1024E000076FFF0E04250001C26FFF0E01010521D9
:1024F0000001C36FFF0E010106210001C46FFF0E32
:10250000010107210001C56F800ECA1BCD6DCD51A1
:10251000D8A410D0010EC227000EC323C423C523A4
:1025200009D00001C651C25FC751C35BC851C45B2B
:10253000C951C55BC251C311C411C511D8A41CD067
:10254000CD51D8A419D0000EC26F000EC36F000E7B
:10255000C46F000EC56F1200D890C237C337C4379E
:10256000C537CDBFC281CDA102D0D88001D0D890CF
:10257000CD37CC51D8A4CC07C4AFEED7000ECB6F6B
:10258000CDAF0FD0CDC000F17F0E01010017D8B440
:1025900003D0010E000104D00001C2A102D0010E3F
:1025A000CB6FCB51D8B422D0010EC227000EC3236B
:1025B000C423C523C5A11AD0C2C000F1C3C001F114
:1025C000C4C002F1C5C003F1010103350333023376
:1025D0000133003300C1C2F001C1C3F002C1C4F035
:1025E00003C1C5F00001CC29D8A4CC2BCC29D8B488
:1025F00003D0CC51D8A40DD0000EC26F000EC36F13
:10260000000EC46F000EC56FCC51D8A402D0000ECE
:10261000CA6FCCA102D0C48F01D0C49FD890CC3156
:10262000C56FCABFC58FC2C0C2F0C3C0C3F0C4C0AB
:10263000C4F0C5C0C5F0120000019C51800BA56F0D
:102640009C519C25AB6F9BBFAB81AB51D8B40DD0D7
:10265000AB29D8A408D0000E996F000E9A6F000E17
:102660009B6F000E9C6F9B8F08D0000E996F000E21
:102670009A6F000E9B6F000E9C6FA051800BA51BE4
:10268000A051A025AA6F9FBFAA81AA51D8B40DD08E
:10269000AA29D8A408D0000E9D6F000E9E6F000ED0
:1026A0009F6F000EA06F9F8F08D0000E9D6F000ED1
:1026B0009E6F000E9F6F000EA06FAA51D8B403D07A
:1026C000AB51D8A409D0000E996F000E9A6F000E7E
:1026D0009B6F000E9C6F12009F519903F3CFB0F0D7
:1026E000F4CFB1F0B051A66FA76BA86BA96BB15135
:1026F000AC6FAD6BAE6BAF6B9E519A03F3CFB0F086
:10270000F4CFB1F0B051A627000EA723A823A92328
:10271000B151AC27000EAD23AE23AF239D519B03D7
:10272000F3CFB0F0F4CFB1F0B051A627000EA7233D
:10273000A823A923B151AC27000EAD23AE23AF23AC
:10274000A8C0A9F0A7C0A8F0A6C0A7F0A66B9D518D
:102750009A03F3CFB0F0F4CFB1F0B051A627B15146
:10276000A723000EA823000EA9239E519903F3CF9F
:10277000B0F0F4CFB1F0B051A627B151A723000EAD
:10278000A823000EA923A8C0A9F0A7C0A8F0A6C03E
:10279000A7F0A66B9D519903F3CFB0F0F4CFB1F041
:1027A000B051A627B151A723000EA823000EA923DC
:1027B0009F519A03F3CFB0F0F4CFB1F0B051AC27F2
:1027C000B151AD23000EAE23000EAF239E519B03EB
:1027D000F3CFB0F0F4CFB1F0B051AC27B151AD238D
:1027E000000EAE23000EAF239F519B03F3CFB0F03A
:1027F000F4CFB1F0B051A16FB151A26FA36BA46B34
:10280000A3C0A4F0A2C0A3F0A1C0A2F0A16BA151EB
:10281000AC27A251AD23A351AE23A451AF23A6C030
:10282000A1F0A7C0A2F0A8C0A3F0A9C0A4F0190EFF
:1028300005D0D890A433A333A233A133E82EF9D71F
:10284000A151AC27A251AD23A351AE23A451AF2374
:10285000A8C0A9F0A7C0A8F0A6C0A7F0A66BAA516F
:10286000ABC0A1F0A26BA127000EA223820EA1256E
:10287000B06FFF0EA221B16F0FD0D890AC37AD373B
:10288000AE37AF37A9BFAC81D890A637A737A837E6
:10289000A937B007D8A0B107AEAFEFD7000EAA6F27
:1028A000A9AF16D0FF0EA615A16FFF0EA715A26F38
:1028B000FF0EA815A36F7F0EA915A46FA151A21139
:1028C000A311A411D8A402D0ACA102D0010EAA6F0A
:1028D000AA51D8B41FD0010EAC27000EAD23AE23F1
:1028E000AF23AFA117D0ACC0A1F0ADC0A2F0AEC075
:1028F000A3F0AFC0A4F0A435A433A333A233A13313
:10290000A1C0ACF0A2C0ADF0A3C0AEF0A4C0AFF0C7
:10291000B04BB12BB1BF0DD0B15103E1B029D8A05C
:1029200008D0000EAC6F000EAD6F800EAE6F7F0E44
:1029300020D0B1BF05D0B1510EE1B005D8B00BD059
:10294000000EAC6F000EAD6F000EAE6F000EAF6FDD
:10295000000EA56F0FD0B0C0ABF0FF0EAC17FF0E8E
:10296000AD177F0EAE17000EAF17ABB1AE8FD8907C
:10297000AB31AF6FA551AF13ACC099F0ADC09AF0B9
:10298000AEC09BF0AFC09CF012001250800B1B6ECB
:1029900012501224216E11BE21802150D8B40DD0C6
:1029A0002128D8A408D0000E0F6E000E106E000E65
:1029B000116E000E126E118E08D0000E0F6E000EFA
:1029C000106E000E116E000E126E1650800B1B1A48
:1029D00016501624206E15BE20802050D8B40DD07D
:1029E0002028D8A408D0000E136E000E146E000E1E
:1029F000156E000E166E158E08D0000E136E000EAA
:102A0000146E000E156E000E166E2050D8B403D052
:102A10002150D8A409D0000E0F6E000E106E000ECB
:102A2000116E000E126E120015500F02F3CF26F039
:102A3000F4CF27F026501C6E1D6A1E6A1F6A2750AD
:102A4000226E236A246A256A14501002F3CF26F0FE
:102A5000F4CF27F026501C26000E1D221E221F2216
:102A600027502226000E2322242225221350110251
:102A7000F3CF26F0F4CF27F026501C26000E1D229F
:102A80001E221F2227502226000E23222422252226
:102A90001EC01FF01DC01EF01CC01DF01C6A13508C
:102AA0001002F3CF26F0F4CF27F026501C26275033
:102AB0001D22000E1E22000E1F2214500F02F3CF03
:102AC00026F0F4CF27F026501C2627501D22000E9A
:102AD0001E22000E1F221EC01FF01DC01EF01CC0B3
:102AE0001DF01C6A13500F02F3CF26F0F4CF27F02D
:102AF00026501C2627501D22000E1E22000E1F22CB
:102B000015501002F3CF26F0F4CF27F026502226DE
:102B100027502322000E2422000E252214501102D9
:102B2000F3CF26F0F4CF27F0265022262750232279
:102B3000000E2422000E252215501102F3CF26F09C
:102B4000F4CF27F02650176E2750186E196A1A6AAC
:102B500019C01AF018C019F017C018F0176A1750EA
:102B6000222618502322195024221A5025221CC034
:102B700017F01DC018F01EC019F01FC01AF0190E72
:102B800005D0D8901A32193218321732E82EF9D7F8
:102B90001750222618502322195024221A50252279
:102BA0001EC01FF01DC01EF01CC01DF01C6A20506E
:102BB00021C017F0186A1726000E1822820E17245B
:102BC000266EFF0E1820276E0FD0D890223623369F
:102BD000243625361FBE2280D8901C361D361E3660
:102BE0001F362606D8A0270624AEEFD7000E206E8B
:102BF0001FAE16D0FF0E1C14176EFF0E1D14186E9C
:102C0000FF0E1E14196E7F0E1F141A6E1750181027
:102C100019101A10D8A402D022A002D0010E206EE2
:102C20002050D8B41FD0010E2226000E23222422C9
:102C3000252225A017D022C017F023C018F024C0E9
:102C400019F025C01AF01A341A3219321832173214
:102C500017C022F018C023F019C024F01AC025F0C4
:102C6000264A272A27BE0DD0275003E12628D8A0C0
:102C700008D0000E226E000E236E800E246E7F0E92
:102C800020D027BE05D027500EE12604D8B00BD0A7
:102C9000000E226E000E236E000E246E000E256EB6
:102CA000000E1B6E0FD026C021F0FF0E2216FF0E65
:102CB00023167F0E2416000E251621B0248ED890E0
:102CC0002130256E1B50251222C00FF023C010F0BA
:102CD00024C011F025C012F012003850800B456E50
:102CE00038503824476E37BE47804750D8B40DD08F
:102CF0004728D8A408D0000E356E000E366E000EA0
:102D0000376E000E386E378E06D0000E356E000E10
:102D1000366E000E376E000E386E3C50800B466EDD
:102D200045504618D8A4458C3C503C24466E3BBECA
:102D300046804650D8B40DD04628D8A408D0000EFE
:102D4000396E000E3A6E000E3B6E000E3C6E3B8EEE
:102D500006D0000E396E000E3A6E000E3B6E000E6D
:102D60003C6E4750465CD8B022D045AC02D0800EB5
:102D7000451A47C048F046C047F048C046F035C045
:102D800048F039C035F048C039F036C048F03AC094
:102D900036F048C03AF037C048F03BC037F048C082
:102DA0003BF038C048F03CC038F048C03CF0000E62
:102DB000486E47503D6E3E6A3D1E3E1E3D4A3E2ACD
:102DC00046503F6E406A3D503F263E50402240BE36
:102DD0002CD0405004E11A0E3F5CD8A026D03550CC
:102DE000361037103810D8B402D0010E01D0000EC2
:102DF000486E000E356E000E366E000E376E000EF9
:102E0000386E46C047F015D048A005D0D89048305D
:102E10000109486E02D0D890483235B0488E383417
:102E20003832373236323532472A4650475CD8A0DE
:102E3000EBD745BC29D04750D8A409D0000E356E39
:102E4000000E366E000E376E000E386E12003950CE
:102E500035263A5036223B5037223C50382238A093
:102E600083D048A006D0D890483248500109486E17
:102E700002D0D890483235B0488E383438323732A4
:102E800036323532472A70D03950355C3A50365890
:102E90003B5037583850800A3D6E3C50800A3D58B0
:102EA000D8B036D035C03DF036C03EF037C03FF028
:102EB00038C040F03D1E3E1E3F1E401E3D2A000E03
:102EC0003E223F22402239503D24416E3A503E205E
:102ED000426E3B503F20436E3C504020446EFF0EFC
:102EE0004124356EFF0E4220366EFF0E4320376EB2
:102EF000FF0E4420386E800E451A486C4850D8A406
:102F00000FD0010E3526000E36223722382208D087
:102F10003950355E3A50365A3B50375A3C50385A41
:102F20003550361037103810D8A41CD04850D8A4CB
:102F300019D0000E356E000E366E000E376E000E84
:102F4000386E1200D890353636363736383648BEA9
:102F5000358048A002D0D88001D0D890483647505C
:102F6000D8A4470637AEEED7000E466E48AE0AD05C
:102F700048C03DF07F0E3D16D8A402D035A002D047
:102F8000010E466E4650D8B420D0010E3526000EF4
:102F900036223722382238A018D035C03DF036C04E
:102FA0003EF037C03FF038C040F0403440323F324E
:102FB0003E323D323DC035F03EC036F03FC037F0C6
:102FC00040C038F04728D8A4472A4728D8B403D0AF
:102FD0004750D8A40DD0000E356E000E366E000E90
:102FE000376E000E386E4750D8A402D0000E456EE2
:102FF00047A002D0378E01D0379ED8904730386E28
:1030000045BE388E35C035F036C036F037C037F0A3
:1030100038C038F012000001BE6F6D0E0001BE65B1
:10302000BAD0000E946F0A0E936F000E8E6F640E6E
:103030008D6FBEC08BF08C6B7CECA4F08BC091F0DC
:103040008CC092F074ECA3F00001D89091379237C5
:10305000D89091379237240E9127000E92232F0E8D
:103060009125F66EFC0E9221F76EF86A000EF8229A
:103070000900F5CF9DF00900F5CF9EF00900F5CFCE
:103080009FF00A00F5CFA0F0000E946F640E936FCE
:10309000BEC091F0926B74ECA3F00001D890913710
:1030A0009237D89091379237480E9127000E92238D
:1030B0002F0E9125F66EFC0E9221F76EF86A000E27
:1030C000F8220900F5CF99F00900F5CF9AF0090030
:1030D000F5CF9BF00A00F5CF9CF01CEC93F099C063
:1030E000BAF09AC0BBF09BC0BCF09CC0BDF0000E13
:1030F00000018E6F0A0E8D6FBEC08BF08C6B7CEC66
:10310000A4F00001D8908B378C37D8908B378C3750
:103110002F0E8B25F66EFC0E8C21F76EF86A000ED2
:10312000F8220900F5CF9DF00900F5CF9EF00900C7
:10313000F5CF9FF00A00F5CFA0F0BAC099F0BBC060
:103140009AF0BCC09BF0BDC09CF01CEC93F099C001
:10315000B6F09AC0B7F09BC0B8F09CC0B9F0B6C04A
:1031600099F0B7C09AF0B8C09BF0B9C09CF0000EBF
:1031700000019D6F000E9E6F000E9F6F3F0EA06FAF
:103180001CEC93F099C0B2F09AC0B3F09BC0B4F0BD
:103190009CC0B5F012000A0E0001BE6574D0000E8E
:1031A0008E6F0A0E8D6FBEC08BF08C6B7CECA4F022
:1031B0000001D8908B378C37D8908B378C372F0EF7
:1031C0008B25F66EFC0E8C21F76EF86A000EF82245
:1031D0000900F5CF9DF00900F5CF9EF00900F5CF6D
:1031E0009FF00A00F5CFA0F0000E946F0A0E936FC7
:1031F000BEC091F0926B74ECA3F00001D8909137AF
:103200009237D89091379237240E9127000E92234F
:103210002F0E9125F66EFC0E9221F76EF86A000EC5
:10322000F8220900F5CF99F00900F5CF9AF00900CE
:10323000F5CF9BF00A00F5CF9CF01CEC93F099C001
:10324000BAF09AC0BBF09BC0BCF09CC0BDF0BAC045
:1032500099F0BBC09AF0BCC09BF0BDC09CF0000EC2
:1032600000019D6F000E9E6F000E9F6F3F0EA06FBE
:103270001CEC93F099C0B2F09AC0B3F09BC0B4F0CC
:103280009CC0B5F012000001BE51040D2F0EF324B6
:10329000F66EFC0EF420F76EF86A000EF8220900B4
:1032A000F5CF99F00900F5CF9AF00900F5CF9BF022
:1032B0000A00F5CF9CF0000E9D6F000E9E6F000E71
:1032C0009F6F3F0EA06F1CEC93F099C0B2F09AC0B4
:1032D000B3F09BC0B4F09CC0B5F0120000018E5159
:1032E000800B976F8E518E25A26F8DBFA281A25148
:1032F000D8B40DD0A229D8A408D0000E8B6F000E30
:103300008C6F000E8D6F000E8E6F8D8F06D0000EAD
:103310008B6F000E8C6F000E8D6F000E8E6F9251B2
:10332000800B971B92519225A36F91BFA381A3514C
:10333000D8B40DD0A329D8A408D0000E8F6F000EEA
:10334000906F000E916F000E926F918F06D0000E5D
:103350008F6F000E906F000E916F000E926F8F5165
:10336000901191119211D8A415D0000E8B6F000E00
:103370008C6F000E8D6F000E8E6F800E8D137F0E82
:103380008E138BC08BF08CC08CF08DC08DF08EC0F6
:103390008EF01200A251D8A411D0000E8B6F000E37
:1033A0008C6F000E8D6F000E8E6F8BC08BF08CC0FB
:1033B0008CF08DC08DF08EC08EF01200A351936FF3
:1033C000946B931F941F934B942BA251956F966B04
:1033D00093519527945196237F0E95259C6F000E4F
:1033E00096219D6F8BC098F08CC099F08DC09AF09B
:1033F0008EC09BF0000E8B6F000E8C6F000E8D6FD9
:10340000000E8E6F000E9E6F000E9F6F000EA06F5D
:10341000000EA16F000EA36F28D0A351D8B411D015
:10342000D890983799379A379B37D8908B378C3705
:103430008D378E37A1BF8B81D8909E379F37A037AD
:10344000A1378F51985D9051995991519A59925144
:103450009B59D8A009D0A18D8F51985F9051995B4D
:1034600091519A5B92519B5BA32B190EA365D5D703
:10347000985199119A119B11D8B411D09E810FD0F7
:10348000D8908B378C378D378E37A1BF8B81D890F2
:103490009E379F37A037A1379C07D8A09D078DAFD7
:1034A000EFD7000EA36FA1AF16D0FF0E9E15936F3E
:1034B000FF0E9F15946FFF0EA015956F7F0EA1153F
:1034C000966F9351941195119611D8A402D08BA1A7
:1034D00002D0010EA36FA351D8B41FD0010E8B27C9
:1034E000000E8C238D238E238EA117D08BC093F0DA
:1034F0008CC094F08DC095F08EC096F096359633C2
:1035000095339433933393C08BF094C08CF095C073
:103510008DF096C08EF09C4B9D2B9DBF10D09D5181
:1035200003E19C29D8A00BD0000E9D6F9C69000E72
:103530008B6F000E8C6F000E8D6F000E8E6F9DBF17
:1035400005D09D5111E19C05D8B00ED0000E9D6FA5
:10355000000E9C6F000E8B6F000E8C6F000E8D6F37
:10356000000E8E6F000E976F9CC0A2F0A2A102D039
:103570008D8F01D08D9FD890A2318E6F97518E1371
:103580008BC08BF08CC08CF08DC08DF08EC08EF017
:103590001200346E6D0E3464B5D0000E0A6E0A0E41
:1035A000096E000E046E640E036E34C001F0026AF0
:1035B000B5ECA4F001C007F002C008F0F9ECA3F0EC
:1035C000D89007360836D89007360836240E0726D6
:1035D000000E08222F0E0724F66EFC0E0820F76E50
:1035E000F86A000EF8220900F5CF13F00900F5CFB4
:1035F00014F00900F5CF15F00A00F5CF16F0000E13
:103600000A6E640E096E34C007F0086AF9ECA3F084
:10361000D89007360836D89007360836480E072661
:10362000000E08222F0E0724F66EFC0E0820F76EFF
:10363000F86A000EF8220900F5CF0FF00900F5CF67
:1036400010F00900F5CF11F00A00F5CF12F0C5EC2B
:1036500094F00FC030F010C031F011C032F012C041
:1036600033F0000E046E0A0E036E34C001F0026ADD
:10367000B5ECA4F0D89001360236D8900136023667
:103680002F0E0124F66EFC0E0220F76EF86A000E73
:10369000F8220900F5CF13F00900F5CF14F0090066
:1036A000F5CF15F00A00F5CF16F030C00FF031C09D
:1036B00010F032C011F033C012F0C5EC94F00FC01E
:1036C0002CF010C02DF011C02EF012C02FF02CC025
:1036D0000FF02DC010F02EC011F02FC012F0000E10
:1036E000136E000E146E000E156E3F0E166EC5ECB6
:1036F00094F00FC028F010C029F011C02AF012C0B9
:103700002BF012000A0E346471D0000E046E0A0E03
:10371000036E34C001F0026AB5ECA4F0D890013613
:103720000236D890013602362F0E0124F66EFC0EBA
:103730000220F76EF86A000EF8220900F5CF13F0A8
:103740000900F5CF14F00900F5CF15F00A00F5CF08
:1037500016F0000E0A6E0A0E096E34C007F0086AF1
:10376000F9ECA3F0D89007360836D890073608361B
:10377000240E0726000E08222F0E0724F66EFC0EDC
:103780000820F76EF86A000EF8220900F5CF0FF056
:103790000900F5CF10F00900F5CF11F00A00F5CFC0
:1037A00012F0C5EC94F00FC030F010C031F011C031
:1037B00032F012C033F030C00FF031C010F032C020
:1037C00011F033C012F0000E136E000E146E000ED6
:1037D000156E3F0E166EC5EC94F00FC028F010C0A9
:1037E00029F011C02AF012C02BF012003450040D41
:1037F0002F0EF324F66EFC0EF420F76EF86A000E1E
:10380000F8220900F5CF0FF00900F5CF10F00900FC
:10381000F5CF11F00A00F5CF12F0000E136E000E76
:10382000146E000E156E3F0E166EC5EC94F00FC0B0
:1038300028F010C029F011C02AF012C02BF012009D
:103840000001A06F0001A051D8A49BAF1AD098C06E
:103850009CF099C09DF09AC09EF09BC09FF09C1F69
:103860009D1F9E1F9F1F9C2B000E9D239E239F2309
:103870009CC0A2F09DC0A3F09EC0A4F09FC0A5F084
:1038800008D098C0A2F099C0A3F09AC0A4F09BC041
:10389000A5F0985199119A119B11D8A409D0000E46
:1038A000986F000E996F000E9A6F000E9B6F1200BA
:1038B000960EA16F06D0A12BD890A533A433A333C5
:1038C000A233000EA2159C6F000EA3159D6F000E73
:1038D000A4159E6FFE0EA5159F6F9C519D119E1104
:1038E0009F11D8B40DD0E7D7A12B010EA227000E4F
:1038F000A323A423A523D890A533A433A333A233B1
:10390000000EA2159C6F000EA3159D6F000EA4154E
:103910009E6FFF0EA5159F6F9C519D119E119F11CB
:10392000D8B407D0E1D7A107D890A237A337A437DE
:10393000A537A4BF03D0020EA161F5D7A1B108D06D
:10394000FF0EA217FF0EA3177F0EA417FF0EA517D9
:10395000D890A133A1C09CF09D6B9E6B9F6B9CC0C7
:103960009FF09E6B9D6B9C6B9C51A2139D51A3136A
:103970009E51A4139F51A513A051D8A49BAF01D071
:10398000A58FA2C098F0A3C099F0A4C09AF0A5C0DA
:103990009BF01200096E0950D8A404AE1AD001C0E1
:1039A00005F002C006F003C007F004C008F0051ED1
:1039B000061E071E081E052A000E062207220822E0
:1039C00005C00BF006C00CF007C00DF008C00EF0EB
:1039D00008D001C00BF002C00CF003C00DF004C011
:1039E0000EF00150021003100410D8A409D0000EEC
:1039F000016E000E026E000E036E000E046E1200C9
:103A0000960E0A6E06D00A2AD8900E320D320C326B
:103A10000B32000E0B14056E000E0C14066E000E19
:103A20000D14076EFE0E0E14086E055006100710DA
:103A30000810D8B40DD0E7D70A2A010E0B26000EC5
:103A40000C220D220E22D8900E320D320C320B3287
:103A5000000E0B14056E000E0C14066E000E0D14F5
:103A6000076EFF0E0E14086E0550061007100810A2
:103A7000D8B407D0E1D70A06D8900B360C360D36ED
:103A80000E360DBE03D0020E0A60F5D70AB008D07C
:103A9000FF0E0B16FF0E0C167F0E0D16FF0E0E16E8
:103AA000D8900A320AC005F0066A076A086A05C09B
:103AB00008F0076A066A056A05500B1206500C12D8
:103AC00007500D1208500E120950D8A404AE01D0B0
:103AD0000E8E0BC001F00CC002F00DC003F00EC042
:103AE00004F01200D0C0D3F10101D46B000ED86FE6
:103AF000000ED76FD8BF06D0D8510FE1400ED75D6A
:103B0000D8B00BD0800ED725D96E020ED821DA6E30
:103B1000000EDF6ED74BD82BEDD7000ED66F000E00
:103B2000D56F0ED082ECA6F00101D06F800ED525A6
:103B3000D96E020ED621DA6ED0C1DFFFD54BD62B5F
:103B4000D351D55DD651800AD06FD451800AD05957
:103B5000D8A0E8D75BC0D1F01CD0FF0E0101D06F18
:103B6000FF0ED16F800E00018B6F020E8C6F63EC25
:103B7000A6F00101D05100018B270101D1510001B4
:103B80008C23800E8B25D96E020E8C21DA6E000EEE
:103B9000DF6EFF0E0101D06FFF0ED16F800E0001AE
:103BA0008B6F020E8C6F63ECA6F00101D051000107
:103BB0008B270101D15100018C23800E8B25D96EFA
:103BC000020E8C21DA6E0A0EDE18D8B4C6D7FF0EAC
:103BD0000101D06FFF0ED16F800E00018B6F020EBE
:103BE0008C6F63ECA6F00101D05100018B2701011D
:103BF000D15100018C23800E8B25D96E020E8C21B1
:103C0000DA6E0D0EDE18D8B4A8D7000E0101D96FF8
:103C1000800E2F6F020E306FA0EC87F012008DC067
:103C200093F00001946B956B8C35933701E394818D
:103C300093519B6F9B51D8A409D0000E8B6F000E3F
:103C40008C6F000E8D6F000E8E6F120091C093F07E
:103C5000946B956B9035933701E3948193519A6FF0
:103C60009A51D8A409D0000E8B6F000E8C6F000EF5
:103C70008D6F000E8E6F12008C8FFF0E8B17FF0E54
:103C80008C17000E8D17908FFF0E8F17FF0E901759
:103C9000000E9117000E966F000E976F000E986F32
:103CA000000E996F7F0E9B5F9A51980F9B5F180EC5
:103CB0009A6FD89096379737983799378F518B5D91
:103CC00090518C5991518D59D8A007D08F518B5F4D
:103CD00090518C5B91518D5B9681D8908B378C374E
:103CE0008D379A2FE6D79BAF16D09B51800A970F3E
:103CF000D8B009D0000E8B6F000E8C6F000E8D6F48
:103D0000000E8E6F1200D890993398339733963304
:103D10009B3FF9D715D0170E9B650FD0000E8B6F08
:103D2000000E8C6F000E8D6F000E8E6F1200D890FB
:103D300096379737983799379B079B51D8A4F7D771
:103D400096C08BF097C08CF098C08DF099C08EF023
:103D5000120003C009F00A6A0B6A0234093601E353
:103D60000A800950116E1150D8A409D0000E016EBE
:103D7000000E026E000E036E000E046E120007C0ED
:103D800009F00A6A0B6A0634093601E30A80095011
:103D9000106E1050D8A409D0000E016E000E026EF5
:103DA000000E036E000E046E1200028EFF0E01164E
:103DB000FF0E0216000E0316068EFF0E0516FF0EEE
:103DC0000616000E0716000E0C6E000E0D6E000E8D
:103DD0000E6E000E0F6E7F0E115E1050980F115E6A
:103DE000180E106ED8900C360D360E360F36055064
:103DF000015C0650025807500358D8A007D0055060
:103E0000015E0650025A0750035A0C80D8900136C2
:103E100002360336102EE6D711AE16D01150800AA6
:103E2000970FD8B009D0000E016E000E026E000E82
:103E3000036E000E046E1200D8900F320E320D3257
:103E40000C32113EF9D715D0170E11640FD0000EA9
:103E5000016E000E026E000E036E000E046E120064
:103E6000D8900C360D360E360F3611061150D8A4E8
:103E7000F7D70CC001F00DC002F00EC003F00FC068
:103E800004F0120000018D358E35986F9851D8A43A
:103E900009D0000E8B6F000E8C6F000E8D6F000E20
:103EA0008E6F120091359235976F9751D8A409D033
:103EB000000E8B6F000E8C6F000E8D6F000E8E6FDC
:103EC00012008D8FFF0E8B17FF0E8C17FF0E8D17B4
:103ED000000E8E17918FFF0E8F17FF0E9017FF0E9B
:103EE0009117000E9217000E936F000E946F000E44
:103EF000956F000E966F7F0E985F9751A00F985F99
:103F0000200E976FD89093379437953796378F5107
:103F10008B5D90518C5991518D5992518E59D8A0E9
:103F200009D08F518B5F90518C5B91518D5B925179
:103F30008E5B9381D8908B378C378D378E37972F48
:103F4000E1D798AF16D09851800A9F0FD8B009D00A
:103F5000000E8B6F000E8C6F000E8D6F000E8E6F3B
:103F60001200D8909633953394339333983FF9D712
:103F700015D01F0E98650FD0000E8B6F000E8C6F42
:103F8000000E8D6F000E8E6F1200D890933794370D
:103F90009537963798079851D8A4F7D793C08BF0E8
:103FA00094C08CF095C08DF096C08EF01200033452
:103FB00004340E6E0E50D8A409D0000E016E000E0F
:103FC000026E000E036E000E046E120007340834F9
:103FD0000D6E0D50D8A409D0000E016E000E026EB9
:103FE000000E036E000E046E1200038EFF0E01160B
:103FF000FF0E0216FF0E0316000E0416078EFF0EAC
:104000000516FF0E0616FF0E0716000E0816000E08
:10401000096E000E0A6E000E0B6E000E0C6E7F0E07
:104020000E5E0D50A00F0E5E200E0D6ED89009365C
:104030000A360B360C360550015C06500258075004
:10404000035808500458D8A009D00550015E065006
:10405000025A0750035A0850045A0980D890013672
:104060000236033604360D2EE1D70EAE16D00E50B2
:10407000800A9F0FD8B009D0000E016E000E026EAC
:10408000000E036E000E046E1200D8900C320B323C
:104090000A3209320E3EF9D715D01F0E0E640FD02A
:1040A000000E016E000E026E000E036E000E046E16
:1040B0001200D89009360A360B360C360E060E5012
:1040C000D8A4F7D709C001F00AC002F00BC003F072
:1040D0000CC004F01200000E00018B15936F000E4F
:1040E0008C15946F800E8D15956F7F0E8E15966FC3
:1040F0009351941195119611D8A408D0000E8B6F8E
:10410000000E8C6F000E8D6F000E8E6F000E8F15DF
:10411000936F000E9015946F800E9115956F7F0E22
:104120009215966F9351941195119611D8A408D0B9
:10413000000E8F6F000E906F000E916F000E926F49
:104140008EAF1DD08BC093F08CC094F08DC095F0D5
:104150008EC096F0931F941F951F961F932B000EF1
:10416000942395239623000E93258B6F000E9421A4
:104170008C6F000E95218D6F800E96218E6F92AF01
:104180001DD08FC093F090C094F091C095F092C074
:1041900096F0931F941F951F961F932B000E942348
:1041A00095239623000E93258F6F000E9421906F18
:1041B000000E9521916F800E9621926F000E8B1B41
:1041C000000E8C1B000E8D1B800E8E1B000E8F1B95
:1041D000000E901B000E911B800E921B8F518B5D69
:1041E00090518C5991518D5992518E59D8B002D01D
:1041F000D8901200D8801200000E0114096E000E33
:1042000002140A6E800E03140B6E7F0E04140C6EE3
:1042100009500A100B100C10D8A408D0000E016E23
:10422000000E026E000E036E000E046E000E0514EA
:10423000096E000E06140A6E800E07140B6E7F0EB8
:1042400008140C6E09500A100B100C10D8A408D0DA
:10425000000E056E000E066E000E076E000E086E54
:1042600004AE1DD001C009F002C00AF003C00BF07B
:1042700004C00CF0091E0A1E0B1E0C1E092A000E9B
:104280000A220B220C22000E0924016E000E0A20C5
:10429000026E000E0B20036E800E0C20046E08AE22
:1042A0001DD005C009F006C00AF007C00BF008C019
:1042B0000CF0091E0A1E0B1E0C1E092A000E0A22F3
:1042C0000B220C22000E0924056E000E0A20066E39
:1042D000000E0B20076E800E0C20086E000E011AD7
:1042E000000E021A000E031A800E041A000E051AA0
:1042F000000E061A000E071A800E081A0550015CFF
:10430000065002580750035808500458D8B002D03D
:10431000D8901200D88012000001BD35BE35C46FA0
:10432000C451D8A409D0000EBB6F000EBC6F000EA4
:10433000BD6F000EBE6F1200BBC0BFF0BCC0C0F0AE
:10434000BDC0C1F0BEC0C2F0200E05D0D890C233AF
:10435000C133C033BF33E82EF9D7BF51C36FBD8F10
:10436000FF0EBB17FF0EBC17FF0EBD17000EBE17CA
:10437000960EC45FC4AF16D0C451800A970FD8B050
:1043800009D0000EBB6F000EBC6F000EBD6F000E9B
:10439000BE6F1200D890BE33BD33BC33BB33C43FB5
:1043A000F9D715D01F0EC4650FD0000EBB6F000EDD
:1043B000BC6F000EBD6F000EBE6F1200D890BB37F1
:1043C000BC37BD37BE37C407C451D8A4F7D7C351D3
:1043D000D8B408D0BE1FBD1FBC1FBB6D000EBC23D0
:1043E000BD23BE23BBC0BBF0BCC0BCF0BDC0BDF094
:1043F000BEC0BEF012002A342B34316E3150D8A426
:1044000009D0000E286E000E296E000E2A6E000ED6
:104410002B6E120028C02CF029C02DF02AC02EF0DF
:104420002BC02FF0200E05D0D8902F322E322D32F7
:104430002C32E82EF9D72C50306E2A8EFF0E28161B
:10444000FF0E2916FF0E2A16000E2B16960E315E51
:1044500031AE16D03150800A970FD8B009D0000E77
:10446000286E000E296E000E2A6E000E2B6E1200B2
:10447000D8902B322A3229322832313EF9D715D042
:104480001F0E31640FD0000E286E000E296E000E34
:104490002A6E000E2B6E1200D890283629362A3646
:1044A0002B3631063150D8A4F7D73050D8B408D0C5
:1044B0002B1E2A1E291E286C000E29222A222B229E
:1044C00028C028F029C029F02AC02AF02BC02BF0E0
:1044D000120003D00001914B922B91C0D9FF92C0E2
:1044E000DAFF200EDE18D8B4F5D791C0D9FF92C0FC
:1044F000DAFF090EDE18D8B4EDD7000E0001976F71
:10450000000E966F000E956F91C0D9FF92C0DAFF32
:104510002D0EDE18D8A402D0952B26D091C0D9FF3D
:1045200092C0DAFF2B0EDE18D8A420D01DD096C082
:104530008BF097C08CF0000E00018E6F0A0E8D6F0D
:1045400031ECA7F091C0D9FF92C0DAFFDF50000133
:10455000936F946B8B5193278C519423D00E93259A
:10456000966FFF0E9421976F914B922B91C0D9FFBC
:1045700092C0DAFFDF506BECA7F0D8B0D8D70001BB
:104580009551D8B40DD096C093F097C094F0931F76
:10459000941F934B942B93C091F094C092F012000F
:1045A00096C091F097C092F012000E01F5A302D0D0
:1045B000F599F5895B50010D000EF324D96E020EBA
:1045C000F420DA6EF1CEDFFF5B2A3F0E5B6402D08F
:1045D000000E5B6E0001D02B0A0E0E01F119D8B44B
:1045E00004D00D0EF119D8A407D0010E0101D96F26
:1045F000000E0E01F16F03D0000E0101D96F080EFD
:104600000E01F119D8A412005B50010D000EF32425
:10461000D96E020EF420DA6E000EDF6E5B06FA0E23
:10462000516EFF0E526EDAEC83F00001D1515B182F
:10463000D8B40BD05B50010D000EF324D96E020EDE
:10464000F420DA6E000EDF6E5B06000E0E01F16FD5
:104650001200000E7D6E000E7C6E000E796E000E54
:104660007E6E000E7A6E000E7F6E000E7B6E000E68
:10467000806E8568866881685F0E876E82680F0E1F
:10468000886E836884680E01A7699A69AF69BF0E56
:10469000BC6FB4699269000EA66F000EB36F000E76
:1046A000AE6F000E996F000EBB6F000E916F000E83
:1046B000A16F000EC06F000EAD6F000EB26F000E46
:1046C000906F000EBA6F000E986F000EBF6F000E55
:1046D000A06F000EA56F0E0E896F119111831185C9
:1046E00011971189118B1200000E0001966F94AF83
:1046F00006D0936D941FD8B0942B010E966F92AF95
:1047000006D0916D921FD8B0922B010E961B000E11
:10471000986F000E976F93519411D8B41CD0010E6E
:10472000956F04D0D89093379437952B94AFFAD7E0
:10473000D890973798379351915D94519259D8A05A
:1047400005D09351915F9451925B9781D8909433A7
:104750009333952FEDD79651D8B404D0976D981F09
:10476000D8B0982B97C091F098C092F01200000E2C
:104770000001936F000E946F000E956F000E966F00
:104780008F51901191119211D8B42AD0010E976FC8
:1047900006D0D8908F37903791379237972B92AFBA
:1047A000F8D7D89093379437953796378F518B5DDC
:1047B00090518C5991518D5992518E59D8A009D050
:1047C0008F518B5F90518C5B91518D5B92518E5BC1
:1047D0009381D8909233913390338F33972FE1D7D1
:1047E00093C08BF094C08CF095C08DF096C08EF085
:1047F0001200000E0C6E0AAE06D0096C0A1ED8B06C
:104800000A2A010E0C6E08AE06D0076C081ED8B03E
:10481000082A010E0C1A000E0E6E000E0D6E0950C5
:104820000A10D8B41CD0010E0B6E04D0D8900936F3
:104830000A360B2A0AAEFAD7D8900D360E36095032
:10484000075C0A500858D8A005D00950075E0A50E6
:10485000085A0D80D8900A3209320B2EEDD70C5031
:10486000D8B404D00D6C0E1ED8B00E2A0DC007F0BF
:104870000EC008F01200000E096E000E0A6E000E47
:104880000B6E000E0C6E0550061007100810D8B401
:104890002AD0010E0D6E06D0D890053606360736A2
:1048A00008360D2A08AEF8D7D89009360A360B36E6
:1048B0000C360550015C065002580750035808504A
:1048C0000458D8A009D00550015E0650025A07507E
:1048D000035A0850045A0980D89008320732063229
:1048E00005320D2EE1D709C001F00AC002F00BC05D
:1048F00003F00CC004F01200000E0001906F8CAFAA
:1049000006D08B6D8C1FD8B08C2B010E906F8EAFA4
:1049100004D08D6D8E1FD8B08E2B8D518E11D8B4D2
:1049200018D0010E8F6F04D0D8908D378E378F2B13
:104930008EAFFAD78D518B5D8E518C59D8A004D093
:104940008D518B5F8E518C5BD8908E338D338F2F32
:10495000F1D79051D8B404D08B6D8C1FD8B08C2B6C
:104960008BC08BF08CC08CF01200000E066E02AE75
:1049700006D0016C021ED8B0022A010E066E04AEEB
:1049800004D0036C041ED8B0042A03500410D8B419
:1049900018D0010E056E04D0D89003360436052ACF
:1049A00004AEFAD70350015C04500258D8A004D0DA
:1049B0000350015E0450025AD89004320332052E8F
:1049C000F1D70650D8B404D0016C021ED8B0022A28
:1049D00001C001F002C002F0120000019C519D11C3
:1049E0009E119F11D8B424D0010EA06F06D0D8908C
:1049F0009C379D379E379F37A02B9FAFF8D79C5190
:104A0000985D9D5199599E519A599F519B59D8A093
:104A100008D09C51985F9D51995B9E519A5B9F5124
:104A20009B5BD8909F339E339D339C33A02FE7D759
:104A300098C098F099C099F09AC09AF09BC09BF0EA
:104A400012001250131014101510D8B424D0010EF7
:104A5000166E06D0D8901236133614361536162A2E
:104A600015AEF8D712500E5C13500F581450105852
:104A700015501158D8A008D012500E5E13500F5A7E
:104A80001450105A1550115AD8901532143213324E
:104A90001232162EE7D70EC00EF00FC00FF010C066
:104AA00010F011C011F012000E012C9FAA0E00018F
:104AB0008B6F450E8C6F010E8D6FBDECA7F00E0154
:104AC0002C9D7C0E00018B6F4D0E8C6F010E8D6F37
:104AD000B6ECA7F0080E0E01F76F900EF56F240EDE
:104AE000F66F8A0EF36F000EF46F000E0001D36FA5
:104AF000000ED26F400ED46F000E5B6E000ED16FB1
:104B0000000ED06F0E012C8F1200000E0001A06F5E
:104B1000000EA16F000EA26F000EA36F98A108D027
:104B20009C51A0279D51A1239E51A2239F51A323B5
:104B3000D8909C379D379E379F37D8909B339A33B8
:104B400099339833985199119A119B11D8A4E6D7AB
:104B5000A0C098F0A1C099F0A2C09AF0A3C09BF0A9
:104B6000120005D000018B4B8C2B8D4B8E2B8BC0F4
:104B7000D9FF8CC0DAFFDF5000018F6F8DC0F6FFC8
:104B80008EC0F7FF000EF86E0800F55000088F2564
:104B9000906F9051D8A407D08BC0D9FF8CC0DAFF9A
:104BA000DF50D8A4DFD790518B6F8C6B8BBF8C07F5
:104BB0001200000E01010C1B000E0D1B000E0E1B3F
:104BC000800E0F1B08C1C2F009C1C3F00AC1C4F0B6
:104BD0000BC1C5F00CC1C6F00DC1C7F00EC1C8F0C5
:104BE0000FC1C9F05EEC91F0C2C008F1C3C009F179
:104BF000C4C00AF1C5C00BF11200000E4D1A000E20
:104C00004E1A000E4F1A800E501A49C035F04AC095
:104C100036F04BC037F04CC038F04DC039F04EC0C4
:104C20003AF04FC03BF050C03CF06DEC96F035C010
:104C300049F036C04AF037C04BF038C04CF0120093
:104C400000018B6F0001D451D8B4FCD70E012CBDEC
:104C500003D08BC0F2FE13D02C9D0001D351010D67
:104C6000400EF324D96E020EF420DA6E8BC0DFFF03
:104C7000D32B3F0ED36502D0000ED36FD4070E01A5
:104C80002C8D1200016E0001D451D8B4FCD70E0156
:104C90002CBD03D001C0F2FE13D02C9D0001D351D6
:104CA000010D400EF324D96E020EF420DA6E01C01D
:104CB000DFFFD32B3F0ED36502D0000ED36FD40796
:104CC0000E012C8D12008BC08FF08CC090F003D0A1
:104CD00000018F4B902B8FC0D9FF90C0DAFFDF50BF
:104CE000D8A4F6D78BC08DF08CC08EF000018D1F3C
:104CF0008E1F8D4B8E2B8F518D258B6F90518E215A
:104D00008C6F1200000E00018B6FD051D8B4FDD70C
:104D1000D151010D000EF324D96E020EF420DA6E8B
:104D2000DF508B6FD12B3F0ED16502D0000ED16FBB
:104D30000E012C9F0001D0070E012C8F00018B511A
:104D40001200F10E0101106FFF0E116F00EC80F0E8
:104D5000F60E0101106FFF0E116F00EC80F0B70E20
:104D60000101106FFD0E116F00EC80F08A0E010141
:104D7000106FFF0E116F00EC80F01200400E00016A
:104D8000D46114D0D251010D400EF324D96E020E1D
:104D9000F420DA6EDF500E01F26F0001D22B3F0ECD
:104DA000D26502D0000ED26FD42B12000E012C9DC2
:104DB000120000018B518C118D118E11D8B408D0C6
:104DC000000E8B1B000E8C1B000E8D1B800E8E1B8D
:104DD0008BC08BF08CC08CF08DC08DF08EC08EF0AF
:104DE00012000150021003100410D8B408D0000EB5
:104DF000011A000E021A000E031A800E041A01C0D6
:104E000001F002C002F003C003F004C004F012007D
:104E100000018D6F010E00018C6F200E8D19D8B42A
:104E200008D00E0E8D6103D0090E8D6102D0000EE8
:104E30008C6F8CC08BF08B311200BEC0B2F0BFC043
:104E4000B3F0000E0001B46F000EB56F37EC8FF0B9
:104E5000B2C0BEF0B3C0BFF0B4C0C0F0B5C0C1F0C6
:104E6000120000018B518D03F3CF8FF0F4CF90F03F
:104E70008B518E03F35090278C518D03F350902764
:104E80008FC08BF090C08CF0120002EE00F0C00ECC
:104E9000EE6AE806FDE10101D96B0001D36BD26B2C
:104EA000D16BD06B5B6A5C905C9200017CEFA7F0E9
:104EB00001500302F3CF05F0F4CF06F001500402D5
:104EC000F350062602500302F350062605C001F0F7
:104ED00006C002F0120000018D6F000E00018C6F01
:104EE0003A0E8D6105D02F0E8D6502D0010E8C6FAC
:104EF0008CC08BF08B311200A4ECA7F0F28EF28CF8
:104F0000A1ECA6F000F00101D951D8B4FBD772ECA6
:104F10009DF0F8D7000E0E014C6F000E4D6F000E85
:104F20004E6F000E4F6F000E506F000E516F12004B
:104F3000600E0E01436F000E456F000E476F080EA6
:104F4000496F000E486F1200C4ECA7F08AECA7F07E
:104F500029ECA3F098ECA7F054ECA5F012000001A6
:104F60008C6F00018C5120ECA6F012008BC058F021
:104F70008CC059F08DC05AF012008BC055F08CC017
:104F800056F08DC057F01200F28A0E01228D228F4A
:0C4F90001200026E025042ECA6F012006B
:020000040020DA
:10000000FF0FFF0FFF0FFF0FFF0FFF0FFF0FFF0F80
:020000040030CA
:0C000000ECFFFFF79FFFFFDFFFFFFFFF9B
:00000001FF
